:020000040800F2
:10000000000001205D0800084108000843080008BE
:1000100045080008470800084908000800000000DB
:100020000000000000000000000000004B08000875
:100030004D080008000000004F08000851080008A3
:10004000AD080008AD080008AD080008AD080008BC
:10005000AD080008AD080008AD080008AD080008AC
:10006000AD080008AD080008AD080008AD0800089C
:10007000AD080008AD080008AD080008AD0800088C
:10008000AD080008AD080008AD0800080000000039
:10009000000000000000000000000000AD080008A3
:1000A000AD080008AD080008AD080008AD0800085C
:1000B000AD080008AD080008AD080008AD0800084C
:1000C000AD080008AD080008AD080008AD0800083C
:1000D000AD080008AD080008AD08000800000000E9
:1000E000AD080008AD080008AD08000800000000D9
:1000F000000000000000000000000000AD08000843
:1001000000000000AD080008AD080008AD080008B8
:1001100000000000000000000000000000000000DF
:10012000AD080008AD080008AD080008AD080008DB
:10013000AD08000800000000000000000000000002
:10014000000000000000000000000000AD080008F2
:10015000AD080008AD080008AD080008AD080008AB
:10016000AD080008AD080008000000000000000015
:10017000000000000000000000000000000000007F
:1001800000000000AD0800080000000000000000B2
:04019000AD080008AE
:1001940053B94AB9002908BF00281CBF4FF0FF31EA
:1001A4004FF0FF3000F00CB8ADF1080C6DE904CE4F
:1001B40001F0D4FDDDF804E0DDE9022304B070476A
:1001C400704700BF0348044B834202D0034B03B182
:1001D40018477047100000201000002000000000A5
:1001E4000548064B1B1AD90F01EBA301491002D095
:1001F400034B03B118477047100000201000002083
:100204000000000010B5064C237843B9FFF7DAFF6D
:10021400044B13B10448AFF300800123237010BDD5
:100224001000002000000000E021000808B5054B84
:100234001BB105490548AFF30080BDE80840FFF74E
:10024400CFBF00BF0000000014000020E021000820
:10025400F0B589B00024039404940594069407949B
:100264000094264B1A6B42F004021A631A6B02F0D4
:1002740004020092009A01941A6B42F001021A637C
:100284001A6B02F001020192019A02941A6B42F075
:1002940002021A631B6B03F002030293029B184FC2
:1002A40022464FF40051384600F048FE154D2246D0
:1002B4004FF4E041284600F041FE4FF4005303930D
:1002C400012604960594069403A9384600F04EFDD1
:1002D4004FF4E043039304960594069403A9284637
:1002E40000F044FD4FF40043039303230493059467
:1002F40003A9284600F03AFD09B0F0BD00380240D9
:10030400000802400004024038B50446094D0122A9
:100314004FF48051284600F011FE0A2000F018FB2B
:1003240000224FF48051284600F008FE204600F0D9
:100334000FFB38BD0004024072B6FEE700B585B07D
:10034400002300930193029303931348134A02601A
:10035400436083600361037680F82030C362104AEF
:100364008262C3600122C26180F83030426100F0D1
:100374009DFB60B900230093012201920293694618
:10038400054800F0BFFB20B905B05DF804FBFFF79A
:10039400D3FFFFF7D1FF00BF100100200020014070
:1003A4000100000F08B50A480A4B03600A4B43607A
:1003B40000238360C3604FF4804202614361836120
:1003C400C361036200F052FF00B908BDFFF7B4FF38
:1003D400BC00002000540040A086010008B50A4873
:1003E4000A4B036047F61223436000238360C36013
:1003F40003610C2242618361C36101F07FFC00B997
:1004040008BDFFF799FF00BF7400002000100140F1
:1004140008B50A480A4B03604FF4E13343600023F4
:100424008360C36003610C2242618361C36101F094
:1004340065FC00B908BDFFF77FFF00BF2C0000205A
:100444000044004000B595B03022002108A801F016
:10045400E3FD002303930493059306930793019309
:10046400194A116C41F080511164126C02F08052EF
:100474000192019A029315490A6822F4404242F417
:1004840000420A600A6802F440420292029A02227E
:10049400089201220B9210220C920E9308A801F0EC
:1004A4007FF868B90F230393002104910591069105
:1004B400079103A801F0C4FA20B915B05DF804FB54
:1004C400FFF73AFFFFF738FF0038024000700040A2
:1004D40010B500F011FAFFF7B5FFFFF7B9FEFFF70B
:1004E4002DFFFFF75FFFFFF779FFFFF791FF2D4C1B
:1004F400204600F089F800224FF400512A4800F009
:100504001DFD00221146204600F060F8254C4FF4F2
:10051400DE720021204600F059F84FF47A70FFF79C
:10052400F3FE40F28A320021204600F04FF8FA2010
:10053400FFF7EAFE4FF45E720021204600F046F811
:100544007D20FFF7E1FE4FF401720021204600F008
:100554003DF8FA20FFF7D8FE4FF4587200212046E8
:1005640000F034F84FF4FA70FFF7CEFE4FF4017246
:100574000021204600F02AF87D20FFF7C5FE4FF445
:1005840046720021204600F021F8FA20FFF7BCFE55
:100594004FF401720021204600F018F87D20FFF787
:1005A400B3FEB3E7BC0000200008024000B585B0EC
:1005B4008DF80F104FF0FF33009301230DF10F025C
:1005C400002100F031FF05B05DF804FB10B584B0E4
:1005D400044649B24B0043F058038DF80C304901EE
:1005E40041EA12218DF80D108DF80E204FF0FF33E3
:1005F4000093032303AAC02100F016FF082120461C
:10060400FFF7D4FF04B010BD10B586B00446062130
:10061400FFF7CCFF09212046FFF7C8FF50238DF8D0
:100624000C3001230FE0590001F119026A44002043
:1006340002F80C0C5A1ED2B212011831694401F8A6
:100644000C2C0133DBB2042BEDD94FF0FF330093B4
:10065400092303AAC021204600F0E6FE0821204613
:10066400FFF7A4FF06B010BD82B0002100910B4B30
:100674005A6C42F480425A645A6C02F480420092EA
:10068400009A01911A6C42F080521A641B6C03F0B8
:1006940080530193019B02B0704700BF00380240B1
:1006A40000B589B00023039304930593069307933D
:1006B400026803F1804303F590339A4202D009B0F3
:1006C4005DF804FB0021019103F58C335A6C42F46C
:1006D40080725A645A6C02F480720192019A0291F7
:1006E4001A6B42F001021A631B6B03F001030293BD
:1006F400029B012303930323049303A9014800F0FD
:1007040035FBDCE70000024030B589B000230393D9
:1007140004930593069307930268144B9A4201D0FD
:1007240009B030BD00250195114C236B43F0020341
:100734002363236B03F002030193019BC023039300
:1007440012230493032306930423079303A909485C
:1007540000F00CFB0295236C43F400132364236C18
:1007640003F400130293029BDAE700BF0054004035
:10077400003802400004024000B58BB0002305930A
:1007840006930793089309930368284A934205D074
:10079400274A934226D00BB05DF804FB0021019157
:1007A400244B5A6C42F010025A645A6C02F0100244
:1007B4000192019A02911A6B42F001021A631B6BB7
:1007C40003F001030293029B4FF4C06305930223D9
:1007D4000693032308930723099305A9164800F0F9
:1007E400C5FAD8E700210391124B1A6C42F4003287
:1007F4001A641A6C02F400320392039A04911A6B7D
:1008040042F001021A631B6B03F001030493049B7F
:100814000C230593022306930323089307230993C8
:1008240005A9054800F0A2FAB5E700BF0010014091
:10083400004400400038024000000240FEE7FEE7AA
:10084400FEE7FEE7FEE770477047704708B500F023
:100854006DF808BD70470000DFF834D0FFF7FAFFE9
:100864000C480D490D4A002302E0D458C450043307
:10087400C4188C42F9D30A4A0A4C002301E01360DD
:100884000432A242FBD301F019FCFFF721FE7047AA
:100894000000012000000020100000202422000895
:1008A40010000020F4020020FEE7000010B504460A
:1008B4000E4B1A784FF47A73B3FBF2F30C4A1068B8
:1008C400B0FBF3F000F03EFA68B90F2C01D9012017
:1008D4000AE0002221464FF0FF3000F023FA054BD6
:1008E4001C60002000E0012010BD00BF04000020B7
:1008F400000000200800002008B50B4B1A6842F4E1
:1009040000721A601A6842F480621A601A6842F42B
:1009140080721A60032000F0F3F90F20FFF7C6FF7E
:10092400FFF7A2FE002008BD003C0240034A116804
:10093400034B1B780B441360704700BF5801002021
:1009440004000020014B1868704700BF58010020C4
:1009540038B50446FFF7F6FF0546B4F1FF3F02D071
:10096400044B1B781C44FFF7EDFF401BA042FAD355
:1009740038BD00BF040000204A4B5A6822F44032BC
:100984005A605A6841680A435A600268536823F4FB
:100994008073536002685368016943EA012353601A
:1009A4000268536823F04073536002685368816897
:1009B4000B4353600268936823F4006393600268F6
:1009C4009368C1680B439360826A374B9A4257D04D
:1009D4000268936823F07063936002689368816A85
:1009E4000B4393600268936823F04053936002685A
:1009F4009368C16A0B4393600268936823F002030F
:100A0400936002689368017E43EA4103936090F81F
:100A14002030002B3FD00268536843F400635360D6
:100A24000268536823F46043536001684B68426A68
:100A3400013A43EA42334B600268D36A23F47003F9
:100A4400D3620168CB6AC269013A43EA0253CB62BA
:100A54000268936823F4007393600268936890F8C3
:100A6400301043EA412393600268936823F480635F
:100A7400936002689368416943EA812393607047F5
:100A84000268936823F0706393600268936823F0AC
:100A940040539360B0E70268536823F400635360E3
:100AA400CAE700BF002301400100000F38B310B5AE
:100AB4000446036C43B1236C13F0100F0BD00120D8
:100AC400002384F83C3010BDFFF7EAFD0023636483
:100AD40084F83C30EFE7236C23F4885323F00203BB
:100AE40043F0020323642046FFF746FF00206064BE
:100AF400236C23F0030343F001032364E0E70120A4
:100B04007047000030B482B00022019290F83C207B
:100B1400012A00F0B6800346012280F83C200A68CE
:100B2400092A40D90468E06892B202EB42021E3AF4
:100B34004FF0070C0CFA02F220EA0202E2601C6891
:100B4400E0680A8802EB42021E3A8D6805FA02F256
:100B54000243E2604A68062A3CD81C68606B02EBD8
:100B64008202053A4FF01F0C0CFA02F220EA02024C
:100B740062631C68606B4A6802EB8202053AB1F852
:100B840000C00CFA02F20243626318683E4A9042C3
:100B940050D018683C4A904255D0002083F83C005D
:100BA40002B030BC70470468206992B202EB420282
:100BB4004FF0070C0CFA02F220EA020222611C68D0
:100BC40020690A8802EB42028D6805FA02F20243A8
:100BD4002261BFE70C2A16D81D68286B02EB82023B
:100BE400233A1F2404FA02F220EA02022A631D684F
:100BF400286B4A6802EB8202233A0C8804FA02F258
:100C040002432A63C1E71D68E86A02EB8202413AA3
:100C14001F2404FA02F220EA0202EA621D68E86A6A
:100C24004A6802EB8202413A0C8804FA02F2024357
:100C3400EA62AAE70A68122AABD11448426842F46D
:100C440080024260A5E70A68103A012AA5D80F4835
:100C5400426842F4000242600A68102A9DD10C4A9C
:100C640012680C49A1FB0212920C02EB82025200A0
:100C7400019202E0019A013A0192019A002AF9D103
:100C84008BE702208CE700BF0020014000230140D5
:100C94000000002083DE1B43002808DB0901C9B2E1
:100CA40000F1604000F5614080F80013704700F0E7
:100CB4000F000901C9B2014B1954704714ED00E04B
:100CC40000B500F00700C0F1070CBCF1040F28BF09
:100CD4004FF0040C031D062B0FD9C31E4FF0FF3E2B
:100CE4000EFA0CF021EA000199400EFA03FE22EA02
:100CF4000E0241EA02005DF804FB0023EEE7000067
:100D0400074AD36823F4E0631B041B0C000200F4BD
:100D1400E060034343F0BF6343F40033D3607047A0
:100D240000ED00E010B50446054BD868C0F302207E
:100D3400FFF7C6FF01462046FFF7AEFF10BD00BF18
:100D440000ED00E00138B0F1807F0BD24FF0E023DA
:100D54005861054AF02182F8231000209861072287
:100D64001A6170470120704700ED00E000230F2B4B
:100D740000F2DA8030B583B068E085684FEA430E4C
:100D8400032404FA0EF425EA0405CC6804FA0EF4EC
:100D94002C438460446824EA02044A68C2F30012C3
:100DA4009A40224342605FE0DC08083450F8242073
:100DB40003F00705AD004FF00F0E0EFA05FE22EA10
:100DC4000E0E0A69AA4042EA0E0240F824205FE0AF
:100DD400042200E0002202FA0EF22A430234534DA8
:100DE40045F82420524A94686FEA0C0224EA0C0560
:100DF400D1F804E01EF4801F01D04CEA04054C4CE9
:100E0400A560E46802EA0405D1F804E01EF4001FBA
:100E140001D04CEA0405464CE560646802EA040526
:100E2400D1F804E01EF4003F01D04CEA0405404C24
:100E34006560246822404D6815F4803F01D04CEA77
:100E440004023B4C226001330F2B6BD801229A40E1
:100E54000C6804EA020C32EA0404F4D14C6804F08D
:100E64000304013C012C88D94A6802F00302032AD6
:100E740009D0C4685D000322AA4024EA02048A68F7
:100E8400AA402243C2604A6802F00302022A8BD0BD
:100E940004684FEA430E032202FA0EF224EA020423
:100EA4004A6802F0030202FA0EF2224302604A6820
:100EB40012F4403FC7D0002201921E4A546C44F4FD
:100EC40080445464526C02F480420192019A9C085A
:100ED400A51C164A52F8255003F0030E4FEA8E0E55
:100EE4000F2202FA0EF225EA0205134A90423FF459
:100EF40071AF02F5806290420ED002F5806290429A
:100F04000CD002F5806290420AD002F580629042D1
:100F14003FF45EAF07225EE701225CE702225AE754
:100F2400032258E703B030BD704700BF00380140CA
:100F3400003C014000380240000002400AB18161D7
:100F4400704709048161704703685A6912F4806F1D
:100F540001D1002070476FF480625A61002303635B
:100F6400202280F83D2080F83E30026C42F00402DA
:100F7400026480F83C30012070472DE9F0410646B8
:100F84000C46174698463BE0FFF7DCFC069BC01A6C
:100F9400404502D8B8F1000F32D1012D18D0336882
:100FA4009B6924EA03039BB2B3FA83F35B099F4270
:100FB40026D100233363202286F83D2086F83E3074
:100FC400326C42F02002326486F83C30012027E083
:100FD40033685B6924EA03039BB2B3FA83F35B09C6
:100FE400E5E733685B6924EA030C1FFA8CFCBCFA5E
:100FF4008CFC4FEA5C1C674511D1B8F1FF3FC3D1AB
:10100400C4F30745012DECD033689B6924EA030C33
:101014001FFA8CFCBCFA8CFC4FEA5C1CEBE700204A
:10102400BDE8F0812DE9F84305460E469046994601
:1010340053E01A6842F400721A602B686FF48062FD
:101044005A6100232B63202285F83D2085F83E3029
:101054002A6C42F004022A6485F83C3001204AE0FC
:10106400FFF770FCA0EB0900404502D8B8F1000F6F
:1010740033D1012F17D02B689B6926EA03039BB257
:10108400003B18BF012343B300232B63202285F8C0
:101094003D2085F83E302A6C42F020022A6485F80F
:1010A4003C30012027E02B685B6926EA03039BB2EE
:1010B400003B18BF0123E6E72B689C6926EA040479
:1010C400A4B2003C18BF0124A4B12B685A6912F4DD
:1010D400806FAED1B8F1FF3FC2D1C6F30747012FED
:1010E400EAD12B685C6926EA0404A4B2003C18BF68
:1010F4000124E9E70020BDE8F8830000F0B583B0DF
:1011040004460D4616461F46C36A082B0DD0012B14
:101114000BD013F5803F08D0036B122B0AD1026861
:10112400136843F48073136004E02268136843F483
:10113400807313600097334600224FF0011120465C
:10114400FFF71BFF80B92369B3F5804F16D12368DD
:1011540005F0FE051D613B46324613492046FFF764
:1011640061FFF8B903B0F0BD23681B6813F4807FF6
:1011740002D04FF4007323640320F3E7EB112268D9
:1011840003F0060343F0F00313613B46324607497C
:101194002046FFF747FF18B92368EDB21D61DAE76F
:1011A4000120DFE70120DDE7020001000800010063
:1011B40070B504460D46164623685B6913F0800F2C
:1011C40021D12046FFF7C0FEF8B9B5F1FF3FF3D0B7
:1011D400FFF7B8FB801BA84201D8002DECD123688F
:1011E4005B6913F0800FE7D100232363202284F886
:1011F4003D2084F83E30226C42F02002226484F8C0
:101204003C30012000E0002070BD0120FCE770B5F7
:1012140004460D46164623685B6913F0040F21D17A
:101224002046FFF791FEF8B9B5F1FF3FF3D0FFF781
:1012340089FB801BA84201D8002DECD123685B698F
:1012440013F0040FE7D100232363202284F83D2008
:1012540084F83E30226C42F02002226484F83C3050
:10126400012000E0002070BD0120FCE7002800F010
:10127400CC8070B5044690F83D30002B77D0242301
:1012840084F83D302268136823F001031360226858
:10129400136843F4004313602268136823F4004383
:1012A400136000F083FC62685A4B9A4264D85A4B2C
:1012B40098428CBF00230123002B40F0A88057499B
:1012C400A1FB00318B0C25686A6822F03F0242EAD8
:1012D40091426A6021680A6A22F03F0266684D4DB5
:1012E400AE424FD8013313430B622168CA6922F41A
:1012F4004F4222F0FF026568464B9D424CD8431E84
:101304006D00B3FBF5F3013340F6FC70034278D073
:10131400C3F30B031A43CA6121680B6823F0C003AB
:10132400E269206A024313430B6021688B6823F44B
:10133400034323F0FF032269E068024313438B60F5
:101344002168CB6823F0FF036269A0690243134359
:10135400CB602268136843F001031360002020640B
:10136400202384F83D30206384F83E0070BD80F86B
:101374003C30FFF7C9F982E7294B98428CBF002320
:10138400012399E74FF4967505FB03F3254DA5FB5F
:1013940003539B090133A6E7A668BEB9431E05EBB8
:1013A400450CB3FBFCF30133C3F30B03B3FA83F330
:1013B4005B0943BBC6B9431E05EB4505B3FBF5F317
:1013C4000133C3F30B0343F40043A3E7431E05EBCC
:1013D400850C0CEB8C0CB3FBFCF30133C3F30B0354
:1013E400B3FA83F35B09E4E7431E05EB850505EBDC
:1013F4008505B3FBF5F30133C3F30B0343F4404317
:1014040088E7042386E7012384E70120704701204D
:10141400ACE700BFA08601007F841E0083DE1B436F
:10142400FF083D00D34D62102DE9F04385B004461A
:101434000F46914698460C9EFFF784FA054694F8A9
:101444003D00C0B2202804D00227384605B0BDE8CC
:10145400F0830095192301224F492046FFF78DFDA3
:10146400002840F0928094F83C30012B00F08F80EB
:10147400012384F83C3023681A6812F0010F03D169
:101484001A6842F001021A602268136823F40063A8
:101494001360212384F83D30102384F83E30002368
:1014A4002364C4F82490A4F82A80638D23853B4BDD
:1014B400E3622B46324639462046FFF71FFE0746B5
:1014C400002866D10023039323685A6903929B6919
:1014D4000393039B11E0236C042B01D00127B4E791
:1014E4002268136843F400731360F7E72A46314611
:1014F4002046FFF78CFE00282ED1238D002B36D0FA
:101504002A4631462046FFF753FE0028E3D1626A9B
:10151400236812781A61606A431C6362618D89B220
:10152400013989B26185238D013B9BB223852268F1
:10153400516911F0040FD9D0002BD7D0437813612F
:10154400636A01336362638D9BB2013B9BB2638523
:10155400238D013B2385C9E7236C042B01D001278C
:1015640073E72268136843F400731360F7E7226893
:10157400136843F400731360202384F83D30002380
:1015840084F83E3084F83C305FE702275DE70227A9
:101594005BE7012759E700BF020010000000FFFFCE
:1015A400002800F0E08170B582B00446036813F0AF
:1015B400010F3BD09F4B9B6803F00C03042B2CD0F2
:1015C4009C4B9B6803F00C03082B21D06368B3F594
:1015D400803F4FD0B3F5A02F52D0964B1A6822F417
:1015E40080321A601A6822F480221A606368002B21
:1015F40050D0FFF7A7F905468E4B1B6813F4003F44
:1016040014D1FFF79FF9401B6428F5D90320B1E1F9
:10161400884B5B6813F4800FD8D0864B1B6813F497
:10162400003F03D06368002B00F09F81236813F010
:10163400020F54D07F4B9B6813F00C0F3ED07D4BB0
:101644009B6803F00C03082B33D0E368002B68D0AD
:10165400794B01221A60FFF775F90546754B1B6833
:1016640013F0020F54D1FFF76DF9401B0228F5D98E
:1016740003207FE16F4A136843F480331360B5E7B6
:101684006C4B1A6842F480221A601A6842F4803261
:101694001A60ABE7FFF756F90546664B1B6813F46F
:1016A400003FC3D0FFF74EF9401B6428F5D903204F
:1016B40060E1604B5B6813F4800FC6D15D4B1B681F
:1016C40013F0020F03D0E368012B40F05081594A14
:1016D400136823F0F803216943EAC1031360236804
:1016E40013F0080F42D063696BB3534B0122C3F864
:1016F400802EFFF727F905464E4B5B6F13F0020F60
:1017040034D1FFF71FF9401B0228F5D9032031E13A
:10171400484A136823F0F803216943EAC1031360BC
:10172400DDE7454B00221A60FFF70CF90546414BF3
:101734001B6813F0020FD2D0FFF704F9401B0228F4
:10174400F5D9032016E13C4B0022C3F8802EFFF7A5
:10175400F9F80546374B5B6F13F0020F06D0FFF71D
:10176400F1F8401B0228F5D9032003E1236813F0A4
:10177400040F77D02F4B1B6C13F0805F33D1002301
:1017840001932C4B1A6C42F080521A641B6C03F0C8
:1017940080530193019B0125284B1B6813F4807F20
:1017A40023D0A368012B34D0052B38D0214B1A6FDA
:1017B40022F001021A671A6F22F004021A67A36862
:1017C400002B3DD0FFF7BEF806461A4B1B6F13F0F3
:1017D400020F46D1FFF7B6F8801B41F288339842D6
:1017E400F3D90320C6E00025D6E7144A136843F46E
:1017F40080731360FFF7A6F80646104B1B6813F4BA
:10180400807FCED1FFF79EF8801B0228F5D90320F4
:10181400B0E0084A136F43F001031367CFE7054BA9
:101824001A6F42F004021A671A6F42F001021A6733
:10183400C5E700BF00380240000047420070004086
:10184400FFF780F80646524B1B6F13F0020F08D0C7
:10185400FFF778F8801B41F288339842F3D90320CC
:1018640088E0EDB9A369002B00F08380484A9268B0
:1018740002F00C02082A51D0022B17D0454B00224B
:101884001A66FFF75FF80446414B1B6813F0007FAC
:1018940042D0FFF757F8001B0228F5D9032069E06E
:1018A4003B4A136C23F080531364DBE7394B00226B
:1018B4001A66FFF747F80546354B1B6813F0007F9F
:1018C40006D0FFF73FF8401B0228F5D9032051E06A
:1018D400E369226A1343626A43EA8213A26A5208E2
:1018E400013A43EA0243E26A43EA0263284A536044
:1018F400284B01221A66FFF725F80446244B1B687F
:1019040013F0007F06D1FFF71DF8001B0228F5D95C
:1019140003202FE000202DE000202BE0012B2BD012
:101924001B4B5B6803F48001E269914226D103F00A
:101934003F02216A8A4223D1616A47F6C0721A4083
:10194400B2EB811F1ED103F44031A26A5208013A5E
:10195400B1EB024F18D103F07063E26AB3EB026F8C
:1019640014D1002006E001207047012002E001208C
:1019740000E0002002B070BD0120FBE70120F9E780
:101984000120F7E70120F5E70120F3E70120F1E763
:10199400003802400000474208B5264B9B6803F01C
:1019A4000C03042B41D0082B41D1224B5A6802F07E
:1019B4003F025B6813F4800F12D01E4B5968C1F3C9
:1019C40088111D480023A1FB0001FEF7E1FB194B20
:1019D4005B68C3F3014301335B00B0FBF3F008BD64
:1019E400144B5868C0F388104FEA401CBCEB000C41
:1019F4006EEB0E0E4FEA8E1343EA9C634FEA8C1192
:101A0400B1EB0C0163EB0E03DB0043EA5173C90035
:101A140011EB000C43F10003990200234FEA8C20E0
:101A240041EA9C51FEF7B4FBD1E70348D7E70348EA
:101A3400D5E700BF0038024040787D010024F4005F
:101A4400002800F09B8070B50D4604464F4B1B6880
:101A540003F007038B4208D2CBB24C4A13701368CD
:101A640003F007038B4240F08B80236813F0020FCE
:101A740017D013F0040F04D0454A936843F4E0539D
:101A84009360236813F0080F04D0414A936843F429
:101A9400604393603E4A936823F0F003A1680B43CC
:101AA4009360236813F0010F32D06368012B21D0B7
:101AB4009A1E012A25D9364A126812F0020F61D003
:101AC40033498A6822F0030213438B60FEF73AFF1E
:101AD40006462F4B9B6803F00C036268B3EB820F3E
:101AE40016D0FEF72FFF801B41F288339842F0D9BD
:101AF400032042E0264A126812F4003FE0D101209C
:101B04003BE0234A126812F0007FD9D1012034E06F
:101B14001E4B1B6803F00703AB4207D9EAB21B4B09
:101B24001A701B6803F00703AB422DD1236813F02E
:101B3400040F06D0164A936823F4E053E1680B437C
:101B44009360236813F0080F07D0114A936823F4B5
:101B54006043216943EAC1039360FFF71DFF0C4B07
:101B64009B68C3F303130B4AD35CD8400A4B186039
:101B74000A4B1868FEF79AFE002070BD01207047DA
:101B84000120FAE70120F8E70120F6E7003C0240D3
:101B94000038024000220008000000200800002055
:101BA400014B1868704700BF0000002008B5FFF71C
:101BB400F7FF044B9B68C3F38223034AD35CD840EA
:101BC40008BD00BF00380240F821000808B5FFF73F
:101BD400E7FF044B9B68C3F34233034AD35CD8400A
:101BE40008BD00BF00380240F821000810B50446C3
:101BF4000268136923F44053C1680B43136183687B
:101C040002691A4343691A43C3691A430168CB68DA
:101C140023F4164323F00C031343CB600268536987
:101C240023F4407381690B4353610368314A93423F
:101C340006D002F58062934202D0FFF7B7FF01E0BD
:101C4400FFF7C4FFE369B3F5004F29D0002103185F
:101C540049411B1841F10001C90041EA5371DB00FD
:101C6400181863684FEA83024FEA937341F1000145
:101C7400FEF78EFA204AA2FB00314909642303FBD4
:101C840011031B013233A2FB03235B0903F0F002AF
:101C940002EB011203F00F03216813448B6010BDA3
:101CA4000023021843EB0301121841F10001C9009B
:101CB40041EA5271D200101841F100016268921891
:101CC4005B41FEF765FA0C4AA2FB00314909642323
:101CD40003FB1103DB003233A2FB03235B095A002D
:101CE40002F4F87202EB011203F0070321681344B3
:101CF4008B60D4E7001001401F85EB5160B310B531
:101D0400044690F8413013B3242384F84130226808
:101D1400D36823F40053D3602046FFF767FF22689B
:101D2400136923F4904313612268536923F02A034F
:101D340053612268D36843F40053D3600020606485
:101D4400202384F8413084F84230606310BD80F869
:101D54004030FEF711FDD7E7012070472DE9F04729
:101D6400089D0E4604460F46002B4AD194468C45E6
:101D7400B2FA82F260D942B1C2F12003974020FA4C
:101D840003F30CFA02FC1F4394404FEA1C4E1FFA63
:101D94008CF6B7FBFEF1230C0EFB117743EA0743E5
:101DA40001FB06F098420AD91CEB030301F1FF374B
:101DB40080F01581984240F21281023963441B1A63
:101DC400A4B2B3FBFEF00EFB103344EA034400FB61
:101DD40006F6A6420AD91CEB040400F1FF3380F096
:101DE4000081A64240F2FD806444023840EA01408A
:101DF400A41B00211DB1D4400023C5E90043BDE864
:101E0400F0878B4205D90DB1C5E9000100210846D0
:101E1400F5E7B3FA83F1002946D1B34202D38242F3
:101E240000F2F580841A66EB030201201746002DA8
:101E3400E5D0C5E90047E2E7002A40F09380A1EB32
:101E44000C034FEA1C471FFA8CFE0121B3FBF7F683
:101E540007FB1630230C43EA00430EFB06F09842BE
:101E640008D91CEB030306F1FF3802D2984200F2B2
:101E7400D08046461B1AA4B2B3FBF7F007FB10331D
:101E840044EA03440EFB00FEA64508D91CEB0404F7
:101E940000F1FF3302D2A64500F2B6801846A4EB47
:101EA4000E0440EA0640A5E7C1F120078B4022FA60
:101EB40007FC4CEA030C06FA01FE20FA07F426FAA2
:101EC40007F344EA0E0400FA01F84FEA1C404FEA13
:101ED4001449B3FBF0FE1FFA8CF600FB1E3349EAEB
:101EE40003430EFB06F9994502FA01F20BD91CEBE8
:101EF40003030EF1FF3A80F08580994540F2828019
:101F0400AEF1020E6344A3EB0909A4B2B9FBF0F3EA
:101F140000FB139944EA094403FB06F6A64208D9D8
:101F24001CEB040403F1FF3068D2A64266D9023BDD
:101F3400644443EA0E40A41BA0FB02E6B442734689
:101F4400B14652D34FD05DB1B8EB030264EB090440
:101F540004FA07F722FA01F31F43CC40C5E90074E1
:101F640000214CE7C2F1200120FA01F30CFA02FC33
:101F740026FA01F1964033434FEA1C471FFA8CFEC0
:101F8400B1FBF7F007FB1016190C41EA064100FB00
:101F94000EF68E4204FA02F408D91CEB010100F19A
:101FA400FF382DD28E422BD902386144891B9BB253
:101FB400B1FBF7F607FB161143EA014306FB0EF1EA
:101FC400994208D91CEB030306F1FF3814D2994255
:101FD40012D9023E63445B1A46EA004136E73946A9
:101FE400EDE6184602E7F045ADD2BEEB020366EB20
:101FF4000C060138B146A6E74646ECE7034698E7E7
:102004004046D3E7D6467EE76444023847E70846AD
:102014000DE7023E63442DE7830730B547D0541ED5
:10202400002A3ED0CAB2034601E0013C39D303F88A
:10203400012B9D07F9D1032C2CD9CDB205EB052535
:102044000F2C05EB054535D9A4F1100222F00F0C35
:1020540003F1100EE6444FEA121C1A46C2E9005579
:10206400C2E9025510327245F8D10CF1010214F0A4
:102074000C0F03EB021204F00F0C13D0ACF10403A9
:1020840023F003030433134442F8045B9342FBD16B
:102094000CF003042CB1C9B21C4403F8011BA34285
:1020A400FBD130BD64461346002CF4D1F9E7034656
:1020B4001446C0E71A46A446E0E700BF70B50F4BCC
:1020C4000F4DAB42A3EB050607D0B610002455F81C
:1020D400043B01349847A642F9D800F07FF8094D33
:1020E400094B5E1BAB424FEAA60606D0002455F806
:1020F400043B01349847A642F9D870BD1822000861
:10210400182200081822000820220008704700BF87
:10211400704700BF024B13B1024800F005B8704786
:102124000000000039210008002301461A46184621
:1021340000F014B838B5074D074C2C1BA41005D07B
:10214400013C55F8043D9847002CF9D1BDE83840CE
:1021540000F04AB824220008202200082DE9F843A0
:102164001B4D0646286898460F469146FFF7CEFF5A
:10217400184B1C681CB3286865681F2D22DC4EB9F7
:102184006B1C0235636044F82570FFF7C1FF002023
:10219400BDE8F88304EB85010123C1F88890D4F8E5
:1021A4008821AB401A43022EC4F88821C1F8088163
:1021B400E6D1D4F88C211A43C4F88C21E0E7064C0C
:1021C4001C60D8E7FFF7A4FF4FF0FF30E0E700BF43
:1021D4000C0000206001002064010020F8B500BF5D
:1021E400F8BC08BC9E467047F8B500BFF8BC08BCF4
:0421F4009E4670474C
:1021F80000000000010203040000000000000000CD
:082208000102030406070809A6
:0822100050FBFF7F01000000FC
:08221800192100083102000841
:0422200009020008A7
:102224000024F40001000000100000005C01002004
:040000050800085D8A
:00000001FF
