:020000040800F2
:1000000000000120290700080D0700080F0700085D
:10001000110700081307000815070008000000007A
:1000200000000000000000000000000017070008AA
:1000300019070008000000001B0700081D07000842
:100040007907000879070008790700087907000890
:100050007907000879070008790700087907000880
:100060007907000879070008790700087907000870
:100070007907000879070008790700087907000860
:1000800079070008790700087907000800000000D8
:1000900000000000000000000000000079070008D8
:1000A0007907000879070008790700087907000830
:1000B0007907000879070008790700087907000820
:1000C0007907000879070008790700087907000810
:1000D0007907000879070008790700080000000088
:1000E0007907000879070008790700080000000078
:1000F0000000000000000000000000007907000878
:100100000000000079070008790700087907000857
:1001100000000000000000000000000000000000DF
:1001200079070008790700087907000879070008AF
:100130007907000800000000000000000000000037
:100140000000000000000000000000007907000827
:10015000790700087907000879070008790700087F
:10016000790700087907000800000000000000007F
:10017000000000000000000000000000000000007F
:1001800000000000790700080000000000000000E7
:0401900079070008E3
:1001940053B94AB9002908BF00281CBF4FF0FF31EA
:1001A4004FF0FF3000F00CB8ADF1080C6DE904CE4F
:1001B40001F0C6FBDDF804E0DDE9022304B070477A
:1001C400704700BF0348044B834202D0034B03B182
:1001D40018477047100000201000002000000000A5
:1001E4000548064B1B1AD90F01EBA301491002D095
:1001F400034B03B118477047100000201000002083
:100204000000000010B5064C237843B9FFF7DAFF6D
:10021400044B13B10448AFF300800123237010BDD5
:100224001000002000000000C41D000808B5054BA4
:100234001BB105490548AFF30080BDE80840FFF74E
:10024400CFBF00BF0000000014000020C41D000840
:10025400F0B589B00024039404940594069407949B
:100264000094264B1A6B42F004021A631A6B02F0D4
:1002740004020092009A01941A6B42F001021A637C
:100284001A6B02F001020192019A02941A6B42F075
:1002940002021A631B6B03F002030293029B184FC2
:1002A40022464FF40051384600F0AEFD154D22466B
:1002B4004FF4E041284600F0A7FD4FF400530393A8
:1002C400012604960594069403A9384600F0B4FC6C
:1002D4004FF4E043039304960594069403A9284637
:1002E40000F0AAFC4FF40043039303230493059402
:1002F40003A9284600F0A0FC09B0F0BD0038024074
:10030400000802400004024072B6FEE700B585B062
:10031400002300930193029303931348134A02604A
:10032400436083600361037680F82030C362104A1F
:100334008262C3600122C26180F83030426100F001
:100344001BFB60B9002300930122019202936946CA
:10035400054800F03DFB20B905B05DF804FBFFF74C
:10036400D3FFFFF7D1FF00BF1001002000200140A0
:100374000100000F08B50A480A4B03600A4B4360AA
:1003840000238360C3604FF4804202614361836150
:10039400C361036200F03EFD00B908BDFFF7B4FF7E
:1003A400BC00002000540040A086010008B50A48A3
:1003B4000A4B036047F61223436000238360C36043
:1003C40003610C2242618361C36101F020FA00B928
:1003D40008BDFFF799FF00BF740000200010014022
:1003E40008B50A480A4B03604FF4E1334360002325
:1003F4008360C36003610C2242618361C36101F0C5
:1004040006FA00B908BDFFF77FFF00BF2C000020EB
:100414000044004000B595B03022002108A801F046
:10042400EDFB002303930493059306930793019331
:10043400194A116C41F080511164126C02F080521F
:100444000192019A029315490A6822F4404242F447
:1004540000420A600A6802F440420292029A0222AE
:10046400089201220B9210220C920E9308A800F01D
:10047400AFFD68B90F230393002104910591069100
:10048400079103A800F0F4FF20B915B05DF804FB50
:10049400FFF73AFFFFF738FF0038024000700040D2
:1004A40000B585B000F08EF9FFF7B4FFFFF7D0FE7A
:1004B400FFF72CFFFFF75EFFFFF778FFFFF790FFD2
:1004C40016E001224FF40051204600F09DFC4FF449
:1004D4007A7000F0A3F900224FF40051204600F096
:1004E40093FC4FF47A7000F099F9642000F096F9C7
:1004F4000E4C00224FF40051204600F085FC64208D
:1005040000F08CF901224FF40051204600F07CFCED
:10051400642000F083F94FF47A7304220DEB020196
:10052400034801F0A4F90028CBD0DEE7000802401C
:100534007400002082B0002100910B4B5A6C42F4ED
:1005440080425A645A6C02F480420092009A0191EB
:100554001A6C42F080521A641B6C03F080530193AE
:10056400019B02B0704700BF0038024000B589B05B
:10057400002303930493059306930793026803F1FE
:10058400804303F590339A4202D009B05DF804FB2E
:100594000021019103F58C335A6C42F480725A6441
:1005A4005A6C02F480720192019A02911A6B42F021
:1005B40001021A631B6B03F001030293029B0123E4
:1005C40003930323049303A9014800F035FBDCE7FC
:1005D4000000024030B589B00023039304930593CF
:1005E400069307930268144B9A4201D009B030BDB8
:1005F40000250195114C236B43F002032363236B05
:1006040003F002030193019BC02303931223049379
:10061400032306930423079303A9094800F00CFB62
:100624000295236C43F400132364236C03F4001336
:100634000293029BDAE700BF0054004000380240F6
:100644000004024000B58BB0002305930693079382
:10065400089309930368284A934205D0274A934292
:1006640026D00BB05DF804FB00210191244B5A6C99
:1006740042F010025A645A6C02F010020192019A7C
:1006840002911A6B42F001021A631B6B03F001031F
:100694000293029B4FF4C063059302230693032342
:1006A40008930723099305A9164800F0C5FAD8E76B
:1006B40000210391124B1A6C42F400321A641A6C32
:1006C40002F400320392039A04911A6B42F001027D
:1006D4001A631B6B03F001030493049B0C2305931F
:1006E40002230693032308930723099305A90548C6
:1006F40000F0A2FAB5E700BF00100140004400403A
:100704000038024000000240FEE7FEE7FEE7FEE795
:10071400FEE770477047704708B500F06DF808BDF4
:1007240070470000DFF834D0FFF7FAFF0C480D499A
:100734000D4A002302E0D458C4500433C4188C4238
:10074400F9D30A4A0A4C002301E013600432A2429E
:10075400FBD301F0A5FAFFF7A3FE704700000120C8
:100764000000002010000020081E000810000020D7
:10077400F4020020FEE7000010B504460E4B1A7880
:100784004FF47A73B3FBF2F30C4A1068B0FBF3F046
:1007940000F03EFA68B90F2C01D901200AE00022CA
:1007A40021464FF0FF3000F023FA054B1C60002077
:1007B40000E0012010BD00BF040000200000002064
:1007C4000800002008B50B4B1A6842F400721A6046
:1007D4001A6842F480621A601A6842F480721A60DD
:1007E400032000F0F3F90F20FFF7C6FFFFF7A2FE86
:1007F400002008BD003C0240034A1168034B1B78EB
:100804000B441360704700BF58010020040000200F
:10081400014B1868704700BF5801002038B50446E2
:10082400FFF7F6FF0546B4F1FF3F02D0044B1B78F7
:100834001C44FFF7EDFF401BA042FAD338BD00BFB4
:10084400040000204A4B5A6822F440325A605A6825
:1008540041680A435A600268536823F48073536002
:1008640002685368016943EA0123536002685368CC
:1008740023F0407353600268536881680B435360EC
:100884000268936823F40063936002689368C16804
:100894000B439360826A374B9A4257D0026893683D
:1008A40023F07063936002689368816A0B439360DA
:1008B4000268936823F04053936002689368C16AA6
:1008C4000B4393600268936823F002039360026809
:1008D4009368017E43EA4103936090F82030002B33
:1008E4003FD00268536843F400635360026853685E
:1008F40023F46043536001684B68426A013A43EA57
:1009040042334B600268D36A23F47003D3620168F4
:10091400CB6AC269013A43EA0253CB620268936824
:1009240023F4007393600268936890F8301043EAEC
:10093400412393600268936823F4806393600268A0
:100944009368416943EA812393607047026893681E
:1009540023F0706393600268936823F040539360BC
:10096400B0E70268536823F400635360CAE700BF2A
:10097400002301400100000F38B310B50446036C96
:1009840043B1236C13F0100F0BD00120002384F823
:100994003C3010BDFFF7EAFD0023636484F83C306B
:1009A400EFE7236C23F4885323F0020343F002039C
:1009B40023642046FFF746FF00206064236C23F085
:1009C400030343F001032364E0E7012070470000C0
:1009D40030B482B00022019290F83C20012A00F049
:1009E400B6800346012280F83C200A68092A40D9CF
:1009F4000468E06892B202EB42021E3A4FF0070C20
:100A04000CFA02F220EA0202E2601C68E0680A883A
:100A140002EB42021E3A8D6805FA02F20243E260DA
:100A24004A68062A3CD81C68606B02EB8202053ACD
:100A34004FF01F0C0CFA02F220EA020262631C68F7
:100A4400606B4A6802EB8202053AB1F800C00CFA06
:100A540002F20243626318683E4A904250D018681A
:100A64003C4A904255D0002083F83C0002B030BC90
:100A740070470468206992B202EB42024FF0070CFF
:100A84000CFA02F220EA020222611C6820690A8838
:100A940002EB42028D6805FA02F202432261BFE7CB
:100AA4000C2A16D81D68286B02EB8202233A1F24F5
:100AB40004FA02F220EA02022A631D68286B4A68DB
:100AC40002EB8202233A0C8804FA02F202432A63FC
:100AD400C1E71D68E86A02EB8202413A1F2404FA66
:100AE40002F220EA0202EA621D68E86A4A6802EB3E
:100AF4008202413A0C8804FA02F20243EA62AAE74B
:100B04000A68122AABD11448426842F48002426057
:100B1400A5E70A68103A012AA5D80F48426842F4AA
:100B2400000242600A68102A9DD10C4A12680C49DE
:100B3400A1FB0212920C02EB82025200019202E02B
:100B4400019A013A0192019A002AF9D18BE7022015
:100B54008CE700BF0020014000230140000000207A
:100B640083DE1B43002808DB0901C9B200F16040A1
:100B740000F5614080F80013704700F00F00090190
:100B8400C9B2014B1954704714ED00E000B500F0F0
:100B94000700C0F1070CBCF1040F28BF4FF0040C90
:100BA400031D062B0FD9C31E4FF0FF3E0EFA0CF0A7
:100BB40021EA000199400EFA03FE22EA0E0241EAFC
:100BC40002005DF804FB0023EEE70000074AD36847
:100BD40023F4E0631B041B0C000200F4E0600343F5
:100BE40043F0BF6343F40033D360704700ED00E08B
:100BF40010B50446054BD868C0F30220FFF7C6FFC2
:100C040001462046FFF7AEFF10BD00BF00ED00E037
:100C14000138B0F1807F0BD24FF0E0235861054AD0
:100C2400F02182F823100020986107221A6170478E
:100C34000120704700ED00E000230F2B00F2DA8062
:100C440030B583B068E085684FEA430E032404FAA4
:100C54000EF425EA0405CC6804FA0EF42C438460EF
:100C6400446824EA02044A68C2F300129A40224308
:100C740042605FE0DC08083450F8242003F00705E4
:100C8400AD004FF00F0E0EFA05FE22EA0E0E0A69B1
:100C9400AA4042EA0E0240F824205FE0042200E069
:100CA400002202FA0EF22A430234534D45F824205E
:100CB400524A94686FEA0C0224EA0C05D1F804E065
:100CC4001EF4801F01D04CEA04054C4CA560E46876
:100CD40002EA0405D1F804E01EF4001F01D04CEA36
:100CE4000405464CE560646802EA0405D1F804E0B2
:100CF4001EF4003F01D04CEA0405404C65602468B2
:100D040022404D6815F4803F01D04CEA04023B4C6C
:100D1400226001330F2B6BD801229A400C6804EA3D
:100D2400020C32EA0404F4D14C6804F00304013CDC
:100D3400012C88D94A6802F00302032A09D0C46846
:100D44005D000322AA4024EA02048A68AA402243DE
:100D5400C2604A6802F00302022A8BD004684FEA98
:100D6400430E032202FA0EF224EA02044A6802F055
:100D7400030202FA0EF2224302604A6812F4403F70
:100D8400C7D0002201921E4A546C44F48044546437
:100D9400526C02F480420192019A9C08A51C164AE6
:100DA40052F8255003F0030E4FEA8E0E0F2202FA7A
:100DB4000EF225EA0205134A90423FF471AF02F5A0
:100DC400806290420ED002F5806290420CD002F50F
:100DD400806290420AD002F5806290423FF45EAF96
:100DE40007225EE701225CE702225AE7032258E762
:100DF40003B030BD704700BF00380140003C0140E3
:100E040000380240000002400AB1816170470904C1
:100E140081617047002800F0CC8070B5044690F8DA
:100E24003D30002B77D0242384F83D3022681368AA
:100E340023F0010313602268136843F40043136032
:100E44002268136823F40043136000F0C7FB626850
:100E54005A4B9A4264D85A4B98428CBF00230123C0
:100E6400002B40F0A8805749A1FB00318B0C25686A
:100E74006A6822F03F0242EA91426A6021680A6A83
:100E840022F03F0266684D4DAE424FD80133134302
:100E94000B622168CA6922F44F4222F0FF0265689E
:100EA400464B9D424CD8431E6D00B3FBF5F3013312
:100EB40040F6FC70034278D0C3F30B031A43CA61B3
:100EC40021680B6823F0C003E269206A02431343DC
:100ED4000B6021688B6823F4034323F0FF0322692A
:100EE400E068024313438B602168CB6823F0FF035F
:100EF4006269A06902431343CB602268136843F01C
:100F04000103136000202064202384F83D30206313
:100F140084F83E0070BD80F83C30FFF75BFB82E74D
:100F2400294B98428CBF0023012399E74FF496750F
:100F340005FB03F3254DA5FB03539B090133A6E7EA
:100F4400A668BEB9431E05EB450CB3FBFCF30133A5
:100F5400C3F30B03B3FA83F35B0943BBC6B9431E64
:100F640005EB4505B3FBF5F30133C3F30B0343F47E
:100F74000043A3E7431E05EB850C0CEB8C0CB3FB81
:100F8400FCF30133C3F30B03B3FA83F35B09E4E724
:100F9400431E05EB850505EB8505B3FBF5F301332E
:100FA400C3F30B0343F4404388E7042386E7012398
:100FB40084E7012070470120ACE700BFA086010050
:100FC4007F841E0083DE1B43FF083D00D34D621067
:100FD400002800F0E08170B582B00446036813F085
:100FE400010F3BD09F4B9B6803F00C03042B2CD0C8
:100FF4009C4B9B6803F00C03082B21D06368B3F56A
:10100400803F4FD0B3F5A02F52D0964B1A6822F4EC
:1010140080321A601A6822F480221A606368002BF6
:1010240050D0FFF7F5FB05468E4B1B6813F4003FC9
:1010340014D1FFF7EDFB401B6428F5D90320B1E17F
:10104400884B5B6813F4800FD8D0864B1B6813F46D
:10105400003F03D06368002B00F09F81236813F0E6
:10106400020F54D07F4B9B6813F00C0F3ED07D4B86
:101074009B6803F00C03082B33D0E368002B68D083
:10108400794B01221A60FFF7C3FB0546754B1B68B9
:1010940013F0020F54D1FFF7BBFB401B0228F5D914
:1010A40003207FE16F4A136843F480331360B5E78C
:1010B4006C4B1A6842F480221A601A6842F4803237
:1010C4001A60ABE7FFF7A4FB0546664B1B6813F4F5
:1010D400003FC3D0FFF79CFB401B6428F5D90320D5
:1010E40060E1604B5B6813F4800FC6D15D4B1B68F5
:1010F40013F0020F03D0E368012B40F05081594AEA
:10110400136823F0F803216943EAC10313602368D9
:1011140013F0080F42D063696BB3534B0122C3F839
:10112400802EFFF775FB05464E4B5B6F13F0020FE5
:1011340034D1FFF76DFB401B0228F5D9032031E1C0
:10114400484A136823F0F803216943EAC103136092
:10115400DDE7454B00221A60FFF75AFB0546414B79
:101164001B6813F0020FD2D0FFF752FB401B02287A
:10117400F5D9032016E13C4B0022C3F8802EFFF77B
:1011840047FB0546374B5B6F13F0020F06D0FFF7A2
:101194003FFB401B0228F5D9032003E1236813F029
:1011A400040F77D02F4B1B6C13F0805F33D10023D7
:1011B40001932C4B1A6C42F080521A641B6C03F09E
:1011C40080530193019B0125284B1B6813F4807FF6
:1011D40023D0A368012B34D0052B38D0214B1A6FB0
:1011E40022F001021A671A6F22F004021A67A36838
:1011F400002B3DD0FFF70CFB06461A4B1B6F13F078
:10120400020F46D1FFF704FB801B41F2883398425A
:10121400F3D90320C6E00025D6E7144A136843F443
:1012240080731360FFF7F4FA0646104B1B6813F43F
:10123400807FCED1FFF7ECFA801B0228F5D903207A
:10124400B0E0084A136F43F001031367CFE7054B7F
:101254001A6F42F004021A671A6F42F001021A6709
:10126400C5E700BF0038024000004742007000405C
:10127400FFF7CEFA0646524B1B6F13F0020F08D04D
:10128400FFF7C6FA801B41F288339842F3D9032052
:1012940088E0EDB9A369002B00F08380484A926886
:1012A40002F00C02082A51D0022B17D0454B002221
:1012B4001A66FFF7ADFA0446414B1B6813F0007F32
:1012C40042D0FFF7A5FA001B0228F5D9032069E0F4
:1012D4003B4A136C23F080531364DBE7394B002241
:1012E4001A66FFF795FA0546354B1B6813F0007F25
:1012F40006D0FFF78DFA401B0228F5D9032051E0F0
:10130400E369226A1343626A43EA8213A26A5208B7
:10131400013A43EA0243E26A43EA0263284A536019
:10132400284B01221A66FFF773FA0446244B1B6804
:1013340013F0007F06D1FFF76BFA001B0228F5D9E2
:1013440003202FE000202DE000202BE0012B2BD0E8
:101354001B4B5B6803F48001E269914226D103F0E0
:101364003F02216A8A4223D1616A47F6C0721A4059
:10137400B2EB811F1ED103F44031A26A5208013A34
:10138400B1EB024F18D103F07063E26AB3EB026F62
:1013940014D1002006E001207047012002E0012062
:1013A40000E0002002B070BD0120FBE70120F9E756
:1013B4000120F7E70120F5E70120F3E70120F1E739
:1013C400003802400000474208B5264B9B6803F0F2
:1013D4000C03042B41D0082B41D1224B5A6802F054
:1013E4003F025B6813F4800F12D01E4B5968C1F39F
:1013F40088111D480023A1FB0001FEF7C9FE194B0B
:101404005B68C3F3014301335B00B0FBF3F008BD39
:10141400144B5868C0F388104FEA401CBCEB000C16
:101424006EEB0E0E4FEA8E1343EA9C634FEA8C1167
:10143400B1EB0C0163EB0E03DB0043EA5173C9000B
:1014440011EB000C43F10003990200234FEA8C20B6
:1014540041EA9C51FEF79CFED1E70348D7E70348D5
:10146400D5E700BF0038024040787D010024F40035
:10147400002800F09B8070B50D4604464F4B1B6856
:1014840003F007038B4208D2CBB24C4A13701368A3
:1014940003F007038B4240F08B80236813F0020FA4
:1014A40017D013F0040F04D0454A936843F4E05373
:1014B4009360236813F0080F04D0414A936843F4FF
:1014C400604393603E4A936823F0F003A1680B43A2
:1014D4009360236813F0010F32D06368012B21D08D
:1014E4009A1E012A25D9364A126812F0020F61D0D9
:1014F40033498A6822F0030213438B60FFF788F9AB
:1015040006462F4B9B6803F00C036268B3EB820F13
:1015140016D0FFF77DF9801B41F288339842F0D949
:10152400032042E0264A126812F4003FE0D1012071
:101534003BE0234A126812F0007FD9D1012034E045
:101544001E4B1B6803F00703AB4207D9EAB21B4BDF
:101554001A701B6803F00703AB422DD1236813F004
:10156400040F06D0164A936823F4E053E1680B4352
:101574009360236813F0080F07D0114A936823F48B
:101584006043216943EAC1039360FFF71DFF0C4BDD
:101594009B68C3F303130B4AD35CD8400A4B18600F
:1015A4000A4B1868FFF7E8F8002070BD0120704767
:1015B4000120FAE70120F8E70120F6E7003C0240A9
:1015C40000380240E41D000800000020080000204C
:1015D400014B1868704700BF0000002008B5FFF7F2
:1015E400F7FF044B9B68C3F38223034AD35CD840C0
:1015F40008BD00BF00380240DC1D000808B5FFF735
:10160400E7FF044B9B68C3F34233034AD35CD840DF
:1016140008BD00BF00380240DC1D0008026802F16A
:101624000C0353E8003F23F490730C3242E800317A
:101634000029F3D1026802F1140353E8003F23F0B8
:101644000103143242E800310029F3D1036B012B6A
:1016540005D0202380F842300023036370470268DA
:1016640002F10C0353E8003F23F010030C3242E86C
:1016740000310029F3D1ECE710B504460268136980
:1016840023F44053C1680B431361836802691A430E
:1016940043691A43C3691A430168CB6823F41643A8
:1016A40023F00C031343CB600268536923F44073A3
:1016B40081690B4353610368314A934206D002F5B2
:1016C4008062934202D0FFF789FF01E0FFF796FFA3
:1016D400E369B3F5004F29D00021031849411B18D1
:1016E40041F10001C90041EA5371DB001818636835
:1016F4004FEA83024FEA937341F10001FEF748FD7C
:10170400204AA2FB00314909642303FB11031B0196
:101714003233A2FB03235B0903F0F00202EB011254
:1017240003F00F03216813448B6010BD00230218DB
:1017340043EB0301121841F10001C90041EA52715F
:10174400D200101841F10001626892185B41FEF763
:101754001FFD0C4AA2FB00314909642303FB11035A
:10176400DB003233A2FB03235B095A0002F4F87254
:1017740002EB011203F00703216813448B60D4E7E2
:10178400001001401F85EB512DE9F04383B005465D
:101794000E4617469946DDF828802B681C6836EA01
:1017A40004040CBF01240024BC4228D1B8F1FF3F3B
:1017B400F3D0FFF72DF8A0EB0900404523D8B8F18A
:1017C400000F22D02B68DA6812F0040FE5D0802EC7
:1017D400E3D0402EE1D01A6812F0080FDDD00024C7
:1017E40001941A6801925B680193019B2846FFF7F4
:1017F40015FF08236B6485F84040012000E00020B9
:1018040003B0BDE8F0830320FAE70320F8E760B3F0
:1018140010B5044690F8413013B3242384F84130C2
:101824002268D36823F40053D3602046FFF724FFD3
:101834002268136923F4904313612268536923F0E7
:101844002A0353612268D36843F40053D360002011
:101854006064202384F8413084F84230606310BD12
:1018640080F84030FEF7EEFED7E7012070472DE9FF
:10187400F04182B01E4690F84230DBB2202B59D1A1
:1018840004460D469046002958D00AB9012052E07A
:1018940000234364222280F842200363FEF7B8FF4A
:1018A4000746A4F82C80A4F82E80A368B3F5805FC3
:1018B40002D04FF000081CE0236913B14FF0000878
:1018C40017E0A846002514E0202384F842300320C2
:1018D40031E023685B68C3F3080328F8023B03E0A4
:1018E40023685B682B700135E28D92B2013A92B2A3
:1018F400E285E38D9BB2C3B100963B4600222021D2
:101904002046FFF741FF0028DED1002DE1D0A36877
:10191400B3F5805FE4D013B92369002BE0D02368CA
:101924005B6803F07F032B70DDE7202384F84230EB
:10193400002000E0022002B0BDE8F0810120FAE7B7
:101944002DE9F047089D0E4604460F46002B4AD168
:1019540094468C45B2FA82F260D942B1C2F12003B6
:10196400974020FA03F30CFA02FC1F4394404FEA19
:101974001C4E1FFA8CF6B7FBFEF1230C0EFB1177FD
:1019840043EA074301FB06F098420AD91CEB030320
:1019940001F1FF3780F01581984240F2128102393B
:1019A40063441B1AA4B2B3FBFEF00EFB103344EAEB
:1019B400034400FB06F6A6420AD91CEB040400F11A
:1019C400FF3380F00081A64240F2FD806444023877
:1019D40040EA0140A41B00211DB1D4400023C5E905
:1019E4000043BDE8F0878B4205D90DB1C5E900017C
:1019F40000210846F5E7B3FA83F1002946D1B34242
:101A040002D3824200F2F580841A66EB03020120BD
:101A14001746002DE5D0C5E90047E2E7002A40F06B
:101A24009380A1EB0C034FEA1C471FFA8CFE0121A3
:101A3400B3FBF7F607FB1630230C43EA00430EFB17
:101A440006F0984208D91CEB030306F1FF3802D2D2
:101A5400984200F2D08046461B1AA4B2B3FBF7F0BA
:101A640007FB103344EA03440EFB00FEA64508D9E5
:101A74001CEB040400F1FF3302D2A64500F2B68049
:101A84001846A4EB0E0440EA0640A5E7C1F120077E
:101A94008B4022FA07FC4CEA030C06FA01FE20FAFA
:101AA40007F426FA07F344EA0E0400FA01F84FEAB1
:101AB4001C404FEA1449B3FBF0FE1FFA8CF600FBFE
:101AC4001E3349EA03430EFB06F9994502FA01F273
:101AD4000BD91CEB03030EF1FF3A80F08580994586
:101AE40040F28280AEF1020E6344A3EB0909A4B272
:101AF400B9FBF0F300FB139944EA094403FB06F62F
:101B0400A64208D91CEB040403F1FF3068D2A642B4
:101B140066D9023B644443EA0E40A41BA0FB02E6E0
:101B2400B4427346B14652D34FD05DB1B8EB030211
:101B340064EB090404FA07F722FA01F31F43CC40CB
:101B4400C5E9007400214CE7C2F1200120FA01F339
:101B54000CFA02FC26FA01F1964033434FEA1C4783
:101B64001FFA8CFEB1FBF7F007FB1016190C41EAC3
:101B7400064100FB0EF68E4204FA02F408D91CEB6F
:101B8400010100F1FF382DD28E422BD90238614475
:101B9400891B9BB2B1FBF7F607FB161143EA01431D
:101BA40006FB0EF1994208D91CEB030306F1FF383A
:101BB40014D2994212D9023E63445B1A46EA0041A8
:101BC40036E73946EDE6184602E7F045ADD2BEEBFE
:101BD400020366EB0C060138B146A6E74646ECE77D
:101BE400034698E74046D3E7D6467EE76444023886
:101BF40047E708460DE7023E63442DE7830730B507
:101C040047D0541E002A3ED0CAB2034601E0013C2C
:101C140039D303F8012B9D07F9D1032C2CD9CDB26C
:101C240005EB05250F2C05EB054535D9A4F110026C
:101C340022F00F0C03F1100EE6444FEA121C1A4670
:101C4400C2E90055C2E9025510327245F8D10CF1CF
:101C5400010214F00C0F03EB021204F00F0C13D06A
:101C6400ACF1040323F003030433134442F8045B8C
:101C74009342FBD10CF003042CB1C9B21C4403F809
:101C8400011BA342FBD130BD64461346002CF4D1A2
:101C9400F9E703461446C0E71A46A446E0E700BF46
:101CA40070B50F4B0F4DAB42A3EB050607D0B61032
:101CB400002455F8043B01349847A642F9D800F0B3
:101CC4007FF8094D094B5E1BAB424FEAA60606D0CE
:101CD400002455F8043B01349847A642F9D870BD56
:101CE400FC1D0008FC1D0008FC1D0008041E000863
:101CF400704700BF704700BF024B13B1024800F0A9
:101D040005B87047000000001D1D000800230146AF
:101D14001A46184600F014B838B5074D074C2C1B6A
:101D2400A41005D0013C55F8043D9847002CF9D186
:101D3400BDE8384000F04AB8081E0008041E000838
:101D44002DE9F8431B4D0646286898460F469146F0
:101D5400FFF7CEFF184B1C681CB3286865681F2D5D
:101D640022DC4EB96B1C0235636044F82570FFF722
:101D7400C1FF0020BDE8F88304EB85010123C1F80D
:101D84008890D4F88821AB401A43022EC4F88821E5
:101D9400C1F80881E6D1D4F88C211A43C4F88C2107
:101DA400E0E7064C1C60D8E7FFF7A4FF4FF0FF30D4
:101DB400E0E700BF0C000020600100206401002067
:101DC400F8B500BFF8BC08BC9E467047F8B500BF24
:081DD400F8BC08BC9E467047F4
:101DDC0000000000010203040000000000000000ED
:081DEC000102030406070809C7
:081DF40050FBFF7F010000001D
:081DFC00FD1C00083102000883
:041E040009020008C7
:101E08000024F40001000000100000005C01002024
:0400000508000729BF
:00000001FF
