:020000040800F2
:1000000000000120E90A0008BD0A0008BF0A000834
:10001000C10A0008C30A0008C50A00080000000061
:10002000000000000000000000000000C70A0008F7
:10003000C90A000800000000CB0A0008CD0A000829
:10004000390B0008390B0008390B0008390B000880
:10005000390B0008390B0008390B0008390B000870
:10006000390B0008390B0008390B0008390B000860
:10007000390B0008390B0008390B0008390B000850
:10008000390B0008390B0008390B0008000000008C
:10009000000000000000000000000000390B000814
:1000A000390B0008390B0008390B0008390B000820
:1000B000390B0008390B0008390B0008390B000810
:1000C000390B0008390B0008390B0008390B000800
:1000D000390B0008D50A0008390B000800000000A1
:1000E000390B0008390B0008390B0008000000002C
:1000F000000000000000000000000000390B0008B4
:1001000000000000390B0008390B0008390B00080B
:1001100000000000000000000000000000000000DF
:10012000390B0008390B0008390B0008390B00089F
:10013000390B000800000000000000000000000073
:10014000000000000000000000000000390B000863
:10015000390B0008390B0008390B0008390B00086F
:10016000390B0008390B00080000000000000000F7
:10017000000000000000000000000000000000007F
:1001800000000000390B0008000000000000000023
:04019000390B00081F
:1001940053B94AB9002908BF00281CBF4FF0FF31EA
:1001A4004FF0FF3000F00CB8ADF1080C6DE904CE4F
:1001B40002F09AFCDDF804E0DDE9022304B07047A4
:1001C400704700BF0348044B834202D0034B03B182
:1001D40018477047100000201000002000000000A5
:1001E4000548064B1B1AD90F01EBA301491002D095
:1001F400034B03B118477047100000201000002083
:100204000000000010B5064C237843B9FFF7DAFF6D
:10021400044B13B10448AFF300800123237010BDD5
:1002240010000020000000006C2F000808B5054BEA
:100234001BB105490548AFF30080BDE80840FFF74E
:10024400CFBF00BF00000000140000206C2F000886
:100254002DE9F04188B00024039404940594069495
:1002640007940094324B1A6B42F004021A631A6B1F
:1002740002F004020092009A01941A6B42F0010207
:100284001A631A6B02F001020192019A02941A6B2A
:1002940042F002021A631B6B03F002030293029BF7
:1002A400DFF8908022464FF40051404600F0FCFFF6
:1002B400214F22468021384600F0F6FF1F4D22468A
:1002C4004FF4E041284600F0EFFF4FF4005303934E
:1002D400012604960594069403A9404600F0FCFE0A
:1002E4000F2303930494059403A9384600F0F4FE05
:1002F4008023039304960594069403A9384600F0DA
:10030400EBFE4FF4E043039304960594069403A98B
:10031400284600F0E1FE4FF40043039303230493C3
:10032400059403A9284600F0D7FE08B0BDE8F08183
:10033400003802400008024000000240000402406D
:1003440008B508220449054802F0BBFB10B1044B70
:1003540001221A7008BD00BF2C00002038000020C4
:100364003600002008B50268054B1B689A4200D08D
:1003740008BD044B01221A70FFF7E2FFF8E700BF43
:10038400380000203700002072B6FEE700B585B0C3
:10039400002300930193029303931348134A0260CA
:1003A400436083600361037680F82030C362104A9F
:1003B4008262C3600122C26180F83030426100F081
:1003C400BBFC68B904230093012301930023029327
:1003D4006946054800F0DCFC20B905B05DF804FB73
:1003E400FFF7D2FFFFF7D0FFC40100200020014037
:1003F4000100000F08B50A480A4B03600A4B43602A
:1004040000238360C3604FF48042026143618361CF
:10041400C361036201F0E8F800B908BDFFF7B4FF57
:100424007001002000540040A086010008B50A486D
:100434000A4B036047F61223436000238360C360C2
:100444000361042242618361C36102F0B8F800B918
:1004540008BDFFF799FF00BF3800002000100140DD
:1004640008B50A480A4B03600A4B436000238360C3
:10047400C3604FF48042026143618361C3610362DC
:1004840001F0B2F800B908BDFFF77EFF1C0100209F
:1004940000580040A086010008B50A480A4B0360D2
:1004A4000A4B436000238360C3604FF480420261BF
:1004B40043618361C361036201F096F800B908BD2A
:1004C400FFF762FFC8000020005C0040A086010026
:1004D40010B592B000241094119409940A940B94CA
:1004E4000C940D940E940F942022214601A802F03E
:1004F40059FC2148214B0360446084604FF6FF732C
:10050400C36004614461846101F000FE00282AD1C3
:1005140000231093119310A9174801F0BFFE20BBCC
:100524006023099300230A930B930C930D930E936A
:100534000F93042209A9104801F042FEB8B9002320
:10054400019302930393049305934FF4005206928C
:10055400089301A9084801F0DFFE50B9064800F0ED
:1005640027FA12B010BDFFF70FFFFFF70DFFFFF7DB
:100574000BFFFFF709FF00BF8000002000000140CF
:1005840000B595B03022002108A802F00BFC00232E
:10059400039304930593069307930193194A116CEB
:1005A40041F080511164126C02F080520192019A60
:1005B400029315490A6822F4404242F400420A6058
:1005C4000A6802F440420292029A0222089201222C
:1005D4000B9210220C920E9308A801F09FF968B9AF
:1005E4000F2303930021049105910691079103A819
:1005F40001F0E4FB20B915B05DF804FBFFF7C4FE7D
:10060400FFF7C2FE003802400070004010B582B00F
:1006140000F0B8FAFFF7B4FFFFF71AFEFFF7B6FED3
:10062400FFF7E8FEFFF702FFFFF71AFFFFF734FFBB
:10063400FFF74EFF224800F05DF8FFF781FE0DE062
:100644004FF4005100F1804000F5023000F032FE1A
:100654001C4B1B78D3B91C4B1B7853BB4FF47A73D8
:1006640004220DEB0201194801F0D9FF0028E7D05C
:10067400032805D04FF40051154800F01BFEE7E7AE
:100684004FF40051124800F015FEE1E70D4B002233
:100694001A700F4C4FF40051204600F00BFE4FF43B
:1006A4007A7000F09BFA4FF40051204600F002FEED
:1006B400D1E7054B00221A70FFF742FECEE700BFD8
:1006C4007001002037000020360000203800002090
:1006D4000008024000B585B08DF80F104FF0FF33CD
:1006E400009301230DF10F02002101F05BF805B026
:1006F4005DF804FB10B586B004460621FFF7EAFF57
:1007040009212046FFF7E6FF50238DF80C30012322
:100714000FE0590001F119026A44002002F80C0CA0
:100724005A1ED2B212011831694401F80C2C01335B
:10073400DBB2042BEDD94FF0FF330093092303AA56
:10074400C021204601F02EF808212046FFF7C2FF01
:1007540006B010BD82B0002100910B4B5A6C42F4DC
:1007640080425A645A6C02F480420092009A0191C9
:100774001A6C42F080521A641B6C03F0805301938C
:10078400019B02B0704700BF0038024030B589B009
:10079400002303930493059306930793026803F1DC
:1007A400804303F590339A4201D009B030BD002450
:1007B400009403F58C335A6C42F480725A645A6C78
:1007C40002F480720092009A01941A6B42F00102C2
:1007D4001A631A6B02F001020192019A02941A6BD5
:1007E40042F002021A631B6B03F002030293029BA2
:1007F400702303930325049503A9064800F06CFCB9
:10080400012303930495059403A9034800F064FCB1
:10081400CBE700BF00000240000402402DE9F04194
:100824008CB000230793089309930A930B930368EE
:100834004D4A934208D04D4A934229D04C4A9342A0
:1008440059D00CB0BDE8F08100250095494C236BCC
:1008540043F002032363236B03F002030093009B22
:100864004FF4C07307931223089303230A930423BA
:100874000B9307A9404800F02FFC0195236C43F427
:1008840000132364236C03F400130193019BD8E742
:1008940000250295374C236B43F002032363236B3B
:1008A40003F002030293029B4FF4806307934FF01B
:1008B4001208CDF8208003270A9704230B932E4EA9
:1008C40007A9304600F008FC08230793CDF82080E0
:1008D40009950A9709230B9307A9304600F0FCFBFE
:1008E4000395236C43F480032364236C03F4800393
:1008F4000393039BA5E7002504951E4C236B43F04B
:1009040001032363236B03F001030493049B059504
:10091400236B43F002032363236B03F00203059369
:10092400059B4FF4807307931227089703260A96B2
:1009340004230B9307A9114800F0CEFB102307935F
:10094400089709950A9609230B9307A90A4800F00A
:10095400C3FB0695236C43F400032364236C03F464
:1009640000030693069B6CE70054004000580040C7
:10097400005C0040003802400004024000000240D5
:100984000268094B9A4200D0704782B00023019359
:10099400064B5A6C42F001025A645B6C03F001038B
:1009A4000193019B02B070470000014000380240EF
:1009B40000B587B000230193029303930493059336
:1009C40002680F4B9A4202D007B05DF804FB002383
:1009D40000930C4B1A6B42F001021A631B6B03F079
:1009E40001030093009B4FF40073019302230293CD
:1009F4000123059301A9044800F06EFBE4E700BF5E
:100A0400000001400038024000000240F0B589B007
:100A1400002303930493059306930793026803F159
:100A2400804303F588339A4201D009B0F0BD002415
:100A3400009403F594335A6C42F010025A645A6CD1
:100A440002F010020092009A01941A6B42F0010223
:100A54001A631A6B02F001020192019A02941A6B52
:100A640042F002021A631B6B03F002030293029B1F
:100A74004FF4806303930227049703260696072501
:100A8400079503A90A4800F027FB40230393049722
:100A940005940696079503A9064800F01DFB224617
:100AA4002146252000F092FA252000F09FFABCE7A9
:100AB4000000024000040240FEE7FEE7FEE7FEE716
:100AC400FEE770477047704708B500F075F808BD39
:100AD40008B5024801F098FE08BD00BF38000020A8
:100AE40070470000DFF834D0FFF7FAFF0C480D49D7
:100AF4000D4A002302E0D458C4500433C4188C4275
:100B0400F9D30A4A0A4C002301E013600432A242DA
:100B1400FBD302F099F9FFF779FD7047000001203B
:100B24000000002010000020B02F0008100000205A
:100B3400A8030020FEE7000010B504460E4B1A7807
:100B44004FF47A73B3FBF2F30C4A1068B0FBF3F082
:100B540000F050FA68B90F2C01D901200AE00022F4
:100B640021464FF0FF3000F031FA054B1C600020A5
:100B740000E0012010BD00BF0400002000000020A0
:100B84000800002008B50B4B1A6842F400721A6082
:100B94001A6842F480621A601A6842F480721A6019
:100BA400032000F001FA0F20FFF7C6FFFFF7D2FD84
:100BB400002008BD003C0240034A1168034B1B7827
:100BC4000B441360704700BF0C0200200400002097
:100BD400014B1868704700BF0C02002038B504466A
:100BE400FFF7F6FF0546B4F1FF3F02D0044B1B7834
:100BF4001C44FFF7EDFF401BA042FAD338BD00BFF1
:100C0400040000204A4B5A6822F440325A605A6861
:100C140041680A435A600268536823F4807353603E
:100C240002685368016943EA012353600268536808
:100C340023F0407353600268536881680B43536028
:100C44000268936823F40063936002689368C16840
:100C54000B439360826A374B9A4257D00268936879
:100C640023F07063936002689368816A0B43936016
:100C74000268936823F04053936002689368C16AE2
:100C84000B4393600268936823F002039360026845
:100C94009368017E43EA4103936090F82030002B6F
:100CA4003FD00268536843F400635360026853689A
:100CB40023F46043536001684B68426A013A43EA93
:100CC40042334B600268D36A23F47003D362016831
:100CD400CB6AC269013A43EA0253CB620268936861
:100CE40023F4007393600268936890F8301043EA29
:100CF400412393600268936823F4806393600268DD
:100D04009368416943EA812393607047026893685A
:100D140023F0706393600268936823F040539360F8
:100D2400B0E70268536823F400635360CAE700BF66
:100D3400002301400100000F38B310B50446036CD2
:100D440043B1236C13F0100F0BD00120002384F85F
:100D54003C3010BDFFF71AFD0023636484F83C3077
:100D6400EFE7236C23F4885323F0020343F00203D8
:100D740023642046FFF746FF00206064236C23F0C1
:100D8400030343F001032364E0E7012070470000FC
:100D940030B482B00022019290F83C20012A00F085
:100DA400B6800346012280F83C200A68092A40D90B
:100DB4000468E06892B202EB42021E3A4FF0070C5C
:100DC4000CFA02F220EA0202E2601C68E0680A8877
:100DD40002EB42021E3A8D6805FA02F20243E26017
:100DE4004A68062A3CD81C68606B02EB8202053A0A
:100DF4004FF01F0C0CFA02F220EA020262631C6834
:100E0400606B4A6802EB8202053AB1F800C00CFA42
:100E140002F20243626318683E4A904250D0186856
:100E24003C4A904255D0002083F83C0002B030BCCC
:100E340070470468206992B202EB42024FF0070C3B
:100E44000CFA02F220EA020222611C6820690A8874
:100E540002EB42028D6805FA02F202432261BFE707
:100E64000C2A16D81D68286B02EB8202233A1F2431
:100E740004FA02F220EA02022A631D68286B4A6817
:100E840002EB8202233A0C8804FA02F202432A6338
:100E9400C1E71D68E86A02EB8202413A1F2404FAA2
:100EA40002F220EA0202EA621D68E86A4A6802EB7A
:100EB4008202413A0C8804FA02F20243EA62AAE787
:100EC4000A68122AABD11448426842F48002426094
:100ED400A5E70A68103A012AA5D80F48426842F4E7
:100EE400000242600A68102A9DD10C4A12680C491B
:100EF400A1FB0212920C02EB82025200019202E068
:100F0400019A013A0192019A002AF9D18BE7022051
:100F14008CE700BF002001400023014000000020B6
:100F240083DE1B43002807DB00F01F024009012376
:100F34009340024A42F82030704700BF00E100E0CD
:100F4400002808DB0901C9B200F1604000F56140E6
:100F540080F80013704700F00F000901C9B2014B7B
:100F64001954704714ED00E000B500F00700C0F11B
:100F7400070CBCF1040F28BF4FF0040C031D062B13
:100F84000FD9C31E4FF0FF3E0EFA0CF021EA000108
:100F940099400EFA03FE22EA0E0241EA02005DF8CD
:100FA40004FB0023EEE70000074AD36823F4E06360
:100FB4001B041B0C000200F4E060034343F0BF6316
:100FC40043F40033D360704700ED00E010B50446ED
:100FD400054BD868C0F30220FFF7C6FF0146204640
:100FE400FFF7AEFF10BD00BF00ED00E008B5FFF74E
:100FF40099FF08BD0138B0F1807F0BD24FF0E02398
:101004005861054AF02182F82310002098610722D4
:101014001A6170470120704700ED00E070B5044686
:10102400866DFFF7D5FD94F83530DBB2022B06D080
:1010340080236365002384F83430012070BD0546A5
:101044002268136823F0160313602268536923F09F
:1010540080035361236CE3B12268136823F008030F
:1010640013602268136823F00103136023681B686C
:1010740013F0010F11D0FFF7ABFD431B052BF5D97E
:1010840020236365032084F83500002384F834307A
:10109400D4E7A36C002BDFD1E3E7E26D3F23934059
:1010A400B360012384F83530002084F83400C5E7A8
:1010B40090F83530DBB2022B03D080234365012046
:1010C4007047052380F835300268136823F0010364
:1010D400136000207047000000230F2B00F2DA8019
:1010E40030B583B068E085684FEA430E032404FA00
:1010F4000EF425EA0405CC6804FA0EF42C4384604B
:10110400446824EA02044A68C2F300129A40224363
:1011140042605FE0DC08083450F8242003F007053F
:10112400AD004FF00F0E0EFA05FE22EA0E0E0A690C
:10113400AA4042EA0E0240F824205FE0042200E0C4
:10114400002202FA0EF22A430234534D45F82420B9
:10115400524A94686FEA0C0224EA0C05D1F804E0C0
:101164001EF4801F01D04CEA04054C4CA560E468D1
:1011740002EA0405D1F804E01EF4001F01D04CEA91
:101184000405464CE560646802EA0405D1F804E00D
:101194001EF4003F01D04CEA0405404C656024680D
:1011A40022404D6815F4803F01D04CEA04023B4CC8
:1011B400226001330F2B6BD801229A400C6804EA99
:1011C400020C32EA0404F4D14C6804F00304013C38
:1011D400012C88D94A6802F00302032A09D0C468A2
:1011E4005D000322AA4024EA02048A68AA4022433A
:1011F400C2604A6802F00302022A8BD004684FEAF4
:10120400430E032202FA0EF224EA02044A6802F0B0
:10121400030202FA0EF2224302604A6812F4403FCB
:10122400C7D0002201921E4A546C44F48044546492
:10123400526C02F480420192019A9C08A51C164A41
:1012440052F8255003F0030E4FEA8E0E0F2202FAD5
:101254000EF225EA0205134A90423FF471AF02F5FB
:10126400806290420ED002F5806290420CD002F56A
:10127400806290420AD002F5806290423FF45EAFF1
:1012840007225EE701225CE702225AE7032258E7BD
:1012940003B030BD704700BF00380140003C01403E
:1012A40000380240000002400AB18161704709041D
:1012B40081617047436901EA030221EA030141EABB
:1012C40002418161704703685A6912F4806F01D149
:1012D400002070476FF480625A6100230363202268
:1012E40080F83D2080F83E30026C42F00402026433
:1012F40080F83C30012070472DE9F04106460C4649
:10130400174698463BE0FFF763FC069BC01A40452E
:1013140002D8B8F1000F32D1012D18D033689B697F
:1013240024EA03039BB2B3FA83F35B099F4226D1F9
:1013340000233363202286F83D2086F83E30326C49
:1013440042F02002326486F83C30012027E0336802
:101354005B6924EA03039BB2B3FA83F35B09E5E711
:1013640033685B6924EA030C1FFA8CFCBCFA8CFC1E
:101374004FEA5C1C674511D1B8F1FF3FC3D1C4F3F8
:101384000745012DECD033689B6924EA030C1FFA4E
:101394008CFCBCFA8CFC4FEA5C1CEBE70020BDE83B
:1013A400F0812DE9F84305460E469046994653E0F0
:1013B4001A6842F400721A602B686FF480625A61F2
:1013C40000232B63202285F83D2085F83E302A6CCB
:1013D40042F004022A6485F83C3001204AE0FFF719
:1013E400F7FBA0EB0900404502D8B8F1000F33D158
:1013F400012F17D02B689B6926EA03039BB2003B9D
:1014040018BF012343B300232B63202285F83D201A
:1014140085F83E302A6C42F020022A6485F83C307C
:10142400012027E02B685B6926EA03039BB2003B9B
:1014340018BF0123E6E72B689C6926EA0404A4B2DA
:10144400003C18BF0124A4B12B685A6912F4806FC0
:10145400AED1B8F1FF3FC2D1C6F30747012FEAD19D
:101464002B685C6926EA0404A4B2003C18BF01247A
:10147400E9E70020BDE8F883F0B583B004460D46E3
:1014840016461F46C36A082B0DD0012B0BD013F54B
:10149400803F08D0036B122B0AD10268136843F40F
:1014A4008073136004E02268136843F4807313604C
:1014B4000097334600224FF001112046FFF71CFF2E
:1014C40080B92369B3F5804F16D1236805F0FE0572
:1014D4001D613B46324613492046FFF762FFF8B9C7
:1014E40003B0F0BD23681B6813F4807F02D04FF46F
:1014F400007323640320F3E7EB11226803F006036F
:1015040043F0F00313613B46324607492046FFF798
:1015140048FF18B92368EDB21D61DAE70120DFE75F
:101524000120DDE7020001000800010070B5044657
:101534000D46164623685B6913F0800F21D12046BF
:10154400FFF7C1FEF8B9B5F1FF3FF3D0FFF740FB59
:10155400801BA84201D8002DECD123685B6913F0ED
:10156400800FE7D100232363202284F83D2084F8F0
:101574003E30226C42F02002226484F83C30012088
:1015840000E0002070BD0120FCE770B504460D4664
:10159400164623685B6913F0040F21D12046FFF738
:1015A40092FEF8B9B5F1FF3FF3D0FFF711FB801BB2
:1015B400A84201D8002DECD123685B6913F0040F15
:1015C400E7D100232363202284F83D2084F83E30B1
:1015D400226C42F02002226484F83C30012000E0B6
:1015E400002070BD0120FCE7002800F0CC8070B51D
:1015F400044690F83D30002B77D0242384F83D3006
:101604002268136823F0010313602268136843F40B
:10161400004313602268136823F40043136000F04E
:1016240083FC62685A4B9A4264D85A4B98428CBFE6
:1016340000230123002B40F0A8805749A1FB00316F
:101644008B0C25686A6822F03F0242EA91426A6084
:1016540021680A6A22F03F0266684D4DAE424FD8B7
:10166400013313430B622168CA6922F44F4222F00A
:10167400FF026568464B9D424CD8431E6D00B3FB88
:10168400F5F3013340F6FC70034278D0C3F30B0347
:101694001A43CA6121680B6823F0C003E269206A17
:1016A400024313430B6021688B6823F4034323F044
:1016B400FF032269E068024313438B602168CB680F
:1016C40023F0FF036269A06902431343CB602268DD
:1016D400136843F00103136000202064202384F87E
:1016E4003D30206384F83E0070BD80F83C30FFF745
:1016F40095F882E7294B98428CBF0023012399E790
:101704004FF4967505FB03F3254DA5FB03539B0985
:101714000133A6E7A668BEB9431E05EB450CB3FB2F
:10172400FCF30133C3F30B03B3FA83F35B0943BB49
:10173400C6B9431E05EB4505B3FBF5F30133C3F30B
:101744000B0343F40043A3E7431E05EB850C0CEBAA
:101754008C0CB3FBFCF30133C3F30B03B3FA83F335
:101764005B09E4E7431E05EB850505EB8505B3FB43
:10177400F5F30133C3F30B0343F4404388E7042335
:1017840086E7012384E7012070470120ACE700BF0E
:10179400A08601007F841E0083DE1B43FF083D00FA
:1017A400D34D62102DE9F04385B004460F469146AF
:1017B40098460C9EFFF70CFA054694F83D00C0B21B
:1017C400202804D00227384605B0BDE8F0830095F0
:1017D400192301224F492046FFF78EFD002840F0CF
:1017E400928094F83C30012B00F08F80012384F820
:1017F4003C3023681A6812F0010F03D11A6842F0D2
:1018040001021A602268136823F400631360212321
:1018140084F83D30102384F83E3000232364C4F858
:101824002490A4F82A80638D23853B4BE3622B46E6
:10183400324639462046FFF71FFE0746002866D188
:101844000023039323685A6903929B690393039BC0
:1018540011E0236C042B01D00127B4E7226813683C
:1018640043F400731360F7E72A4631462046FFF736
:101874008CFE00282ED1238D002B36D02A463146EB
:101884002046FFF753FE0028E3D1626A23681278EA
:101894001A61606A431C6362618D89B2013989B23D
:1018A4006185238D013B9BB223852268516911F028
:1018B400040FD9D0002BD7D043781361636A013366
:1018C4006362638D9BB2013B9BB26385238D013BB5
:1018D4002385C9E7236C042B01D0012773E7226811
:1018E400136843F400731360F7E72268136843F442
:1018F40000731360202384F83D30002384F83E30C5
:1019040084F83C305FE702275DE702275BE70127A5
:1019140059E700BF020010000000FFFF002800F09C
:10192400E08170B582B00446036813F0010F3BD028
:101934009F4B9B6803F00C03042B2CD09C4B9B689F
:1019440003F00C03082B21D06368B3F5803F4FD01C
:10195400B3F5A02F52D0964B1A6822F480321A6045
:101964001A6822F480221A606368002B50D0FFF7B3
:101974002FF905468E4B1B6813F4003F14D1FFF773
:1019840027F9401B6428F5D90320B1E1884B5B6833
:1019940013F4800FD8D0864B1B6813F4003F03D098
:1019A4006368002B00F09F81236813F0020F54D06A
:1019B4007F4B9B6813F00C0F3ED07D4B9B6803F06C
:1019C4000C03082B33D0E368002B68D0794B012239
:1019D4001A60FFF7FDF80546754B1B6813F0020FFC
:1019E40054D1FFF7F5F8401B0228F5D903207FE115
:1019F4006F4A136843F480331360B5E76C4B1A687D
:101A040042F480221A601A6842F480321A60ABE70A
:101A1400FFF7DEF80546664B1B6813F4003FC3D09E
:101A2400FFF7D6F8401B6428F5D9032060E1604B2A
:101A34005B6813F4800FC6D15D4B1B6813F0020F73
:101A440003D0E368012B40F05081594A136823F016
:101A5400F803216943EAC1031360236813F0080FF4
:101A640042D063696BB3534B0122C3F8802EFFF756
:101A7400AFF805464E4B5B6F13F0020F34D1FFF7FE
:101A8400A7F8401B0228F5D9032031E1484A13681E
:101A940023F0F803216943EAC1031360DDE7454BF2
:101AA40000221A60FFF794F80546414B1B6813F0B7
:101AB400020FD2D0FFF78CF8401B0228F5D903207F
:101AC40016E13C4B0022C3F8802EFFF781F805464F
:101AD400374B5B6F13F0020F06D0FFF779F8401B0A
:101AE4000228F5D9032003E1236813F0040F77D00B
:101AF4002F4B1B6C13F0805F33D1002301932C4BCD
:101B04001A6C42F080521A641B6C03F080530193E8
:101B1400019B0125284B1B6813F4807F23D0A36805
:101B2400012B34D0052B38D0214B1A6F22F001023F
:101B34001A671A6F22F004021A67A368002B3DD0BB
:101B4400FFF746F806461A4B1B6F13F0020F46D1F7
:101B5400FFF73EF8801B41F288339842F3D9032003
:101B6400C6E00025D6E7144A136843F48073136073
:101B7400FFF72EF80646104B1B6813F4807FCED176
:101B8400FFF726F8801B0228F5D90320B0E0084AA5
:101B9400136F43F001031367CFE7054B1A6F42F04D
:101BA40004021A671A6F42F001021A67C5E700BF00
:101BB400003802400000474200700040FFF708F878
:101BC4000646524B1B6F13F0020F08D0FFF700F8C4
:101BD400801B41F288339842F3D9032088E0EDB9A1
:101BE400A369002B00F08380484A926802F00C023B
:101BF400082A51D0022B17D0454B00221A66FEF753
:101C0400E7FF0446414B1B6813F0007F42D0FEF708
:101C1400DFFF001B0228F5D9032069E03B4A136C5F
:101C240023F080531364DBE7394B00221A66FEF776
:101C3400CFFF0546354B1B6813F0007F06D0FEF737
:101C4400C7FF401B0228F5D9032051E0E369226A4B
:101C54001343626A43EA8213A26A5208013A43EACE
:101C64000243E26A43EA0263284A5360284B012292
:101C74001A66FEF7ADFF0446244B1B6813F0007F81
:101C840006D1FEF7A5FF001B0228F5D903202FE09B
:101C940000202DE000202BE0012B2BD01B4B5B6898
:101CA40003F48001E269914226D103F03F02216AE4
:101CB4008A4223D1616A47F6C0721A40B2EB811F8F
:101CC4001ED103F44031A26A5208013AB1EB024F2B
:101CD40018D103F07063E26AB3EB026F14D10020F1
:101CE40006E001207047012002E0012000E000200E
:101CF40002B070BD0120FBE70120F9E70120F7E7FE
:101D04000120F5E70120F3E70120F1E70038024064
:101D14000000474208B5264B9B6803F00C03042BD4
:101D240041D0082B41D1224B5A6802F03F025B6834
:101D340013F4800F12D01E4B5968C1F388111D484B
:101D44000023A1FB0001FEF723FA194B5B68C3F3E0
:101D5400014301335B00B0FBF3F008BD144B58683A
:101D6400C0F388104FEA401CBCEB000C6EEB0E0E67
:101D74004FEA8E1343EA9C634FEA8C11B1EB0C01DA
:101D840063EB0E03DB0043EA5173C90011EB000C53
:101D940043F10003990200234FEA8C2041EA9C514D
:101DA400FEF7F6F9D1E70348D7E70348D5E700BFC4
:101DB4000038024040787D010024F400002800F03F
:101DC4009B8070B50D4604464F4B1B6803F0070318
:101DD4008B4208D2CBB24C4A1370136803F007034A
:101DE4008B4240F08B80236813F0020F17D013F05E
:101DF400040F04D0454A936843F4E0539360236886
:101E040013F0080F04D0414A936843F4604393608D
:101E14003E4A936823F0F003A1680B439360236860
:101E240013F0010F32D06368012B21D09A1E012ACE
:101E340025D9364A126812F0020F61D033498A68F4
:101E440022F0030213438B60FEF7C2FE06462F4BBB
:101E54009B6803F00C036268B3EB820F16D0FEF7A5
:101E6400B7FE801B41F288339842F0D9032042E048
:101E7400264A126812F4003FE0D101203BE0234AD5
:101E8400126812F0007FD9D1012034E01E4B1B6888
:101E940003F00703AB4207D9EAB21B4B1A701B6865
:101EA40003F00703AB422DD1236813F0040F06D0CF
:101EB400164A936823F4E053E1680B439360236864
:101EC40013F0080F07D0114A936823F46043216983
:101ED40043EAC1039360FFF71DFF0C4B9B68C3F3F8
:101EE40003130B4AD35CD8400A4B18600A4B18689A
:101EF400FEF722FE002070BD012070470120FAE7A2
:101F04000120F8E70120F6E7003C024000380240D7
:101F14008C2F00080000002008000020014B1868E6
:101F2400704700BF0000002008B5FFF7F7FF044B1F
:101F34009B68C3F38223034AD35CD84008BD00BF27
:101F440000380240842F000808B5FFF7E7FF044B70
:101F54009B68C3F34233034AD35CD84008BD00BF37
:101F640000380240842F000830B4026A036A23F068
:101F7400010303624568836923F073030C681C43FF
:101F840022F002028B6813430B4A904206D045604C
:101F940084614A684263036230BC704723F00803DB
:101FA400CA681A4322F0040325F440754A692A4397
:101FB4008D691543EBE700BF0000014030B4036AAC
:101FC400026A22F4807202624468C26922F07302D7
:101FD4000D68154323F400738A6843EA02230D4A0B
:101FE400904206D04460C5614A68C263036230BC53
:101FF400704723F40063CA6843EA022323F480632E
:1020040024F440544A6944EA02148A6944EA0214F2
:10201400E8E700BF0000014030B4036A026A22F41A
:10202400805202624468C26922F4E6420D6842EAC0
:10203400052223F400538D6843EA0533074DA84273
:1020440006D04460C2614A680264036230BC7047CF
:1020540024F480444D6944EA8514F2E70000014009
:102064000368294A90420ED0B0F1804F0BD0A2F5FC
:102074007C42904207D002F58062904203D002F580
:102084008062904203D123F070034A6813431E4ACE
:1020940090421AD0B0F1804F17D0A2F57C42904202
:1020A40013D002F5806290420FD002F58062904214
:1020B4000BD002F59A32904207D002F5806290422A
:1020C40003D002F58062904203D123F44073CA68BE
:1020D400134323F080034A69134303608B68C3628C
:1020E4000B688362084B98420AD001234361036959
:1020F40013F0010F03D0036923F001030361704758
:102104000B690363F1E700BF0000014040B310B561
:10211400044690F83D30F3B1022384F83D30214663
:1021240051F8040BFFF79CFF012384F8463084F830
:102134003E3084F83F3084F8403084F8413084F8ED
:10214400423084F8433084F8443084F8453084F8CD
:102154003D30002010BD80F83C30FEF711FCDBE779
:102164000120704730B4036A026A22F0100202624E
:102174004468826922F4E6420D6842EA052223F0AB
:1021840020038D6843EA05130C4DA84206D0446031
:1021940082614A688263036230BC704723F0800323
:1021A400CD6843EA051323F0400324F440644D69E9
:1021B40044EA85048D6944EA8504E8E700000140A7
:1021C40038B590F83C30012B66D004460D46012307
:1021D40080F83C300C2A5AD8DFE802F007595959E4
:1021E4001B5959593059595944000068FFF7BCFE2E
:1021F4002268936943F0080393612268936923F08A
:10220400040393612268936929690B439361002055
:102214003EE00068FFF7A6FF2268936943F4006379
:1022240093612268936923F48063936122689369BC
:10223400296943EA01239361002029E00068FFF73C
:10224400BDFE2268D36943F00803D3612268D369D1
:1022540023F00403D3612268D36929690B43D36152
:10226400002015E00068FFF7D7FE2268D36943F425
:102274000063D3612268D36923F48063D361226845
:10228400D369296943EA0123D361002000E00120D6
:10229400002384F83C3038BD0220FCE790F83C2051
:1022A400012A34D010B40346012280F83C200222D3
:1022B40080F83D2002685068946820F0700C08682B
:1022C40040EA0C0050601A681248824212D0B2F1FF
:1022D400804F0FD0A0F57C4082420BD000F5806087
:1022E400824207D000F58060824203D000F59A3024
:1022F400824204D124F08004496821439160012280
:1023040083F83D20002083F83C0010BC7047022075
:10231400704700BF00000140024690F83C30012B9A
:1023240021D0012380F83C30CB6823F440738868C3
:10233400034323F480634868034323F40063086879
:10234400034323F480530869034323F40053486987
:10235400034323F48043C9690B4311684B64002091
:1023640082F83C00704702207047026802F10C03B7
:1023740053E8003F23F490730C3242E80031002903
:10238400F3D1026802F1140353E8003F23F0010380
:10239400143242E800310029F3D1036B012B05D03C
:1023A400202380F84230002303637047026802F15F
:1023B4000C0353E8003F23F010030C3242E80031D1
:1023C4000029F3D1ECE790F84130DBB2212B01D0A6
:1023D400022070478368B3F5805F17D0036A5A1CE4
:1023E40002621A7803685A60C38C9BB2013B9BB2A9
:1023F400C3844BB90268D36823F08003D3600268B6
:10240400D36843F04003D360002070470369002B76
:10241400E4D1036A1B880268C3F308035360036AA8
:1024240002330362E0E7000010B504460268136952
:1024340023F44053C1680B431361836802691A4350
:1024440043691A43C3691A430168CB6823F41643EA
:1024540023F00C031343CB600268536923F44073E5
:1024640081690B4353610368314A934206D002F5F4
:102474008062934202D0FFF757FD01E0FFF764FD4D
:10248400E369B3F5004F29D00021031849411B1813
:1024940041F10001C90041EA5371DB001818636877
:1024A4004FEA83024FEA937341F10001FDF770FE96
:1024B400204AA2FB00314909642303FB11031B01D9
:1024C4003233A2FB03235B0903F0F00202EB011297
:1024D40003F00F03216813448B6010BD002302181E
:1024E40043EB0301121841F10001C90041EA5271A2
:1024F400D200101841F10001626892185B41FDF7A7
:1025040047FE0C4AA2FB00314909642303FB110373
:10251400DB003233A2FB03235B095A0002F4F87296
:1025240002EB011203F00703216813448B60D4E724
:10253400001001401F85EB512DE9F04383B005469F
:102544000E4617469946DDF828802B681C6836EA43
:1025540004040CBF01240024BC4228D1B8F1FF3F7D
:10256400F3D0FEF735FBA0EB0900404523D8B8F1C2
:10257400000F22D02B68DA6812F0040FE5D0802E09
:10258400E3D0402EE1D01A6812F0080FDDD0002409
:1025940001941A6801925B680193019B2846FFF736
:1025A400E4FE08236B6485F84040012000E000202D
:1025B40003B0BDE8F0830320FAE70320F8E760B333
:1025C40010B5044690F8413013B3242384F8413005
:1025D4002268D36823F40053D3602046FFF724FF16
:1025E4002268136923F4904313612268536923F02A
:1025F4002A0353612268D36843F40053D360002054
:102604006064202384F8413084F84230606310BD54
:1026140080F84030FEF7FAF9D7E7012070472DE93A
:10262400F04182B01E4690F84230DBB2202B59D1E3
:1026340004460D469046002958D00AB9012052E0BC
:1026440000234364222280F842200363FEF7C0FA89
:102654000746A4F82C80A4F82E80A368B3F5805F05
:1026640002D04FF000081CE0236913B14FF00008BA
:1026740017E0A846002514E0202384F84230032004
:1026840031E023685B68C3F3080328F8023B03E0E6
:1026940023685B682B700135E28D92B2013A92B2E5
:1026A400E285E38D9BB2C3B100963B460022202114
:1026B4002046FFF741FF0028DED1002DE1D0A368BA
:1026C400B3F5805FE4D013B92369002BE0D023680D
:1026D4005B6803F07F032B70DDE7202384F842302E
:1026E400002000E0022002B0BDE8F0810120FAE7FA
:1026F400704708B50168CA6822F04002CA60202207
:1027040080F84120FFF7F4FF002008BD704708B5AA
:10271400806B0023C385C384FFF7F8FF08BD7047AF
:1027240090F84230DBB2222B69D18368B3F5805F25
:102734004FD0826AB3F5805F04D0002B56D1036971
:10274400002B53D103685B681370836A013383627F
:10275400C38D9BB2013B9BB2C385002B51D100B505
:1027640083B00268D36823F02003D3600268D3687F
:1027740023F48073D3600268536923F00103536127
:10278400202380F8423000234363036B012B33D1B1
:1027940000230363026802F10C0353E8003F23F0B3
:1027A40010030C3242E800310029F3D103681A689F
:1027B40012F0100F06D0002201921A6801925B6891
:1027C4000193019B818DFFF7AAFF002003B05DF800
:1027D40004FB0269002AACD1826A03685B68C3F314
:1027E40008031380836A02338362B1E703685B687A
:1027F40003F07F031370A8E7FDF7B4FDE5E70220BB
:10280400704700207047000010B582B0044602688B
:102814001368D068516913F00F0F09D113F0200F1A
:102824000CD010F0200F09D02046FFF779FF16E0F6
:1028340011F0010115D110F4907F12D1216B0129FF
:1028440079D013F0800F03D010F0800F40F0148182
:1028540013F0400F03D010F0400F40F0118102B08C
:1028640010BD13F0010F06D010F4807F03D0626C0A
:1028740042F00102626413F0040F04D019B1626CD7
:1028840042F00202626413F0020F04D019B1626CC8
:1028940042F00402626413F0080F07D010F0200F16
:1028A40000D119B1626C42F008026264626C002AC1
:1028B400D5D013F0200F02D010F0200F29D12368B7
:1028C4005B6903F04003626C12F0080F00D163B33C
:1028D4002046FFF74AFD23685B6913F0400F20D0C0
:1028E400226802F1140353E8003F23F0400314323A
:1028F40042E800310029F3D1E36B73B1624A1A65EF
:10290400E06BFEF7D5FB0028A9D0E06B036D984778
:10291400A5E72046FFF704FFD1E72046FFF7F6FEC0
:102924009DE72046FFF7F2FE99E72046FFF7EEFE0B
:102934000023636493E713F0100F82D010F0100F9C
:102944003FF47FAF0023019313680193536801930D
:10295400019B536913F0400F52D0E26B13685B681C
:102964009BB2002B3FF47BAFA18D99427FF677AFEA
:10297400E385D369B3F5807F37D0226802F10C0375
:1029840053E8003F23F480730C3242E800310029FD
:10299400F3D1226802F1140353E8003F23F001034A
:1029A400143242E800310029F3D1226802F1140301
:1029B40053E8003F23F04003143242E80031002979
:1029C400F3D1202384F8423000232363226802F1E8
:1029D4000C0353E8003F23F010030C3242E80031AB
:1029E4000029F3D1E06BFEF719FB02236363A18D89
:1029F400E38D9BB2C91A89B22046FFF790FE2EE7F9
:102A0400A18DE38D9BB2C91A89B2E38D9BB2002BD1
:102A14003FF425AF00293FF422AF226802F10C03F2
:102A240053E8003F23F490730C3242E8003000284E
:102A3400F3D1226802F1140353E8003F23F00103A9
:102A4400143242E800300028F3D1202384F84230C5
:102A540000232363226802F10C0353E8003F23F0B0
:102A640010030C3242E800300028F3D102236363E0
:102A74002046FFF754FEF2E62046FFF7A4FCEEE6FC
:102A84002046FFF736FEEAE61327000881628285B6
:102A9400C28500234364222380F84230036923B1B2
:102AA4000268D36843F48073D3600268536943F0C7
:102AB400010353610268D36843F02003D36000200C
:102AC400704708B590F84230DBB2202B08D149B1E9
:102AD4000AB9012008BD00230363FFF7D7FFF9E714
:102AE4000220F7E70120F5E72DE9F047089D0E469F
:102AF40004460F46002B4AD194468C45B2FA82F222
:102B040060D942B1C2F12003974020FA03F30CFAD2
:102B140002FC1F4394404FEA1C4E1FFA8CF6B7FB8D
:102B2400FEF1230C0EFB117743EA074301FB06F089
:102B340098420AD91CEB030301F1FF3780F0158199
:102B4400984240F21281023963441B1AA4B2B3FBC7
:102B5400FEF00EFB103344EA034400FB06F6A642E3
:102B64000AD91CEB040400F1FF3380F00081A64273
:102B740040F2FD806444023840EA0140A41B002175
:102B84001DB1D4400023C5E90043BDE8F0878B4262
:102B940005D90DB1C5E9000100210846F5E7B3FAEE
:102BA40083F1002946D1B34202D3824200F2F58078
:102BB400841A66EB030201201746002DE5D0C5E90F
:102BC4000047E2E7002A40F09380A1EB0C034FEAB0
:102BD4001C471FFA8CFE0121B3FBF7F607FB1630E6
:102BE400230C43EA00430EFB06F0984208D91CEB81
:102BF400030306F1FF3802D2984200F2D080464621
:102C04001B1AA4B2B3FBF7F007FB103344EA0344E6
:102C14000EFB00FEA64508D91CEB040400F1FF33AB
:102C240002D2A64500F2B6801846A4EB0E0440EA90
:102C34000640A5E7C1F120078B4022FA07FC4CEAC5
:102C4400030C06FA01FE20FA07F426FA07F344EA15
:102C54000E0400FA01F84FEA1C404FEA1449B3FB92
:102C6400F0FE1FFA8CF600FB1E3349EA03430EFB09
:102C740006F9994502FA01F20BD91CEB03030EF194
:102C8400FF3A80F08580994540F28280AEF1020ED1
:102C94006344A3EB0909A4B2B9FBF0F300FB139955
:102CA40044EA094403FB06F6A64208D91CEB0404D3
:102CB40003F1FF3068D2A64266D9023B644443EA7A
:102CC4000E40A41BA0FB02E6B4427346B14652D3A5
:102CD4004FD05DB1B8EB030264EB090404FA07F7C3
:102CE40022FA01F31F43CC40C5E9007400214CE7EC
:102CF400C2F1200120FA01F30CFA02FC26FA01F1D8
:102D0400964033434FEA1C471FFA8CFEB1FBF7F0A1
:102D140007FB1016190C41EA064100FB0EF68E4221
:102D240004FA02F408D91CEB010100F1FF382DD29A
:102D34008E422BD902386144891B9BB2B1FBF7F652
:102D440007FB161143EA014306FB0EF1994208D929
:102D54001CEB030306F1FF3814D2994212D9023E48
:102D640063445B1A46EA004136E73946EDE6184605
:102D740002E7F045ADD2BEEB020366EB0C06013868
:102D8400B146A6E74646ECE7034698E74046D3E754
:102D9400D6467EE76444023847E708460DE7023E1C
:102DA40063442DE7830730B547D0541E002A3ED034
:102DB400CAB2034601E0013C39D303F8012B9D0755
:102DC400F9D1032C2CD9CDB205EB05250F2C05EB3D
:102DD400054535D9A4F1100222F00F0C03F1100EB1
:102DE400E6444FEA121C1A46C2E90055C2E90255EC
:102DF40010327245F8D10CF1010214F00C0F03EB00
:102E0400021204F00F0C13D0ACF1040323F00303FB
:102E14000433134442F8045B9342FBD10CF00304E3
:102E24002CB1C9B21C4403F8011BA342FBD130BD31
:102E340064461346002CF4D1F9E703461446C0E770
:102E44001A46A446E0E700BF70B50F4B0F4DAB42E6
:102E5400A3EB050607D0B610002455F8043B013453
:102E64009847A642F9D800F07FF8094D094B5E1B3C
:102E7400AB424FEAA60606D0002455F8043B0134C1
:102E84009847A642F9D870BDA42F0008A42F0008C3
:102E9400A42F0008AC2F0008704700BF704700BF84
:102EA400024B13B1024800F005B87047000000005F
:102EB400C52E0008002301461A46184600F014B82F
:102EC40038B5074D074C2C1BA41005D0013C55F810
:102ED400043D9847002CF9D1BDE8384000F04AB8C9
:102EE400B02F0008AC2F00082DE9F8431B4D06460F
:102EF400286898460F469146FFF7CEFF184B1C688A
:102F04001CB3286865681F2D22DC4EB96B1C023582
:102F1400636044F82570FFF7C1FF0020BDE8F88323
:102F240004EB85010123C1F88890D4F88821AB40D3
:102F34001A43022EC4F88821C1F80881E6D1D4F8D6
:102F44008C211A43C4F88C21E0E7064C1C60D8E7B6
:102F5400FFF7A4FF4FF0FF30E0E700BF0C000020B4
:102F64001402002018020020F8B500BFF8BC08BC09
:102F74009E467047F8B500BFF8BC08BC9E46704733
:102F84000000000001020304000000000000000033
:082F940001020304060708090D
:082F9C0050FBFF7F0100000063
:082FA400A52E0008310200080F
:042FAC00090200080E
:102FB0000024F400010000001000000010020020B6
:0400000508000AE9FC
:00000001FF
