:020000040800F2
:1000000000000220B11200082D1200082F12000873
:1000100031120008331200083512000800000000F9
:10002000000000000000000000000000371200087F
:1000300039120008000000003B1200083D120008C1
:100040000113000801130008011300080113000840
:100050000113000801130008011300080113000830
:100060000113000801130008011300080113000820
:100070000113000801130008011300080113000810
:10008000011300080113000801130008000000001C
:100090000000000000000000000000000113000844
:1000A00001130008011300080113000801130008E0
:1000B000011300084512000855120008011300083A
:1000C00001130008011300080113000801130008C0
:1000D00001130008011300080113000800000000CC
:1000E00001130008011300080113000800000000BC
:1000F00000000000000000000000000001130008E4
:10010000000000000113000801130008011300089B
:1001100000000000000000000000000000000000DF
:10012000011300080113000801130008011300085F
:1001300001130008000000000000000000000000A3
:100140000000000000000000000000000113000893
:10015000011300080113000801130008011300082F
:100160000113000801130008000000000000000057
:10017000000000000000000000000000000000007F
:100180000000000001130008000000000000000053
:0801900001130008011300082F
:1001980081F0004102E000BF83F0004330B54FEA30
:1001A80041044FEA430594EA050F08BF90EA020F9D
:1001B8001FBF54EA000C55EA020C7FEA645C7FEA30
:1001C800655C00F0E2804FEA5454D4EB5555B8BF53
:1001D8006D420CDD2C4480EA020281EA030382EAC4
:1001E800000083EA010180EA020281EA0303362D56
:1001F80088BF30BD11F0004F4FEA01314FF4801C29
:100208004CEA113102D0404261EB410113F0004F3A
:100218004FEA03334CEA133302D0524263EB4303F1
:1002280094EA050F00F0A780A4F10104D5F1200E8F
:100238000DDB02FA0EFC22FA05F2801841F10001EA
:1002480003FA0EF2801843FA05F359410EE0A5F1BE
:1002580020050EF1200E012A03FA0EFC28BF4CF0EF
:10026800020C43FA05F3C01851EBE37101F00045A5
:1002780007D54FF0000EDCF1000C7EEB00006EEBB2
:100288000101B1F5801F1BD3B1F5001F0CD349083C
:100298005FEA30004FEA3C0C04F101044FEA445293
:1002A80012F5800F80F09A80BCF1004F08BF5FEA1A
:1002B800500C50F1000041EB045141EA050130BDFA
:1002C8005FEA4C0C404141EB0101013C28BFB1F50C
:1002D800801FE9D291F0000F04BF01460020B1FA57
:1002E80081F308BF2033A3F10B03B3F120020CDA2A
:1002F8000C3208DD02F1140CC2F10C0201FA0CF008
:1003080021FA02F10CE002F11402D8BFC2F1200C6C
:1003180001FA02F120FA0CFCDCBF41EA0C01904022
:10032800E41AA2BF01EB0451294330BD6FEA04046B
:100338001F3C1CDA0C340EDC04F11404C4F1200256
:1003480020FA04F001FA02F340EA030021FA04F368
:1003580045EA030130BDC4F10C04C4F1200220FABF
:1003680002F001FA04F340EA0300294630BD21FAFD
:1003780004F0294630BD94F0000F83F4801306BFC3
:1003880081F480110134013D4EE77FEA645C18BFB7
:100398007FEA655C29D094EA050F08BF90EA020F4E
:1003A80005D054EA000C04BF1946104630BD91EA46
:1003B800030F1EBF0021002030BD5FEA545C05D149
:1003C8004000494128BF41F0004130BD14F5800488
:1003D8003CBF01F5801130BD01F0004545F0FE41FC
:1003E80041F470014FF0000030BD7FEA645C1ABF31
:1003F800194610467FEA655C1CBF0B46024650EA68
:10040800013406BF52EA033591EA030F41F4002193
:1004180030BD00BF90F0000F04BF0021704730B519
:100428004FF4806404F132044FF000054FF00001EE
:1004380050E700BF90F0000F04BF0021704730B5AF
:100448004FF4806404F1320410F0004548BF404284
:100458004FF000013EE700BF42004FEAE2014FEAD9
:1004680031014FEA02701FBF12F07F4393F07F4FB4
:1004780081F06051704732F07F4208BF704793F0B7
:100488007F4F04BF41F40021704730B54FF46074CA
:1004980001F0004521F000411CE700BF50EA0102CD
:1004A80008BF704730B54FF000050AE050EA010276
:1004B80008BF704730B511F0004502D5404261EBE6
:1004C80041014FF4806404F132045FEA915C3FF427
:1004D800D8AE4FF003025FEADC0C18BF03325FEAC4
:1004E800DC0C18BF033202EBDC02C2F1200300FA75
:1004F80003FC20FA02F001FA03FE40EA0E0021FA9A
:1005080002F11444BDE600BF4A0011D212F50012F0
:1005180011D20DD56FF47873B3EB62520ED44FEA53
:10052800C12343F0004343EA505323FA02F07047D3
:100538004FF00000704750EA013002D14FF0FF3011
:1005480070474FF00000704753B94AB9002908BFF7
:1005580000281CBF4FF0FF314FF0FF3000F00CB8FF
:10056800ADF1080C6DE904CE02F062FADDF804E0A2
:10057800DDE9022304B07047704700BF4FF0FF3C2D
:1005880006E000BF4FF0010C02E000BF4FF0010C85
:100598004DF804CD4FEA410C7FEA6C5C4FEA430CFE
:1005A80018BF7FEA6C5C1BD001B050EA410C0CBF4D
:1005B80052EA430C91EA030F02BF90EA020F0020AF
:1005C800704710F1000F91EA030F58BF994208BF16
:1005D80090422CBFD8176FEAE37040F001007047D3
:1005E8004FEA410C7FEA6C5C02D150EA013C07D12A
:1005F8004FEA430C7FEA6C5CD6D152EA033CD3D075
:100608005DF8040B704700BF8446104662468C466E
:100618001946634600E000BF01B5FFF7B7FF0028A1
:1006280048BF10F1000F01BD4DF808EDFFF7F4FFCA
:100638000CBF012000205DF808FB00BF4DF808ED55
:10064800FFF7EAFF34BF012000205DF808FB00BF78
:100658004DF808EDFFF7E0FF94BF012000205DF89A
:1006680008FB00BF4DF808EDFFF7CEFF94BF01204F
:1006780000205DF808FB00BF4DF808EDFFF7C4FF48
:1006880034BF012000205DF808FB00BF0348044B7D
:10069800834202D0034B03B118477047740500200A
:1006A80074050020000000000548064B1B1AD90FEE
:1006B80001EBA301491002D0034B03B1184770475F
:1006C80074050020740500200000000010B5064CD9
:1006D800237843B9FFF7DAFF044B13B10448AFF3AB
:1006E80000800123237010BD740500200000000065
:1006F800E037000808B5054B1BB105490548AFF3BD
:100708000080BDE80840FFF7CFBF00BF0000000031
:1007180078050020E037000810B50446806808B165
:1007280002F0ECFA002363802380A380012010BD2F
:1007380038B505460C46FFF7EFFF204602F0D6FA1B
:10074800A86060B1002305E0AA684FF0000C02F829
:1007580003C001339C42F7D8AC80012038BD00208B
:10076800FCE7B0F800C00CF101038288013A13409D
:10077800428893420CD0836803F80C100388013335
:100788009BB203808288013A13400380012070479E
:1007980000207047028843889A420CD08268D35C54
:1007A8000B70438801339BB243808288013A13401F
:1007B8004380012070470020704702600023836057
:1007C8004160704738B5054603681B685B6A1BB211
:1007D800002B08DBC3F38F04AB689C4205D39C4213
:1007E80008D8AC6038BD0333F4E701216868FFF727
:1007F800B8FFF6E702216868FFF7B3FFF1E701B138
:100808000230704741600281C360002202700123F8
:1008180043708270C3707047B1F5805F2FD270B596
:1008280082B004460D4616461146FFF7E8FF0378E6
:100838005B0103F0200343EAC6135BB2427812015E
:1008480002F010021343C5F3032213438DF8053059
:100858008DF8045000222189606801F0B5F8012361
:10086800022201A9E06801F0B8FC054601222189AD
:10087800606801F0A9F82DB9002002B070BD4FF0F2
:10088800FF3070476FF00100F7E70260436008230C
:1008980003720023437212E003F1080C002220F8CF
:1008A8001C2003F1480C20F81C2003F1280C01221D
:1008B80020F81C2003F1680C20F81C2013441F2B7F
:1008C800EADD3B2900DC3C213C2393FBF1F34FF4A8
:1008D8007A7202FB03F3C360704700F57A7080B246
:1008E800704700002DE9F8430446437A03F10802F3
:1008F800483330F81360056830F81200FFF7EDFF51
:10090800014600222846FFF787FF25683046FFF793
:10091800E4FF014601222846FFF77EFF637A283369
:1009280014F81350002D3CD1637A683314F813601F
:10093800002E3CD13046FFF76DFD8046894628469B
:10094800FFF768FD42464B4602F0FEFEFFF7DCFD6E
:10095800074600F025FDBD422FD0002202211A488B
:1009680001F032F8A81BFFF765FD21F00041FFF701
:10097800CBFD00F015FD144D00220221284601F0A0
:1009880023F800220121284601F01EF8637A01337A
:10099800DBB26372227A934201D300236372BDE80B
:1009A800F88301221146084801F00EF8BCE701223D
:1009B8000221054801F008F8BCE70022012102489D
:1009C80001F002F8CEE700BF000802400260416073
:1009D8000023C36003610372437270470168C368F0
:1009E800042B15D810B40133C360026901320261C7
:1009F8004A7A084C34F813C002F1080321F813C0EE
:100A0800036934F81330483221F8123010BC7047AB
:100A1800704700BF000000200168C368002B15DD87
:100A280010B4013BC3600269013A02614A7A084C7A
:100A380034F813C002F1080321F813C0036934F82D
:100A48001330483221F8123010BC7047704700BF8D
:100A580000000020037A012B07D0022B08D00BB925
:100A68000123037201234361704700230372F9E7EE
:100A7800437A13B901234372F4E700234372F1E781
:100A880010B582B004464068428803889A4201D172
:100A980002B010BD0DF10701FFF77CFE0028F7D06A
:100AA8009DF807305BB19DF80730012B0BD09DF8FE
:100AB8000730022BECD12046FFF7AEFFE8E72046CF
:100AC800FFF7C8FFEFE72046FFF788FFEFE70000D2
:100AD8002DE9F0418AB000240594069407940894FF
:100AE800099401943A4B1A6B42F080021A631A6B0C
:100AF80002F080020192019A02941A6B42F00402F9
:100B08001A631A6B02F004020292029A03941A6B97
:100B180042F001021A631A6B02F001020392039A6F
:100B280004941A6B42F002021A631B6B03F002036F
:100B38000493049BDFF89C8022460321404600F082
:100B480043FF254F22460421384600F03DFF234D40
:100B580022461021284600F037FF0323059301267B
:100B680006960794089405A9404600F045FE04231C
:100B7800059306960794089405A9384600F03CFEAC
:100B88004FF4047305930694079405A9404600F0B2
:100B980033FE4FF4606305930694079405A938461D
:100BA80000F02AFE1023059306960794089405A9D9
:100BB800284600F021FE4FF48073059306940794AD
:100BC80005A9284600F018FE0AB0BDE8F08100BF6C
:100BD80000380240000802400000024000040240C1
:100BE80008B50248FFF7EEFD08BD00BF9C050020D0
:100BF80072B6FEE700B585B0002300930193029317
:100C080003931348134A02604360836003610376C9
:100C180080F82030C362104A8262C3600122C26138
:100C280080F83030426100F069FC68B90523009310
:100C380001230193002302936946054800F08AFCCA
:100C480020B905B05DF804FBFFF7D2FFFFF7D0FF2E
:100C580030070020002001400100000F08B50F48B0
:100C68000F4B03604FF4827343604FF4004383607B
:100C78004FF40063C3600023036143614FF40072C3
:100C88008261C3610362436283620A23C36201F023
:100C980045FA00B908BDFFF7ABFF00BFD806002032
:100CA8000030014008B50E480E4B03604FF48273C4
:100CB80043604FF4004383600023C36003614361D2
:100CC8004FF400728261C3610362436283620A2344
:100CD800C36201F023FA00B908BDFFF789FF00BF1E
:100CE800800600200034014000B58DB02422002188
:100CF80003A802F0C9FA0023019302931048114A8D
:100D08000260436083604FF6FF72C26003618361D3
:100D1800012303930593099303A901F0D9FC50B962
:100D280000230193029301A9054801F041FE20B96F
:100D38000DB05DF804FBFFF75BFFFFF759FF00BF3D
:100D4800380600200004004000B58DB024220021A0
:100D580003A802F099FA0023019302931048114A5C
:100D68000260436083604FF6FF72C2600361836173
:100D7800012303930593099303A901F0A9FC50B932
:100D880000230193029301A9054801F011FE20B93F
:100D98000DB05DF804FBFFF72BFFFFF729FF00BF3D
:100DA800F00500200008004000B587B0002302933A
:100DB800039304930593009301931348134A026025
:100DC800436083604FF0FF32C2600361836101F0CA
:100DD80053FC90B94FF48053029302A90A4801F0DA
:100DE800DEFC60B90023009301936946064801F0D0
:100DF800DFFD30B907B05DF804FBFFF7F9FEFFF738
:100E0800F7FEFFF7F5FE00BFA8050020000C004024
:100E180000B595B03022002108A802F035FA002369
:100E2800039304930593069307930193184A116C4F
:100E380041F080511164126C02F080520192019AC3
:100E48000293144A116841F440411160126802F497
:100E580040420292029A0222089201220B92102228
:100E68000C920E9308A800F0B5FD68B90F23039300
:100E78000021049105910691079103A800F0FAFF5B
:100E880020B915B05DF804FBFFF7B2FEFFF7B0FE1E
:100E98000038024000700040F0B5D1B000F054FABC
:100EA800FFF7B6FFFFF714FEFFF7A4FEFFF7D6FE25
:100EB800FFF7F8FEFFF718FFFFF746FFFFF774FF8D
:100EC8002C4C204601F098FA2B4E3C21304601F07C
:100ED800F4FC2A4D00220121284600F075FD00226D
:100EE8000221284600F070FD254F012210213846C6
:100EF80000F06AFD234D20212846FFF719FC224BFC
:100F0800102239464CA8FFF77DFC324629461F4877
:100F1800FFF753FC23464CAA3C2108A8FFF7B5FC71
:100F280008AA294601A8FFF751FD23685C6A01A8B1
:100F3800FFF7A6FD0F4B1B685B6A1B1B0B9A9342BE
:100F4800F5D308A8FFF7CEFC0A4B1B685C6A9DF82E
:100F58000C30002BEBD19DF829300133DBB28DF832
:100F680029309DF828209342E1D300238DF82930B9
:100F7800DDE700BF38060020F00500200008024029
:100F88000004024090050020D80600209C0500209F
:100F980082B0002100910B4B5A6C42F480425A6493
:100FA8005A6C02F480420092009A01911A6C42F045
:100FB80080521A641B6C03F080530193019B02B0AA
:100FC800704700BF0038024000B589B00023039382
:100FD8000493059306930793026803F1804303F58E
:100FE80090339A4202D009B05DF804FB00210191C8
:100FF80003F58C335A6C42F480725A645A6C02F4CA
:1010080080720192019A02911A6B42F001021A63EE
:101018001B6B03F001030293029B3023039303230A
:10102800049303A9014800F0E7FBDCE70000024055
:1010380070B58AB000230593069307930893099324
:101048000368314A934204D0304A934224D00AB00C
:1010580070BD002100912E4B5A6C42F480525A64A4
:101068005A6C02F480520092009A01911A6B42F075
:1010780002021A631B6B03F002030193019B2823EE
:10108800059302230693032308930523099305A9CF
:10109800204800F0B1FBDAE7002402941C4B5A6C9C
:1010A80042F400525A645A6C02F400520292029AB4
:1010B80003941A6B42F001021A631A6B02F00102E0
:1010C8000392039A04941A6B42F002021A631B6B90
:1010D80003F002030493049B022505950695032655
:1010E80008960523099305A90B4800F085FB4FF4E2
:1010F800005305930695079408960623099305A9B6
:10110800044800F079FBA2E70030014000340140B8
:1011180000380240000402400000024010B58AB0C6
:1011280000230593069307930893099303682C4AB1
:10113800934204D02B4A934229D00AB010BD002410
:101148000194294B1A6C42F002021A641A6C02F0DC
:1011580002020192019A02941A6B42F001021A6388
:101168001B6B03F001030293029BC0230593022328
:101178000693099305A91D4800F03EFB2246214627
:101188001D2000F011FB1D2000F01EFBD5E70024F8
:101198000394154B1A6C42F004021A641A6C02F09C
:1011A80004020392039A04941A6B42F002021A632F
:1011B8001B6B03F002030493049BC02305930223D3
:1011C8000693099305A90A4800F016FB2246214612
:1011D8001E2000F0E9FA1E2000F0F6FAADE700BF85
:1011E80000040040000800400038024000000240AF
:1011F800000402400268094B9A4200D0704782B04E
:1012080000230193064B1A6C42F008021A641B6C07
:1012180003F008030193019B02B07047000C0040E3
:1012280000380240FEE7FEE7FEE7FEE7FEE770470C
:101238007047704708B500F0A1F808BD08B5024826
:1012480001F014F908BD00BF3806002008B50248AF
:1012580001F00CF908BD00BFF005002010B50346E9
:101268000C4A0D490D48006840B10C480068034419
:10127800521A934206D8094A136010BD0748084C11
:101288000460F2E702F064F80C2303604FF0FF30CB
:10129800F3E700BF000002200004000078070020E8
:1012A800900A002070470000DFF834D0FFF7FAFFFB
:1012B8000C480D490D4A002302E0D458C4500433A9
:1012C800C4188C42F9D30A4A0A4C002301E013607F
:1012D8000432A242FBD302F04FF8FFF7DDFD70475E
:1012E8000000022000000020740500201C380008BF
:1012F800740500208C0A0020FEE7000010B50446A3
:101308000E4B1A784FF47A73B3FBF2F30C4A106859
:10131800B0FBF3F000F05CFA68B90F2C01D901209A
:101328000AE0002221464FF0FF3000F03DFA054B5D
:101338001C60002000E0012010BD00BF100000204C
:101348000C0000201400002008B50B4B1A6842F46A
:1013580000721A601A6842F480621A601A6842F4CD
:1013680080721A60032000F00DFA0F20FFF7C6FF05
:10137800FFF70EFE002008BD003C0240034A11683A
:10138800034B1B780B441360704700BF7C07002099
:1013980010000020014B1868704700BF7C07002030
:1013A80038B50446FFF7F6FF0546B4F1FF3F02D013
:1013B800044B1B781C44FFF7EDFF401BA042FAD3F7
:1013C80038BD00BF100000204A4B5A6822F4403252
:1013D8005A605A6841680A435A600268536823F49D
:1013E8008073536002685368016943EA01235360BC
:1013F8000268536823F04073536002685368816839
:101408000B4353600268936823F400639360026897
:101418009368C1680B439360826A374B9A4257D0EE
:101428000268936823F07063936002689368816A26
:101438000B4393600268936823F0405393600268FB
:101448009368C16A0B4393600268936823F00203B0
:10145800936002689368017E43EA4103936090F8C1
:101468002030002B3FD00268536843F40063536078
:101478000268536823F46043536001684B68426A0A
:10148800013A43EA42334B600268D36A23F470039B
:10149800D3620168CB6AC269013A43EA0253CB625C
:1014A8000268936823F4007393600268936890F865
:1014B800301043EA412393600268936823F4806301
:1014C800936002689368416943EA81239360704797
:1014D8000268936823F0706393600268936823F04E
:1014E80040539360B0E70268536823F40063536085
:1014F800CAE700BF002301400100000F38B310B550
:101508000446036C43B1236C13F0100F0BD0012079
:10151800002384F83C3010BDFFF756FD00236364B8
:1015280084F83C30EFE7236C23F4885323F002035C
:1015380043F0020323642046FFF746FF002060645F
:10154800236C23F0030343F001032364E0E7012045
:101558007047000030B482B00022019290F83C201D
:10156800012A00F0C0800346012280F83C200A6866
:10157800092A40D90468E06892B202EB42021E3A96
:101588004FF0070C0CFA02F220EA0202E2601C6833
:10159800E0680A8802EB42021E3A8D6805FA02F2F8
:1015A8000243E2604A68062A3CD81C68606B02EB7A
:1015B8008202053A4FF01F0C0CFA02F220EA0202EE
:1015C80062631C68606B4A6802EB8202053AB1F8F4
:1015D80000C00CFA02F2024362631868434A904260
:1015E80050D01868414A904259D0002083F83C00F6
:1015F80002B030BC70470468206992B202EB420224
:101608004FF0070C0CFA02F220EA020222611C6871
:1016180020690A8802EB42028D6805FA02F2024349
:101628002261BFE70C2A16D81D68286B02EB8202DC
:10163800233A1F2404FA02F220EA02022A631D68F0
:10164800286B4A6802EB8202233A0C8804FA02F2F9
:1016580002432A63C1E71D68E86A02EB8202413A45
:101668001F2404FA02F220EA0202EA621D68E86A0C
:101678004A6802EB8202413A0C8804FA02F20243F9
:10168800EA62AAE70A68122AABD1194A506820F41C
:1016980000005060506840F480005060A1E70A687C
:1016A8001448824201D0112A9FD1114A506820F46F
:1016B80080005060506840F40000506009680D4A8E
:1016C800914292D10C4A12680C49A1FB0212920C69
:1016D80002EB820252000192019A002A85D0019AF7
:1016E800013A0192F8E7022082E700BF002001409A
:1016F80000230140120000100C00002083DE1B4371
:10170800002807DB00F01F02400901239340024A2A
:1017180042F82030704700BF00E100E0002808DBF5
:101728000901C9B200F1604000F5614080F800137A
:10173800704700F00F000901C9B2014B19547047F6
:1017480014ED00E000B500F00700C0F1070CBCF193
:10175800040F28BF4FF0040C031D062B0FD9C31E1E
:101768004FF0FF3E0EFA0CF021EA000199400EFA04
:1017780003FE22EA0E0241EA02005DF804FB0023A0
:10178800EEE70000074AD36823F4E0631B041B0C50
:10179800000200F4E060034343F0BF6343F4003306
:1017A800D360704700ED00E010B50446054BD868DB
:1017B800C0F30220FFF7C6FF01462046FFF7AEFF41
:1017C80010BD00BF00ED00E008B5FFF799FF08BDA8
:1017D8000138B0F1807F0BD24FF0E0235861054A01
:1017E800F02182F823100020986107221A617047BF
:1017F8000120704700ED00E000230F2B00F2DA8093
:1018080030B583B068E085684FEA430E032404FAD4
:101818000EF425EA0405CC6804FA0EF42C4384601F
:10182800446824EA02044A68C2F300129A40224338
:1018380042605FE0DC08083450F8242003F0070514
:10184800AD004FF00F0E0EFA05FE22EA0E0E0A69E1
:10185800AA4042EA0E0240F824205FE0042200E099
:10186800002202FA0EF22A430234534D45F824208E
:10187800524A94686FEA0C0224EA0C05D1F804E095
:101888001EF4801F01D04CEA04054C4CA560E468A6
:1018980002EA0405D1F804E01EF4001F01D04CEA66
:1018A8000405464CE560646802EA0405D1F804E0E2
:1018B8001EF4003F01D04CEA0405404C65602468E2
:1018C80022404D6815F4803F01D04CEA04023B4C9D
:1018D800226001330F2B6BD801229A400C6804EA6E
:1018E800020C32EA0404F4D14C6804F00304013C0D
:1018F800012C88D94A6802F00302032A09D0C46877
:101908005D000322AA4024EA02048A68AA4022430E
:10191800C2604A6802F00302022A8BD004684FEAC8
:10192800430E032202FA0EF224EA02044A6802F085
:10193800030202FA0EF2224302604A6812F4403FA0
:10194800C7D0002201921E4A546C44F48044546467
:10195800526C02F480420192019A9C08A51C164A16
:1019680052F8255003F0030E4FEA8E0E0F2202FAAA
:101978000EF225EA0205134A90423FF471AF02F5D0
:10198800806290420ED002F5806290420CD002F53F
:10199800806290420AD002F5806290423FF45EAFC6
:1019A80007225EE701225CE702225AE7032258E792
:1019B80003B030BD704700BF00380140003C014013
:1019C80000380240000002400AB1816170470904F2
:1019D80081617047002800F0E08170B582B004464C
:1019E800036813F0010F3BD09F4B9B6803F00C0377
:1019F800042B2CD09C4B9B6803F00C03082B21D0A4
:101A08006368B3F5803F4FD0B3F5A02F52D0964B03
:101A18001A6822F480321A601A6822F480221A6046
:101A28006368002B50D0FFF7B5FC05468E4B1B684A
:101A380013F4003F14D1FFF7ADFC401B6428F5D91F
:101A48000320B1E1884B5B6813F4800FD8D0864B34
:101A58001B6813F4003F03D06368002B00F09F81DC
:101A6800236813F0020F54D07F4B9B6813F00C0FC0
:101A78003ED07D4B9B6803F00C03082B33D0E36802
:101A8800002B68D0794B01221A60FFF783FC0546CA
:101A9800754B1B6813F0020F54D1FFF77BFC401BFA
:101AA8000228F5D903207FE16F4A136843F4803395
:101AB8001360B5E76C4B1A6842F480221A601A6802
:101AC80042F480321A60ABE7FFF764FC0546664BC8
:101AD8001B6813F4003FC3D0FFF75CFC401B64286D
:101AE800F5D9032060E1604B5B6813F4800FC6D121
:101AF8005D4B1B6813F0020F03D0E368012B40F025
:101B08005081594A136823F0F803216943EAC10355
:101B18001360236813F0080F42D063696BB3534B0B
:101B28000122C3F8802EFFF735FC05464E4B5B6F4C
:101B380013F0020F34D1FFF72DFC401B0228F5D912
:101B4800032031E1484A136823F0F803216943EA86
:101B5800C1031360DDE7454B00221A60FFF71AFC4A
:101B68000546414B1B6813F0020FD2D0FFF712FC59
:101B7800401B0228F5D9032016E13C4B0022C3F88C
:101B8800802EFFF707FC0546374B5B6F13F0020FFB
:101B980006D0FFF7FFFB401B0228F5D9032003E11D
:101BA800236813F0040F77D02F4B1B6C13F0805F62
:101BB80033D1002301932C4B1A6C42F080521A64E3
:101BC8001B6C03F080530193019B0125284B1B6874
:101BD80013F4807F23D0A368012B34D0052B38D091
:101BE800214B1A6F22F001021A671A6F22F00402C1
:101BF8001A67A368002B3DD0FFF7CCFB06461A4BAB
:101C08001B6F13F0020F46D1FFF7C4FB801B41F294
:101C180088339842F3D90320C6E00025D6E7144A52
:101C2800136843F480731360FFF7B4FB0646104B48
:101C38001B6813F4807FCED1FFF7ACFB801B022812
:101C4800F5D90320B0E0084A136F43F00103136786
:101C5800CFE7054B1A6F42F004021A671A6F42F079
:101C680001021A67C5E700BF00380240000047427A
:101C780000700040FFF78EFB0646524B1B6F13F0B7
:101C8800020F08D0FFF786FB801B41F28833984289
:101C9800F3D9032088E0EDB9A369002B00F0838015
:101CA800484A926802F00C02082A51D0022B17D039
:101CB800454B00221A66FFF76DFB0446414B1B6833
:101CC80013F0007F42D0FFF765FB001B0228F5D90F
:101CD800032069E03B4A136C23F080531364DBE76D
:101CE800394B00221A66FFF755FB0546354B1B6832
:101CF80013F0007F06D0FFF74DFB401B0228F5D9F3
:101D0800032051E0E369226A1343626A43EA8213BB
:101D1800A26A5208013A43EA0243E26A43EA0263CA
:101D2800284A5360284B01221A66FFF733FB044602
:101D3800244B1B6813F0007F06D1FFF72BFB001B19
:101D48000228F5D903202FE000202DE000202BE009
:101D5800012B2BD01B4B5B6803F48001E269914295
:101D680026D103F03F02216A8A4223D1616A47F6ED
:101D7800C0721A40B2EB811F1ED103F44031A26A2F
:101D88005208013AB1EB024F18D103F07063E26ACE
:101D9800B3EB026F14D1002006E001207047012048
:101DA80002E0012000E0002002B070BD0120FBE746
:101DB8000120F9E70120F7E70120F5E70120F3E723
:101DC8000120F1E7003802400000474208B5264BE1
:101DD8009B6803F00C03042B41D0082B41D1224B04
:101DE8005A6802F03F025B6813F4800F12D01E4B52
:101DF8005968C1F388111D480023A1FB0001FEF7B3
:101E0800A3FB194B5B68C3F3014301335B00B0FBD1
:101E1800F3F008BD144B5868C0F388104FEA401C13
:101E2800BCEB000C6EEB0E0E4FEA8E1343EA9C637C
:101E38004FEA8C11B1EB0C0163EB0E03DB0043EAB4
:101E48005173C90011EB000C43F100039902002300
:101E58004FEA8C2041EA9C51FEF776FBD1E7034814
:101E6800D7E70348D5E700BF0038024040787D0136
:101E78000024F400002800F09B8070B50D4604464D
:101E88004F4B1B6803F007038B4208D2CBB24C4A76
:101E98001370136803F007038B4240F08B802368AC
:101EA80013F0020F17D013F0040F04D0454A9368BB
:101EB80043F4E0539360236813F0080F04D0414AB9
:101EC800936843F4604393603E4A936823F0F003B9
:101ED800A1680B439360236813F0010F32D0636845
:101EE800012B21D09A1E012A25D9364A126812F0F0
:101EF800020F61D033498A6822F0030213438B60D2
:101F0800FFF748FA06462F4B9B6803F00C036268FC
:101F1800B3EB820F16D0FFF73DFA801B41F28833EE
:101F28009842F0D9032042E0264A126812F4003F92
:101F3800E0D101203BE0234A126812F0007FD9D19A
:101F4800012034E01E4B1B6803F00703AB4207D99E
:101F5800EAB21B4B1A701B6803F00703AB422DD182
:101F6800236813F0040F06D0164A936823F4E0534D
:101F7800E1680B439360236813F0080F07D0114AF8
:101F8800936823F46043216943EAC1039360FFF730
:101F98001DFF0C4B9B68C3F303130B4AD35CD8405B
:101FA8000A4B18600A4B1868FFF7A8F9002070BDA3
:101FB800012070470120FAE70120F8E70120F6E741
:101FC800003C024000380240F83700080C000020AE
:101FD800140000202DE9F04782B0054688461746D0
:101FE8001E46FFF7D7F90A9B1B1A03EB0609FFF7F2
:101FF800D1F98246284B1B68C3F3CB3309FB03F3A3
:1020080001932B689C6838EA04040CBF0123002361
:10201800BB423DD0B6F1FF3FF3D0FFF7BBF9A0EBD1
:102028000A00484507D2019A02B14A46019B013B82
:1020380001939146E5E72A68536823F0E00353606B
:102048006B68B3F5827F0BD0AB6AB3F5005F14D031
:10205800012385F85130002385F85030032018E01B
:10206800AB68B3F5004F02D0B3F5806FECD12A68A6
:10207800136823F040031360E6E72A68136823F423
:10208800005313602A68136843F400531360DFE7B2
:10209800002002B0BDE8F0870C00002070B584B0C5
:1020A80004460D46164600920B4601220221FFF710
:1020B80091FFD0B9174B1B68174AA2FB03235B0D8E
:1020C8004FF47A7202FB03F303936368B3F5827FDC
:1020D80011D0039B3BB1039B013B039323689B688F
:1020E80013F0800FF5D104B070BD636D43F0200389
:1020F80063650320F7E700962B46002280212046DF
:10210800FFF768FF0028EED0636D43F02003636596
:102118000320E8E70C000020819F5E1600285AD0B3
:1021280010B50446436A33B94368B3F5827F05D0D6
:102138000023C36102E00023036143610023A3621B
:1021480094F85130002B40D0022384F85130226893
:10215800136823F040031360636803F48273A26872
:1021680002F404421343E26802F400621343226952
:1021780002F002021343626902F001021343A269EA
:1021880002F400721343E26902F038021343226A30
:1021980002F080021343A26A02F40052216813433A
:1021A8000B60638B03F00403626A02F0100221687B
:1021B80013434B602268D36923F40063D361002082
:1021C8006065012384F8513010BD84F850302046F2
:1021D800FEF72EFFB8E7012070472DE9F04383B0E2
:1021E8000446894690461D46FFF7D4F894F8516096
:1021F800F6B2012E40F0CC800746B9F1000F00F08E
:10220800C880B8F1000F00F0C48094F85030012B5A
:1022180000F0C380012384F85030032384F8513040
:1022280000236365C4F83090A4F83480A4F836809D
:10223800A363A387E38763642364A368B3F5004FAC
:102248001ED023681A6812F0400F03D11A6842F0B2
:1022580040021A60E368B3F5006F1CD0636813B1DD
:10226800B8F1010F5FD1226B236812781A73236BC0
:1022780001332363E38E9BB2013B9BB2E38652E0BA
:102288002268136823F0400313602268136843F43C
:1022980080431360D5E7636813B1B8F1010F15D116
:1022A800226B23681288DA60236B02332363E38E80
:1022B8009BB2013B9BB2E38608E0FFF76BF8C01BBB
:1022C800A84202D3B5F1FF3F15D1A5B1E38E9BB269
:1022D800002B42D023689A6812F0020FEDD0226BCF
:1022E8001288DA60236B02332363E38E9BB2013BCF
:1022F8009BB2E386EAE7012384F85130002384F88F
:102308005030032645E0226B12781A73236B013391
:102318002363B4F836C01FFA8CFC0CF1FF3C1FFA9B
:102328008CFCA4F836C0E38E9BB2B3B123689A68DC
:1023380012F0020FE7D1FFF72DF8C01BA84202D315
:10234800B5F1FF3F01D1002DEDD1012384F85130C3
:10235800002384F8503003261BE03A4629462046DD
:10236800FFF79CFE08B120236365A36833B9019386
:102378002368DA6801929B680193019B012384F822
:102388005130002384F85030636D13B9002600E003
:102398000226304603B0BDE8F0830226F9E710B400
:1023A800036A046A24F001040462846924F0F00CCE
:1023B8004CEA021223F00A030B438261036210BC49
:1023C800704710B4036A046A24F010040462846934
:1023D80024F4704C4CEA023223F0A00343EA0113C0
:1023E8008261036210BC7047836823F070030B435B
:1023F80043F007038360704790F83D30DBB2012B50
:102408002AD1022380F83D300368154A934218D038
:10241800B3F1804F15D0A2F57C42934211D002F55A
:10242800806293420DD002F58062934209D002F592
:102438009A32934205D01A6842F001021A600020CD
:1024480070479A6802F00702062A07D01A6842F015
:1024580001021A6000207047012070470020704771
:1024680000000140704770477047704770B50446D8
:102478000368DE681D6915F0020F10D016F0020F10
:102488000DD06FF002021A610123037703689B697C
:1024980013F0030F5ED0FEF7A3FB0023237715F09C
:1024A800040F12D016F0040F0FD023686FF0040247
:1024B8001A610223237723689B6913F4407F4FD066
:1024C8002046FEF78DFB0023237715F0080F12D066
:1024D80016F0080F0FD023686FF008021A61042362
:1024E80023772368DB6913F0030F40D02046FEF7FB
:1024F80077FB0023237715F0100F12D016F0100F7A
:102508000FD023686FF010021A610823237723681D
:10251800DB6913F4407F31D02046FEF761FB0023CE
:10252800237715F0010F02D016F0010F2DD115F009
:10253800800F02D016F0800F2FD115F0400F02D077
:1025480016F0400F31D115F0200F02D016F0200FF1
:1025580033D170BDFFF787FF2046FFF785FF9CE763
:102568002046FFF780FF2046FFF77EFFABE72046B7
:10257800FFF779FF2046FFF777FFBAE72046FFF716
:1025880072FF2046FFF770FFC9E723686FF001026A
:102598001A612046FFF766FFC9E723686FF08002DB
:1025A8001A61204600F043FAC7E723686FF040023B
:1025B8001A612046FFF759FFC5E723686FF020022C
:1025C8001A61204600F032FAC3E700000368294A7E
:1025D80090420ED0B0F1804F0BD0A2F57C429042D1
:1025E80007D002F58062904203D002F580629042E3
:1025F80003D123F070034A6813431E4A90421AD04D
:10260800B0F1804F17D0A2F57C42904213D002F56A
:10261800806290420FD002F5806290420BD002F5A2
:102628009A32904207D002F58062904203D002F5B8
:102638008062904203D123F44073CA68134323F0A5
:1026480080034A69134303608B68C3620B68836223
:10265800084B98420AD001234361036913F0010F24
:1026680003D0036923F00103036170470B69036317
:10267800F1E700BF0000014040B310B5044690F8F0
:102688003D30F3B1022384F83D30214651F8040B64
:10269800FFF79CFF012384F8463084F83E3084F825
:1026A8003F3084F8403084F8413084F8423084F870
:1026B800433084F8443084F8453084F83D300020B5
:1026C80010BD80F83C30FEF795FDDBE70120704730
:1026D800002856D070B50D46044690F83D30002BC2
:1026E8004AD0022384F83D302268936823F480435B
:1026F80023F007039360214651F8040BFFF766FFA8
:1027080021688B688A690E6A2868184322F4407227
:1027180022F00302AB68D5F818C043EA0C23134330
:1027280023F47C4323F0FC03EA68D5F81CC042EA92
:102738000C221A432B6A1B03D5F810C043EA0C136A
:10274800134326F0AA066A686D6942EA0512324305
:10275800886021688B6123681A62012384F84630F7
:1027680084F83E3084F83F3084F8423084F84330AF
:1027780084F83D30002070BD80F83C30FEF7CEFC78
:10278800AFE70120704710B4846824F47F4C42EA14
:1027980003220A4342EA0C02826010BC704790F898
:1027A8003C30012B78D010B50446012380F83C302A
:1027B800022380F83D300268936823F47F4323F0B6
:1027C800770393600B68602B4CD023D8402B54D0F0
:1027D80011D8202B03D00AD80BB1102B05D11946DC
:1027E8002068FFF701FE002028E0012026E0302BBA
:1027F800F5D0012022E0502B0AD1CA684968006848
:10280800FFF7CDFD50212068FFF7EEFD002015E011
:10281800012013E0B3F5805F3AD0B3F5005F14D020
:10282800702B37D1CB684A6889680068FFF7ABFF1F
:102838002268936843F0770393600020012384F8AB
:102848003D30002384F83C3010BDCB684A68896865
:102858000068FFF798FF2268936843F48043936009
:102868000020EBE7CA6849680068FFF7AAFD602105
:102878002068FFF7B9FD0020E0E7CA6849680068EA
:10288800FFF78DFD40212068FFF7AEFD0020D5E75A
:102898000020D3E70120D1E70220704701F01F0193
:1028A8004FF0010C0CFA01FC036A23EA0C030362E3
:1028B800036A8A4013430362704738B5044690F8A8
:1028C8003E00C0B294F83F3094F84220D2B294F857
:1028D80043C00D4609BB01285ED1012A5DD1022300
:1028E80084F83E3084F84230002D39D0042D48D089
:1028F800012200212068FFF7D1FF0122042120686E
:10290800FFF7CCFF2268D36843F00203D360226844
:10291800D36843F00403D3602CE0DBB25FFA8CFC8D
:10292800042912D001283DD1012B36D1012A3BD1EF
:10293800BCF1010F3AD1022384F83E3084F83F30CD
:1029480084F8423084F84330CEE7012B26D1BCF11D
:10295800010F25D1022384F83F3084F84330C3E7C0
:10296800012200212068FFF799FF2268D36843F00D
:102978000203D3602268136843F001031360002048
:102988000BE0012204212068FFF788FF2268D36842
:1029980043F00403D360EDE7012038BD0120FCE7D4
:1029A8001846FAE70120F8E71846F6E71046F4E774
:1029B80090F83C20012A34D010B40346012280F854
:1029C8003C20022280F83D2002685068946820F07C
:1029D800700C086840EA0C0050601A68124882427D
:1029E80012D0B2F1804F0FD0A0F57C4082420BD0BC
:1029F80000F58060824207D000F58060824203D0F3
:102A080000F59A30824204D124F0800449682143B9
:102A18009160012283F83D20002083F83C0010BC1F
:102A280070470220704700BF0000014070477047A0
:102A38002DE9F047089D0E4604460F46002B4AD163
:102A480094468C45B2FA82F260D942B1C2F12003B1
:102A5800974020FA03F30CFA02FC1F4394404FEA14
:102A68001C4E1FFA8CF6B7FBFEF1230C0EFB1177F8
:102A780043EA074301FB06F098420AD91CEB03031B
:102A880001F1FF3780F01581984240F21281023936
:102A980063441B1AA4B2B3FBFEF00EFB103344EAE6
:102AA800034400FB06F6A6420AD91CEB040400F115
:102AB800FF3380F00081A64240F2FD806444023872
:102AC80040EA0140A41B00211DB1D4400023C5E900
:102AD8000043BDE8F0878B4205D90DB1C5E9000177
:102AE80000210846F5E7B3FA83F1002946D1B3423D
:102AF80002D3824200F2F580841A66EB03020120B9
:102B08001746002DE5D0C5E90047E2E7002A40F066
:102B18009380A1EB0C034FEA1C471FFA8CFE01219E
:102B2800B3FBF7F607FB1630230C43EA00430EFB12
:102B380006F0984208D91CEB030306F1FF3802D2CD
:102B4800984200F2D08046461B1AA4B2B3FBF7F0B5
:102B580007FB103344EA03440EFB00FEA64508D9E0
:102B68001CEB040400F1FF3302D2A64500F2B68044
:102B78001846A4EB0E0440EA0640A5E7C1F1200779
:102B88008B4022FA07FC4CEA030C06FA01FE20FAF5
:102B980007F426FA07F344EA0E0400FA01F84FEAAC
:102BA8001C404FEA1449B3FBF0FE1FFA8CF600FBF9
:102BB8001E3349EA03430EFB06F9994502FA01F26E
:102BC8000BD91CEB03030EF1FF3A80F08580994581
:102BD80040F28280AEF1020E6344A3EB0909A4B26D
:102BE800B9FBF0F300FB139944EA094403FB06F62A
:102BF800A64208D91CEB040403F1FF3068D2A642B0
:102C080066D9023B644443EA0E40A41BA0FB02E6DB
:102C1800B4427346B14652D34FD05DB1B8EB03020C
:102C280064EB090404FA07F722FA01F31F43CC40C6
:102C3800C5E9007400214CE7C2F1200120FA01F334
:102C48000CFA02FC26FA01F1964033434FEA1C477E
:102C58001FFA8CFEB1FBF7F007FB1016190C41EABE
:102C6800064100FB0EF68E4204FA02F408D91CEB6A
:102C7800010100F1FF382DD28E422BD90238614470
:102C8800891B9BB2B1FBF7F607FB161143EA014318
:102C980006FB0EF1994208D91CEB030306F1FF3835
:102CA80014D2994212D9023E63445B1A46EA0041A3
:102CB80036E73946EDE6184602E7F045ADD2BEEBF9
:102CC800020366EB0C060138B146A6E74646ECE778
:102CD800034698E74046D3E7D6467EE76444023881
:102CE80047E708460DE7023E63442DE7024B0146DD
:102CF800186800F00BB800BF28040020024B0146FA
:102D0800186800F0D1BB00BF280400202DE9F04F5F
:102D180001F10B05162D83B0064623D8102900F2C1
:102D2800AF8000F0A5FA102518230220B74F3B44C6
:102D3800A3F108025C68944200F01F816368E268AE
:102D4800A16823F00303CA602344304691605A689F
:102D580042F001025A6000F091FA0834204603B0AC
:102D6800BDE8F08F35F0070500F18A80A94200F22E
:102D7800878000F07DFAB5F5FC7FC0F06E816B0AA4
:102D880000F08280042B00F21E81AB0903F13900A8
:102D980003F1380EC3009D4F3B44A3F1080C5C6857
:102DA800A44507D10DE0002AE16880F2E0808C4557
:102DB80007D00C46636823F003035A1B0F2AF2DD81
:102DC8007046DFF84C823C69444500F0BD8063687A
:102DD80023F0030CACEB05030F2B00F34281002B0F
:102DE800C7E9048880F22D81BCF5007FD7F804E09C
:102DF80080F0C9804FEADC0101314FEA5C1C0123F5
:102E080003FA0CF357F83120A2604EEA030E07EBE1
:102E1800C103083BE360C7F804E047F83140D460D9
:102E280083104FF0010C0CFA03FCF44532D81CEA6D
:102E38000E0F08D120F003004FEA4C0C1CEA0E0FCD
:102E480000F10400F8D007EBC00AD6468146DEF848
:102E58000C300BE0596821F003014A1B0F2A1C466D
:102E6800DB6800F3BC80002A80F2DE809E45F1D149
:102E780009F1010919F0030F0EF1080EE7D119E164
:102E88000C233360002469E74FF4007340204FF0AF
:102E98003F0E80E7BC68636823F00309A94503D3A4
:102EA800A9EB05030F2B52DC5A4B1B68082003F1D2
:102EB800100804EB0903009300F050FA564A13680F
:102EC8000133A844834605D008F1FF3880444342C3
:102ED80003EA08084146304600F028FAB0F1FF3FFF
:102EE8004D4A824600F0D88004EB0903834200F281
:102EF800D1804A4B186840440BF1FF311860844672
:102F080040F0FB801AEA010F40F0F780D7F808A0DC
:102F1800C84448F00102CAF80420414B19688142AC
:102F280038BF18603F4B1968814238BF1860544653
:102F380022F00308A845A8EB050301D30F2B06DCF4
:102F4800304600F09BF99DE7D7F804E068E762197E
:102F580043F0010345F0010565603046BA605360EF
:102F680000F08CF90834204603B0BDE8F08FA26861
:102F78002344D16030468A60E9E6DC68A3427FF4E6
:102F8800DDAE02301DE7BCF5206F4FEA5C227AD334
:102F9800142A00F2128102F15C03DB005B32F9189B
:102FA800FB580839994203D1ECE09B68994204D058
:102FB8005A6822F003026245F7D8D968C4E9023199
:102FC8008C60DC602CE7142B69D9542B00F2FE804E
:102FD8002B0B03F16F0003F16E0EC300DBE6D4F890
:102FE80008C03046661945F001056560CCF80C301C
:102FF800C3F808C042F00103C7E90466C6E90288BD
:103008007360625000F03AF90834A7E62000002007
:1030180028000020B00700201800002080070020AA
:10302800AC070020A8070020214430464A6842F037
:1030380001024A6054F8082FD3609A6000F01EF924
:103048008CE6A4443046DCF8043043F00103CCF8A5
:10305800043000F013F9083480E6E80805F10803A5
:1030680064E6621943F0010145F0010565603046E8
:10307800C7E90422C2E90288516044F80C3000F024
:10308800FDF808346AE64FEA9C1202F13903DB00C6
:10309800383284E7BC4228D0BC68626848E703F14C
:1030A8005C0003F15B0EC30075E65AF80839534516
:1030B80040F0DA8010F0030F00F1FF30F5D17B68A3
:1030C80023EA0C037B604FEA4C0C9C453FF6E2AECA
:1030D800BCF1000F04D1DDE64FEA4C0C09F10409FC
:1030E8001CEA030FF8D04846ADE6604B186808EBB9
:1030F800000C0BF1FF31C3F800C0106801306FD02D
:1031080004EB0902AAEB020262441A601AF00702F1
:10311800CDE9002340D0C2F108029244D04408EA25
:1031280001005A44121A02EA010B5946304600F0CF
:10313800FDF8421C019B6FD0A0EB0A0000EB0B08C6
:103148001868C7F808A048F001025844BC42CAF8F9
:10315800042018603FF4E1AEB9F10F0F43D961685C
:10316800A9F10C0222F0070201F00101114361608C
:103178004FF0050CA1180F2AC1E901CC54D8DAF890
:103188000420CAE692104FF0010C0CFA02F24EEA43
:10319800020EC7F804E011E70AEB08020A40ABEB9D
:1031A800020202EA010B5946304600F0BFF8431C00
:1031B800019BC1D1DDF800B0C2E7542A17D84FEA05
:1031C8001C3202F16F03DB006E32E8E6B3F5AA7F2A
:1031D80017D8EB0B03F1780003F1770EC300DAE59B
:1031E800C2F800A092E70123CAF80430A8E6B2F5B5
:1031F800AA7F24D84FEADC3202F17803DB00773269
:10320800CDE640F25452934224D8AB0C03F17D0032
:1032180003F17C0EC300BEE5009A083A9044A8EB7F
:103228000A084FF0000B8BE7304604F108010093C1
:1032380000F03AF9009BD7F808A018689FE740F219
:1032480054539A420CD84FEA9C4202F17D03DB00AA
:103258007C32A4E64FF47E737F204FF07E0E9AE511
:103268004FF47E737E229AE67B682CE78007002065
:10327800014800F0A9B800BFEC080020014800F0A0
:10328800A5B800BFEC080020830730B547D0541E0E
:10329800002A3ED0CAB2034601E0013C39D303F804
:1032A800012B9D07F9D1032C2CD9CDB205EB0525AF
:1032B8000F2C05EB054535D9A4F1100222F00F0CAF
:1032C80003F1100EE6444FEA121C1A46C2E90055F3
:1032D800C2E9025510327245F8D10CF1010214F01E
:1032E8000C0F03EB021204F00F0C13D0ACF1040323
:1032F80023F003030433134442F8045B9342FBD1E5
:103308000CF003042CB1C9B21C4403F8011BA342FE
:10331800FBD130BD64461346002CF4D1F9E70346CF
:103328001446C0E71A46A446E0E700BF38B5074D83
:103338000022044608462A60FDF790FF431C00D08F
:1033480038BD2B68002BFBD0236038BDF80800205F
:10335800014B1868704700BF28040020082802D1D4
:103368004FF48050704708B5FFF7F2FF162303604B
:103378004FF0FF3008BD00BF70B50F4B0F4DAB428B
:10338800A3EB050607D0B610002455F8043B01341A
:103398009847A642F9D800F01FFA094D094B5E1B61
:1033A800AB424FEAA60606D0002455F8043B013488
:1033B8009847A642F9D870BD1038000810380008A0
:1033C8001038000818380008704700BF704700BF61
:1033D800024B13B1024800F005B870470000000026
:1033E800A9360008002301461A46184600F06CB9B1
:1033F8002DE9F843064608208946FFF7AFFFDFF8B6
:103408009C8005463046FFF733FFD8F808305F68E0
:1034180027F00307A7F11104A4EB09042C44B4FB1B
:10342800F5F4013C05FB04F4A54208DC0021304614
:10343800FFF77CFFD8F808303B44984205D0304667
:10344800FFF71CFF0020BDE8F88361423046FFF714
:103458006DFF01300FD0124AD8F808303F1B47F0F3
:1034680001075F60136830461B1B1360FFF706FFF8
:103478000120BDE8F88300213046FFF757FFD8F850
:103488000820831A0F2BDADD43F001035360054B44
:1034980003491B68C01A0860D1E700BF200000205C
:1034A800800700201800002000297CD0F8B50C46C1
:1034B8000646FFF7DDFE54F8043C764FA4F10805F4
:1034C80023F001016818D7F808C04268844522F043
:1034D800030200F08380DB07426000EB020C33D468
:1034E80054F8084CDCF804302D1B2144AC6807F173
:1034F800080C644503F0010364D0D5F80CE0C4F867
:103508000CE0CEF80840002B00F0818041F0010368
:103518006B600160B1F5007F22D27868CB08012288
:10352800490901338A40024357F833107A6007EBA0
:10353800C302083AC5E9021247F83350CD60304655
:10354800BDE8F840FFF79ABEDCF80430DB072BD55E
:1035580041F00103B1F5007F44F8043C0160DCD37D
:10356800B1F5206F4FEA512353D28B0903F139008B
:1035780003F13802C300F818FB580838984203D101
:1035880061E09B68984204D05A6822F003028A429C
:10359800F7D8D868C5E902308560DD603046BDE8F7
:1035A800F840FFF76BBE7047114407F1080C8368B9
:1035B80063453FD0C268DA60936041F001036B60F5
:1035C8006950A7E7002B5FD10A44D0E90213CB600A
:1035D800996042F001036B60AA50B0E70A44D9072A
:1035E80007D454F8083CED1A1A44D5E90213CB6005
:1035F800996042F001036B60274BBD601B689342E2
:103608009DD8264B30461968FFF7F2FE97E711441C
:10361800CDE7142B08D9542B1DD80B0B03F16F00E1
:1036280003F16E02C300A6E703F15C0003F15B023D
:10363800C300A0E741F00103C7E90455C5E902CC7E
:103648006B6069507BE779689210012404FA02F2F2
:103658000A437A609EE7B3F5AA7F06D8CB0B03F13D
:10366800780003F17702C30085E740F25452934291
:1036780006D88B0C03F17D0003F17C02C3007AE7C6
:103688004FF47E737E2276E741F001036B600160A0
:1036980055E700BF200000201C000020B0070020D4
:1036A80038B5074D074C2C1BA41005D0013C55F824
:1036B800043D9847002CF9D1BDE8384000F092B895
:1036C8001C380008183800082DE9F8431B4D064639
:1036D800286898460F469146FFF776FE184B1C68F7
:1036E8001CB3286865681F2D22DC4EB96B1C023597
:1036F800636044F82570FFF769FE0020BDE8F88391
:1037080004EB85010123C1F88890D4F88821AB40E7
:103718001A43022EC4F88821C1F80881E6D1D4F8EA
:103728008C211A43C4F88C21E0E7064C1C60D8E7CA
:10373800FFF74CFE4FF0FF30E0E700BF70050020B8
:10374800F4080020FC080020F8B514461D4606467B
:103758000F4600F015F810B920462946F8BD204656
:10376800294600F00DF838B122462B463046394636
:10377800FCF764FF0028EFD030463946F8BD00BF9B
:103788000B46002B0BD0B3F1004F08D0104923F0A3
:103798000042A2F5801C8C4506D8042070470028FA
:1037A8000CBF022003207047B3F5801F0DD303F12F
:1037B8000043B3F5801F08D3064B9A4201D000207E
:1037C8007047B0FA80F0400970470320704700BF87
:1037D800FFFFDF7F0000F07FF8B500BFF8BC08BC32
:1037E8009E467047F8B500BFF8BC08BC9E467047B7
:1037F8000000000000000000010203040607080999
:0838080030F2FF7F0100000017
:08381000D9330008FD06000891
:04381800D5060008C9
:10381C005300F9004C01F201980291030024F400CA
:10382C000100000010000000FFFFFFFF000002007D
:10383C0000000000000000002000002020000020FC
:10384C00280000202800002030000020300000203C
:10385C0038000020380000204000002040000020EC
:10386C00480000204800002050000020500000209C
:10387C00580000205800002060000020600000204C
:10388C0068000020680000207000002070000020FC
:10389C0078000020780000208000002080000020AC
:1038AC00880000208800002090000020900000205C
:1038BC009800002098000020A0000020A00000200C
:1038CC00A8000020A8000020B0000020B0000020BC
:1038DC00B8000020B8000020C0000020C00000206C
:1038EC00C8000020C8000020D0000020D00000201C
:1038FC00D8000020D8000020E0000020E0000020CC
:10390C00E8000020E8000020F0000020F00000207B
:10391C00F8000020F8000020000100200001002029
:10392C0008010020080100201001002010010020D7
:10393C001801002018010020200100202001002087
:10394C002801002028010020300100203001002037
:10395C0038010020380100204001002040010020E7
:10396C004801002048010020500100205001002097
:10397C005801002058010020600100206001002047
:10398C0068010020680100207001002070010020F7
:10399C0078010020780100208001002080010020A7
:1039AC008801002088010020900100209001002057
:1039BC009801002098010020A0010020A001002007
:1039CC00A8010020A8010020B0010020B0010020B7
:1039DC00B8010020B8010020C0010020C001002067
:1039EC00C8010020C8010020D0010020D001002017
:1039FC00D8010020D8010020E0010020E0010020C7
:103A0C00E8010020E8010020F0010020F001002076
:103A1C00F8010020F8010020000200200002002024
:103A2C0008020020080200201002002010020020D2
:103A3C001802002018020020200200202002002082
:103A4C002802002028020020300200203002002032
:103A5C0038020020380200204002002040020020E2
:103A6C004802002048020020500200205002002092
:103A7C005802002058020020600200206002002042
:103A8C0068020020680200207002002070020020F2
:103A9C0078020020780200208002002080020020A2
:103AAC008802002088020020900200209002002052
:103ABC009802002098020020A0020020A002002002
:103ACC00A8020020A8020020B0020020B0020020B2
:103ADC00B8020020B8020020C0020020C002002062
:103AEC00C8020020C8020020D0020020D002002012
:103AFC00D8020020D8020020E0020020E0020020C2
:103B0C00E8020020E8020020F0020020F002002071
:103B1C00F8020020F802002000030020000300201F
:103B2C0008030020080300201003002010030020CD
:103B3C00180300201803002020030020200300207D
:103B4C00280300202803002030030020300300202D
:103B5C0038030020380300204003002040030020DD
:103B6C00480300204803002050030020500300208D
:103B7C00580300205803002060030020600300203D
:103B8C0068030020680300207003002070030020ED
:103B9C00780300207803002080030020800300209D
:103BAC00880300208803002090030020900300204D
:103BBC009803002098030020A0030020A0030020FD
:103BCC00A8030020A8030020B0030020B0030020AD
:103BDC00B8030020B8030020C0030020C00300205D
:103BEC00C8030020C8030020D0030020D00300200D
:103BFC00D8030020D8030020E0030020E0030020BD
:103C0C00E8030020E8030020F0030020F00300206C
:103C1C00F8030020F803002000040020000400201A
:103C2C0008040020080400201004002010040020C8
:103C3C0018040020180400203004002000000000AC
:103C4C0000000000B40700201C080020840800209D
:103C5C000000000000000000000000000000000058
:103C6C000000000000000000000000000000000048
:103C7C000000000000000000000000000000000038
:103C8C000000000000000000000000000000000028
:103C9C000000000000000000000000000000000018
:103CAC000000000000000000000000000000000008
:103CBC0000000000000000000000000000000000F8
:103CCC0000000000000000000000000000000000E8
:103CDC0000000000000000000100000000000000D7
:103CEC000E33CDAB34126DE6ECDE05000B0000009C
:103CFC0000000000000000000000000000000000B8
:103D0C0000000000000000000000000000000000A7
:103D1C000000000000000000000000000000000097
:103D2C000000000000000000000000000000000087
:103D3C000000000000000000000000000000000077
:103D4C000000000000000000000000000000000067
:103D5C000000000000000000000000000000000057
:103D6C000000000000000000000000000000000047
:103D7C000000000000000000000000000000000037
:043D8C00F00800201B
:04000005080012B12C
:00000001FF
