:020000040800F2
:1000000000000220290D0008A50C0008A70C00081C
:10001000A90C0008AB0C0008AD0C000800000000A3
:10002000000000000000000000000000AF0C00080D
:10003000B10C000800000000B30C0008B50C00086B
:10004000790D0008790D0008790D0008790D000878
:10005000790D0008BD0C0008790D0008790D000825
:10006000790D0008790D0008790D0008790D000858
:10007000790D0008790D0008790D0008790D000848
:10008000790D0008790D0008790D000800000000C6
:10009000000000000000000000000000790D0008D2
:1000A000790D0008790D0008790D0008790D000818
:1000B000790D0008790D0008790D0008790D000808
:1000C000790D0008790D0008790D0008790D0008F8
:1000D000790D0008C10C0008790D0008000000002F
:1000E000790D0008790D0008790D00080000000066
:1000F000000000000000000000000000790D000872
:1001000000000000790D0008790D0008790D000845
:1001100000000000000000000000000000000000DF
:10012000790D0008790D0008790D0008790D000897
:10013000790D000800000000000000000000000031
:10014000000000000000000000000000790D000821
:10015000790D0008790D0008790D0008790D000867
:10016000790D0008790D0008000000000000000073
:10017000000000000000000000000000000000007F
:1001800000000000790D00080000000000000000E1
:08019000790D0008790D00084B
:1001980053B94AB9002908BF00281CBF4FF0FF31E6
:1001A8004FF0FF3000F00CB8ADF1080C6DE904CE4B
:1001B80002F0F6F9DDF804E0DDE9022304B0704747
:1001C800704700BF0348044B834202D0034B03B17E
:1001D800184770476C0500206C05002000000000DF
:1001E8000548064B1B1AD90F01EBA301491002D091
:1001F800034B03B1184770476C0500206C050020BD
:100208000000000010B5064C237843B9FFF7DAFF69
:10021800044B13B10448AFF300800123237010BDD1
:100228006C05002000000000C032000808B5054B2E
:100238001BB105490548AFF30080BDE80840FFF74A
:10024800CFBF00BF0000000070050020C0320008CA
:1002580010B50446806808B102F008FB00236380EB
:100268002380A380012010BD38B505460C46FFF752
:10027800EFFF204602F0F2FAA86060B1002305E023
:10028800AA684FF0000C02F803C001339C42F7D86B
:10029800AC80012038BD0020FCE7B0F800C00CF1AC
:1002A80001038288013A1340428893420DD0836843
:1002B8000A7803F80C20038801339BB203808288F4
:1002C800013A1340038001207047002070470288DC
:1002D80043889A420CD08268D35C0B704388013300
:1002E8009BB243808288013A1340438001207047C3
:1002F8000020704708B54FF480610748FFF7B4FF46
:1003080038B1064B002058709870D8701871587121
:1003180008BD4FF0FF30FBE78C0500209805002052
:1003280008B501460348FFF7B8FF012814BF0020AD
:10033800012008BD8C05002008B504490448FFF7D2
:10034800C6FF012814BF0020012008BD8805002031
:100358008C0500204B4B1B7803F0F00203F00F01D3
:100368005FEAD31C08D1484A1278013A032A6DD8AB
:10037800DFE802F051687280F02A0FD0B02A32D03C
:100388001CD9C02A38D0E02A3FD13F4B03225A70EB
:10039800027001221A704170997057E029B107293B
:1003A80054D1394B04221A7050E0374B04225A704A
:1003B80002700022DA7003221A7047E0802A09D0FE
:1003C800902A22D1304B01225A7002701A70417063
:1003D80099703BE02C4B02225A70027001221A706D
:1003E8004170997032E0284B05225A700270012240
:1003F8001A704170997029E0234B06225A700270D6
:1004080001221A704170997020E01F4A002353702E
:10041800037013701AE083701B4B5A78531EDBB2BB
:10042800022B07D9052A05D0062A07D0164B002229
:100438001A700BE0144B02221A7007E0124B0422C8
:100448001A7003E0C370104B04221A700E4B1B780D
:10045800042B14D0002070470B49CA7802F1010C14
:1004680081F803C002449370CB781F2BEED9042285
:100478000A70EBE78370044B02221A70E6E701204A
:10048800704700BF88050020A005002010B504466D
:10049800FFF752FF28B12046FFF75CFF0028F7D08E
:1004A800012010BDA0B110B586460B4B00241C607E
:1004B8005C609C60DC601C615C619C46BEE80F006F
:1004C800ACE80F00DEF80030CCF80030204610BD54
:1004D8004FF0FF30704700BFA40500201B4B5B782E
:1004E80093B1012B0ED01020012817D002281DD05F
:1004F800032823D0164B0B604FF480638B800423B2
:100508008B717047114B187D0028EDD1114B0B6092
:100518004FF480538B8000238B7170470D4B0B6019
:100528004FF400538B8001238B717047094B0B608C
:100538004FF480438B8002238B717047054B0B600F
:100548004FF400438B8003238B717047A405002070
:10055800000802400004024000B583B00F4B1B782E
:1005680073B9437813B103B05DF804FB00224FF46C
:1005780080510B4800F026FE0A2000F04DFCF2E7FF
:1005880069464078FFF7AAFF0022BDF804100098DA
:1005980000F018FE0A2000F03FFCE4E7A405002064
:1005A8000004024010B584B00446C378ABB1254BB3
:1005B8005B78012B14D0234B1B78FBB96378FBB90C
:1005C800204B9B7883B101224FF480511E4800F0E4
:1005D800F9FD0A2000F020FC12E0FFF7BDFF0FE054
:1005E800184B00221A75E6E700224FF4805116488E
:1005F80000F0E8FD0A2000F00FFCE4E7012B01D031
:1006080004B010BD69466078FFF768FF02A96078FA
:10061800FFF764FF0B4B9B784BB10122BDF80C1020
:10062800029800F0CFFD0A2000F0F6FBE8E7002270
:10063800BDF80C10029800F0C5FD0A2000F0ECFB94
:10064800EBE700BFA40500200004024008B50378CA
:10065800012B04D0022B01D1FFF77EFF08BDFFF765
:10066800A1FFFBE7F0B589B0002403940494059436
:10067800069407940094294B1A6B42F001021A63FE
:100688001A6B02F001020092009A01941A6B42F070
:1006980002021A631A6B02F002020192019A029492
:1006A8001A6B42F004021A631B6B03F004030293F3
:1006B800029B1B4D22464FF47041284600F082FDF4
:1006C800184E22464FF48061304600F07BFD6623C9
:1006D80003930494059403A9134800F08BFC0323A7
:1006E80003930494059403A9284600F083FC4FF46F
:1006F80070430393012704970594069403A9284699
:1007080000F078FC4FF480630393049705940694F3
:1007180003A9304600F06EFC09B0F0BD0038024075
:1007280000040240000802400000024002680A4B30
:100738001B689A4200D0704710B5084A536943F4C1
:1007480000735361064C2046FFF7EAFD012221465B
:10075800014801F012FF10BDC0050020000802404A
:10076800BC05002072B6FEE708B50948094B0360CE
:10077800002343607F228260FF22C26003614361DD
:10078800836101F033FA00B908BDFFF7EBFF00BF42
:10079800500600200028004000B587B000230293CF
:1007A800039304930593009301931348134A02603B
:1007B800436083604FF6FF72C260036143618361E7
:1007C80001F0E6FA90B94FF48053029302A90A485F
:1007D80001F016FB60B900230093019369460648AF
:1007E80001F08EFB30B907B05DF804FBFFF7BAFFE4
:1007F800FFF7B8FFFFF7B6FF08060020000001402A
:1008080008B50A480A4B03600A4B4360002383601B
:10081800C3604FF48042026143618361C361036234
:1008280000F0D6FC00B908BDFFF79CFF18070020B0
:1008380000540040A086010008B50A480A4B03602E
:100848000A4B436000238360C3604FF48042026117
:1008580043618361C361036200F0BAFC00B908BD5B
:10086800FFF780FFC406002000580040A086010062
:1008780008B50A480A4B03600A4B436000238360AB
:10088800C3604FF48042026143618361C3610362C4
:1008980000F09EFC00B908BDFFF764FF7006002059
:1008A800005C0040A086010008B50A480A4B0360B6
:1008B8004FF4E133436000238360C36003610C227B
:1008C80042618361C36101F03FFC00B908BDFFF7D5
:1008D80049FF00BFC00500200010014000B595B0D9
:1008E8003022002108A802F087FA0023039304931A
:1008F8000593069307930193194A116C41F08051AF
:100908001164126C02F080520192019A0293154A06
:10091800116841F440411160126802F440420292A9
:10092800029A0A22089201220B9210210C910D9230
:100938000E9308A800F02AFD68B90F23039300213D
:10094800049105910691079103A800F06FFF20B963
:1009580015B05DF804FBFFF705FFFFF703FF00BFC5
:10096800003802400070004000B58FB000F028FA4F
:10097800FFF7B4FFFFF776FEFFF7F6FEFFF70CFF71
:10098800FFF73EFFFFF758FFFFF772FFFFF78CFFF7
:1009980001221149114801F0F0FDFFF7ABFC104BA3
:1009A8000A93104B0B93104B0C9300238DF82530B2
:1009B80001228DF824208DF826300F238DF834304D
:1009C80009A8FFF76FFD6846FFF760FD0128FAD117
:1009D8006846FFF73BFEF6E7BC050020C00500208F
:1009E80018070020C40600207006002000B583B058
:1009F800002100910E4B5A6C42F480425A645A6CA2
:100A080002F480420092009A01911A6C42F08052DE
:100A18001A641B6C03F080530193019B0A4605205E
:100A280000F062FA052000F06FFA03B05DF804FBED
:100A3800003802402DE9F0418CB000230793089359
:100A480009930A930B9303684E4A934208D04E4A7F
:100A5800934228D04D4A934258D00CB0BDE8F0815B
:100A6800002500954A4C236B43F002032363236B54
:100A780003F002030093009BC023079312230893FB
:100A880003230A9304230B9307A9424800F0B2FA00
:100A98000195236C43F400132364236C03F40013BF
:100AA8000193019BD9E700250295394C236B43F04C
:100AB80002032363236B03F002030293029B4FF4A8
:100AC800806307934FF01208CDF8208003270A9718
:100AD80004230B932F4E07A9304600F08BFA082306
:100AE8000793CDF8208009950A9709230B9307A946
:100AF800304600F07FFA0395236C43F480032364A7
:100B0800236C03F480030393039BA6E70025049555
:100B18001F4C236B43F004032363236B03F004038C
:100B28000493049B0595236B43F001032363236B14
:100B380003F001030593059B4FF4007307934FF0EF
:100B48001208CDF8208003270A9704260B9607A9D8
:100B5800114800F04FFA4FF480730793CDF82080C6
:100B680009950A970B9607A90C4800F043FA0695D1
:100B7800236C43F400032364236C03F400030693FB
:100B8800069B6AE70054004000580040005C0040A3
:100B98000038024000040240000802400000024001
:100BA80000B587B000230093019302930393049345
:100BB800059302680B4B9A4202D007B05DF804FB1C
:100BC800022300934FF400730493684600F004FF77
:100BD80020B9054B0122C3F83C2EEEE7FFF7C2FD12
:100BE800F7E700BF00280040000047420268094BB1
:100BF8009A4200D0704782B000230193064B5A6C8A
:100C080042F001025A645B6C03F001030193019BFB
:100C180002B07047000001400038024010B588B0AB
:100C2800002303930493059306930793026803F143
:100C3800804303F588339A4201D008B010BD0024E0
:100C4800019403F594335A6C42F010025A645A6CBA
:100C580002F010020192019A02941A6B42F001020A
:100C68001A631B6B03F001030293029B4FF4C063EA
:100C7800039302230493032306930723079303A9EB
:100C8800054800F0B7F922462146252000F02CF946
:100C9800252000F039F9D0E700000240FEE7FEE722
:100CA800FEE7FEE7FEE770477047704708B500F0BB
:100CB800A1F808BD7047000008B5024801F000FB24
:100CC80008BD00BFC005002010B503460C4A0D49F9
:100CD8000D48006840B10C4800680344521A93421A
:100CE80006D8094A136010BD0748084C0460F2E7AB
:100CF80002F0E6F80C2303604FF0FF30F3E700BF83
:100D080000000220000400006C070020800A002078
:100D1800024B4FF000629A60704700BF00ED00E0A0
:100D2800DFF834D0FFF7F4FF0C480D490D4A0023D3
:100D380002E0D458C4500433C4188C42F9D30A4A88
:100D48000A4C002301E013600432A242FBD302F0F4
:100D5800CBF8FFF709FE70470000022000000020D2
:100D68006C050020043300086C050020800A002070
:100D7800FEE7000010B504460E4B1A784FF47A735C
:100D8800B3FBF2F30C4A1068B0FBF3F000F0C0F8C4
:100D980068B90F2C01D901200AE0002221464FF042
:100DA800FF3000F0A1F8054B1C60002000E0012096
:100DB80010BD00BF04000020000000200800002033
:100DC80008B50B4B1A6842F400721A601A6842F4AC
:100DD80080621A601A6842F480721A60032000F078
:100DE80071F80F20FFF7C6FFFFF700FE002008BDCF
:100DF800003C0240034A1168034B1B780B44136004
:100E0800704700BF7007002004000020014B1868DD
:100E1800704700BF7007002038B50446FFF7F6FF9B
:100E28000546B4F1FF3F02D0044B1B781C44FFF782
:100E3800EDFF401BA042FAD338BD00BF04000020DC
:100E4800002807DB00F01F02400901239340024AF3
:100E580042F82030704700BF00E100E0002808DBBE
:100E68000901C9B200F1604000F5614080F8001343
:100E7800704700F00F000901C9B2014B19547047BF
:100E880014ED00E000B500F00700C0F1070CBCF15C
:100E9800040F28BF4FF0040C031D062B0FD9C31EE7
:100EA8004FF0FF3E0EFA0CF021EA000199400EFACD
:100EB80003FE22EA0E0241EA02005DF804FB002369
:100EC800EEE70000074AD36823F4E0631B041B0C19
:100ED800000200F4E060034343F0BF6343F40033CF
:100EE800D360704700ED00E010B50446054BD868A4
:100EF800C0F30220FFF7C6FF01462046FFF7AEFF0A
:100F080010BD00BF00ED00E008B5FFF799FF08BD70
:100F18000138B0F1807F0BD24FF0E0235861054AC9
:100F2800F02182F823100020986107221A61704787
:100F38000120704700ED00E070B50446866DFFF7AC
:100F480065FF94F83530DBB2022B06D08023636549
:100F5800002384F83430012070BD054622681368E8
:100F680023F0160313602268536923F0800353614A
:100F7800236CE3B12268136823F008031360226826
:100F8800136823F00103136023681B6813F0010F33
:100F980011D0FFF73BFF431B052BF5D920236365D1
:100FA800032084F83500002384F83430D4E7A36C98
:100FB800002BDFD1E3E7E26D3F239340B3600123C9
:100FC80084F83530002084F83400C5E790F83530CF
:100FD800DBB2022B03D08023436501207047052331
:100FE80080F835300268136823F00103136000208D
:100FF8007047000000230F2B00F2DA8030B583B071
:1010080068E085684FEA430E032404FA0EF425EAE3
:101018000405CC6804FA0EF42C438460446824EA7E
:1010280002044A68C2F300129A40224342605FE019
:10103800DC08083450F8242003F00705AD004FF011
:101048000F0E0EFA05FE22EA0E0E0A69AA4042EABF
:101058000E0240F824205FE0042200E0002202FA99
:101068000EF22A430234534D45F82420524A94681C
:101078006FEA0C0224EA0C05D1F804E01EF4801F84
:1010880001D04CEA04054C4CA560E46802EA04056A
:10109800D1F804E01EF4001F01D04CEA0405464CC8
:1010A800E560646802EA0405D1F804E01EF4003F34
:1010B80001D04CEA0405404C6560246822404D6824
:1010C80015F4803F01D04CEA04023B4C2260013306
:1010D8000F2B6BD801229A400C6804EA020C32EA02
:1010E8000404F4D14C6804F00304013C012C88D9B1
:1010F8004A6802F00302032A09D0C4685D0003228B
:10110800AA4024EA02048A68AA402243C2604A68C4
:1011180002F00302022A8BD004684FEA430E03222E
:1011280002FA0EF224EA02044A6802F0030202FA02
:101138000EF2224302604A6812F4403FC7D00022F0
:1011480001921E4A546C44F480445464526C02F474
:1011580080420192019A9C08A51C164A52F8255013
:1011680003F0030E4FEA8E0E0F2202FA0EF225EA62
:101178000205134A90423FF471AF02F58062904233
:101188000ED002F5806290420CD002F58062904247
:101198000AD002F5806290423FF45EAF07225EE714
:1011A80001225CE702225AE7032258E703B030BD68
:1011B800704700BF00380140003C01400038024041
:1011C800000002400AB181617047090481617047DB
:1011D800002800F0CC8070B5044690F83D30002B14
:1011E80077D0242384F83D302268136823F0010364
:1011F80013602268136843F400431360226813687D
:1012080023F40043136000F0C7FB62685A4B9A420C
:1012180064D85A4B98428CBF00230123002B40F01E
:10122800A8805749A1FB00318B0C25686A6822F019
:101238003F0242EA91426A6021680A6A22F03F024C
:1012480066684D4DAE424FD8013313430B62216897
:10125800CA6922F44F4222F0FF026568464B9D425C
:101268004CD8431E6D00B3FBF5F3013340F6FC7018
:10127800034278D0C3F30B031A43CA6121680B6891
:1012880023F0C003E269206A024313430B6021681C
:101298008B6823F4034323F0FF032269E0680243C9
:1012A80013438B602168CB6823F0FF036269A06950
:1012B80002431343CB602268136843F001031360B1
:1012C80000202064202384F83D30206384F83E0009
:1012D80070BD80F83C30FFF7ADFB82E7294B9842A0
:1012E8008CBF0023012399E74FF4967505FB03F3A0
:1012F800254DA5FB03539B090133A6E7A668BEB994
:10130800431E05EB450CB3FBFCF30133C3F30B039E
:10131800B3FA83F35B0943BBC6B9431E05EB450526
:10132800B3FBF5F30133C3F30B0343F40043A3E723
:10133800431E05EB850C0CEB8C0CB3FBFCF3013363
:10134800C3F30B03B3FA83F35B09E4E7431E05EB2E
:10135800850505EB8505B3FBF5F30133C3F30B03F3
:1013680043F4404388E7042386E7012384E7012008
:1013780070470120ACE700BFA08601007F841E00F3
:1013880083DE1B43FF083D00D34D6210002800F0A8
:10139800E08170B582B00446036813F0010F3BD0BA
:1013A8009F4B9B6803F00C03042B2CD09C4B9B6831
:1013B80003F00C03082B21D06368B3F5803F4FD0AE
:1013C800B3F5A02F52D0964B1A6822F480321A60D7
:1013D8001A6822F480221A606368002B50D0FFF745
:1013E80015FD05468E4B1B6813F4003F14D1FFF71B
:1013F8000DFD401B6428F5D90320B1E1884B5B68DB
:1014080013F4800FD8D0864B1B6813F4003F03D029
:101418006368002B00F09F81236813F0020F54D0FB
:101428007F4B9B6813F00C0F3ED07D4B9B6803F0FD
:101438000C03082B33D0E368002B68D0794B0122CA
:101448001A60FFF7E3FC0546754B1B6813F0020FA3
:1014580054D1FFF7DBFC401B0228F5D903207FE1BC
:101468006F4A136843F480331360B5E76C4B1A680E
:1014780042F480221A601A6842F480321A60ABE79C
:10148800FFF7C4FC0546664B1B6813F4003FC3D046
:10149800FFF7BCFC401B6428F5D9032060E1604BD2
:1014A8005B6813F4800FC6D15D4B1B6813F0020F05
:1014B80003D0E368012B40F05081594A136823F0A8
:1014C800F803216943EAC1031360236813F0080F86
:1014D80042D063696BB3534B0122C3F8802EFFF7E8
:1014E80095FC05464E4B5B6F13F0020F34D1FFF7A6
:1014F8008DFC401B0228F5D9032031E1484A1368C6
:1015080023F0F803216943EAC1031360DDE7454B83
:1015180000221A60FFF77AFC0546414B1B6813F05E
:10152800020FD2D0FFF772FC401B0228F5D9032026
:1015380016E13C4B0022C3F8802EFFF767FC0546F6
:10154800374B5B6F13F0020F06D0FFF75FFC401BB1
:101558000228F5D9032003E1236813F0040F77D09C
:101568002F4B1B6C13F0805F33D1002301932C4B5E
:101578001A6C42F080521A641B6C03F0805301937A
:10158800019B0125284B1B6813F4807F23D0A36897
:10159800012B34D0052B38D0214B1A6F22F00102D1
:1015A8001A671A6F22F004021A67A368002B3DD04D
:1015B800FFF72CFC06461A4B1B6F13F0020F46D19F
:1015C800FFF724FC801B41F288339842F3D90320AB
:1015D800C6E00025D6E7144A136843F48073136005
:1015E800FFF714FC0646104B1B6813F4807FCED11E
:1015F800FFF70CFC801B0228F5D90320B0E0084A4D
:10160800136F43F001031367CFE7054B1A6F42F0DE
:1016180004021A671A6F42F001021A67C5E700BF91
:10162800003802400000474200700040FFF7EEFB20
:101638000646524B1B6F13F0020F08D0FFF7E6FB6C
:10164800801B41F288339842F3D9032088E0EDB932
:10165800A369002B00F08380484A926802F00C02CC
:10166800082A51D0022B17D0454B00221A66FFF7E3
:10167800CDFB0446414B1B6813F0007F42D0FFF7B7
:10168800C5FB001B0228F5D9032069E03B4A136C0F
:1016980023F080531364DBE7394B00221A66FFF707
:1016A800B5FB0546354B1B6813F0007F06D0FFF7E6
:1016B800ADFB401B0228F5D9032051E0E369226AFB
:1016C8001343626A43EA8213A26A5208013A43EA60
:1016D8000243E26A43EA0263284A5360284B012224
:1016E8001A66FFF793FB0446244B1B6813F0007F30
:1016F80006D1FFF78BFB001B0228F5D903202FE04A
:1017080000202DE000202BE0012B2BD01B4B5B6829
:1017180003F48001E269914226D103F03F02216A75
:101728008A4223D1616A47F6C0721A40B2EB811F20
:101738001ED103F44031A26A5208013AB1EB024FBC
:1017480018D103F07063E26AB3EB026F14D1002082
:1017580006E001207047012002E0012000E000209F
:1017680002B070BD0120FBE70120F9E70120F7E78F
:101778000120F5E70120F3E70120F1E700380240F6
:101788000000474208B5264B9B6803F00C03042B66
:1017980041D0082B41D1224B5A6802F03F025B68C6
:1017A80013F4800F12D01E4B5968C1F388111D48DD
:1017B8000023A1FB0001FEF7EBFC194B5B68C3F3A8
:1017C800014301335B00B0FBF3F008BD144B5868CC
:1017D800C0F388104FEA401CBCEB000C6EEB0E0EF9
:1017E8004FEA8E1343EA9C634FEA8C11B1EB0C016C
:1017F80063EB0E03DB0043EA5173C90011EB000CE5
:1018080043F10003990200234FEA8C2041EA9C51DE
:10181800FEF7BEFCD1E70348D7E70348D5E700BF8A
:1018280000380240002D31010024F400002800F0A7
:101838009B8070B50D4604464F4B1B6803F00703A9
:101848008B4208D2CBB24C4A1370136803F00703DB
:101858008B4240F08B80236813F0020F17D013F0EF
:10186800040F04D0454A936843F4E0539360236817
:1018780013F0080F04D0414A936843F4604393601F
:101888003E4A936823F0F003A1680B4393602368F2
:1018980013F0010F32D06368012B21D09A1E012A60
:1018A80025D9364A126812F0020F61D033498A6886
:1018B80022F0030213438B60FFF7A8FA06462F4B6A
:1018C8009B6803F00C036268B3EB820F16D0FFF736
:1018D8009DFA801B41F288339842F0D9032042E0F8
:1018E800264A126812F4003FE0D101203BE0234A67
:1018F800126812F0007FD9D1012034E01E4B1B681A
:1019080003F00703AB4207D9EAB21B4B1A701B68F6
:1019180003F00703AB422DD1236813F0040F06D060
:10192800164A936823F4E053E1680B4393602368F5
:1019380013F0080F07D0114A936823F46043216914
:1019480043EAC1039360FFF71DFF0C4B9B68C3F389
:1019580003130B4AD35CD8400A4B18600A4B18682B
:10196800FFF708FA002070BD012070470120FAE750
:101978000120F8E70120F6E7003C02400038024069
:10198800E03200080000002008000020014B186821
:10199800704700BF0000002008B5FFF7F7FF044BB1
:1019A8009B68C3F38223034AD35CD84008BD00BFB9
:1019B80000380240D832000808B5FFF7E7FF044BAB
:1019C8009B68C3F34233034AD35CD84008BD00BFC9
:1019D80000380240D832000830B583B004460368A6
:1019E80013F0050F0ED1236813F0020F38D12368C6
:1019F80013F0080F00F09D80227D4F4BC3F8E021C3
:101A0800002097E04D4B00229A66FFF7FFF9054644
:101A18004B4B1B6813F0006F06D0FFF7F7F9431B19
:101A2800022BF5D9032085E06368A26843EA821394
:101A3800E26843EA0273424AC2F884303F4B01220B
:101A48009A66FFF7E3F905463D4B1B6813F0006FF4
:101A5800C9D1FFF7DBF9401B0228F5D9032069E05B
:101A680000230193364B1A6C42F080521A641B6CA7
:101A780003F080530193019B324A136843F4807347
:101A88001360FFF7C3F905462E4B1B6813F4807FDC
:101A980006D1FFF7BBF9431B022BF5D9032049E018
:101AA800274B1B6F13F4407314D0226902F4407261
:101AB8009A420FD0224B1A6F22F440721F4901201C
:101AC800C1F8400E0020C1F8400E1A671B6F13F0D2
:101AD800010F12D1236903F44072B2F5407F1DD083
:101AE800174A936823F4F813936015490B6F22691A
:101AF800C2F30B0213430B6779E7FFF787F9054633
:101B08000F4B1B6F13F0020FE4D1FFF77FF9401B57
:101B180041F288339842F3D903200BE008498A68D8
:101B280022F4F81223F0704323F4407313438B60BC
:101B3800DBE7002003B030BD0010474200004742F9
:101B4800003802400070004038B5044603680A4A6D
:101B5800DA60FFF75BF905462368DB6813F0200FAE
:101B680007D1FFF753F9401BB0F57A7FF4D903206A
:101B780000E0002038BD00BF5F3F010070B503687A
:101B8800DA6812F0400F02D00025284670BD0446DE
:101B9800DA6842F08002DA60FFF738F90646002575
:101BA8002368DB6813F0400FEFD1002DEDD1FFF76C
:101BB8002DF9831BB3F57A7FF2D9042363770125C6
:101BC800EEE70268D36823F08003D36003689B685C
:101BD80013F0200F01D00020704710B50446FFF71E
:101BE800B3FF10B104236377012010BD00284AD049
:101BF80010B50446437F53B1022363772368DA683C
:101C080012F0100F07D000200123637710BD03776F
:101C1800FEF7C6FFF0E7CA225A62236853225A62C7
:101C28002046FFF7ABFF28B12368FF225A6200283D
:101C3800ECD1E9E72268936823F4E00323F040033A
:101C4800936021688A686368206903436069034375
:101C580013438B602368E2681A6122681369A168DC
:101C680043EA014313612046FFF7ABFF0028DBD1AD
:101C78002268136C23F4802313642268136CA1690F
:101C88000B431364D0E70120704710B4036A046A59
:101C980024F001040462846924F0F00C4CEA021276
:101CA80023F00A030B438261036210BC704710B42F
:101CB800036A046A24F010040462846924F4704CF2
:101CC8004CEA023223F0A00343EA01138261036263
:101CD80010BC7047836823F070030B4343F007037D
:101CE800836070470368294A90420ED0B0F1804F54
:101CF8000BD0A2F57C42904207D002F58062904258
:101D080003D002F58062904203D123F070034A6841
:101D180013431E4A90421AD0B0F1804F17D0A2F553
:101D28007C42904213D002F5806290420FD002F5B7
:101D3800806290420BD002F59A32904207D002F5A9
:101D48008062904203D002F58062904203D123F46E
:101D58004073CA68134323F080034A69134303603E
:101D68008B68C3620B688362084B98420AD00123D0
:101D78004361036913F0010F03D0036923F00103E2
:101D8800036170470B690363F1E700BF000001407E
:101D980040B310B5044690F83D30F3B1022384F8FF
:101DA8003D30214651F8040BFFF79CFF012384F8CE
:101DB800463084F83E3084F83F3084F8403084F868
:101DC800413084F8423084F8433084F8443084F851
:101DD800453084F83D30002010BD80F83C30FEF7D7
:101DE80005FFDBE70120704710B4846824F47F4CBA
:101DF80042EA03220A4342EA0C02826010BC70479E
:101E080090F83C30012B78D010B50446012380F8B7
:101E18003C30022380F83D300268936823F47F4306
:101E280023F0770393600B68602B4CD023D8402BAA
:101E380054D011D8202B03D00AD80BB1102B05D1C0
:101E480019462068FFF746FF002028E0012026E019
:101E5800302BF5D0012022E0502B0AD1CA684968FE
:101E68000068FFF712FF50212068FFF733FF0020BA
:101E780015E0012013E0B3F5805F3AD0B3F5005FB9
:101E880014D0702B37D1CB684A6889680068FFF78F
:101E9800ABFF2268936843F0770393600020012327
:101EA80084F83D30002384F83C3010BDCB684A6884
:101EB80089680068FFF798FF2268936843F48043B5
:101EC80093600020EBE7CA6849680068FFF7EFFEF7
:101ED80060212068FFF7FEFE0020E0E7CA68496835
:101EE8000068FFF7D2FE40212068FFF7F3FE0020CC
:101EF800D5E70020D3E70120D1E702207047000092
:101F080090F83C20012A34D010B40346012280F80E
:101F18003C20022280F83D2002685068946820F036
:101F2800700C086840EA0C0050601A681248824237
:101F380012D0B2F1804F0FD0A0F57C4082420BD076
:101F480000F58060824207D000F58060824203D0AD
:101F580000F59A30824204D124F080044968214374
:101F68009160012283F83D20002083F83C0010BCDA
:101F780070470220704700BF00000140026802F16C
:101F88000C0353E8003F23F490730C3242E800310D
:101F98000029F3D1026802F1140353E8003F23F04B
:101FA8000103143242E800310029F3D1036B012BFD
:101FB80005D0202380F8423000230363704702686D
:101FC80002F10C0353E8003F23F010030C3242E8FF
:101FD80000310029F3D1ECE790F84130DBB2212B36
:101FE80001D0022070478368B3F5805F17D0036A79
:101FF8005A1C02621A7803685A60C38C9BB2013B70
:102008009BB2C3844BB90268D36823F08003D360C2
:102018000268D36843F04003D36000207047036927
:10202800002BE4D1036A1B880268C3F308035360DA
:10203800036A02330362E0E710B5044602681369D5
:1020480023F44053C1680B431361836802691A4340
:1020580043691A43C3691A430168CB6823F41643DA
:1020680023F00C031343CB600268536923F44073D5
:1020780081690B4353610368314A934206D002F5E4
:102088008062934202D0FFF787FC01E0FFF794FCDF
:10209800E369B3F5004F29D00021031849411B1803
:1020A80041F10001C90041EA5371DB001818636867
:1020B8004FEA83024FEA937341F10001FEF768F893
:1020C800204AA2FB00314909642303FB11031B01C9
:1020D8003233A2FB03235B0903F0F00202EB011287
:1020E80003F00F03216813448B6010BD002302180E
:1020F80043EB0301121841F10001C90041EA527192
:10210800D200101841F10001626892185B41FEF795
:102118003FF80C4AA2FB00314909642303FB110371
:10212800DB003233A2FB03235B095A0002F4F87286
:1021380002EB011203F00703216813448B60D4E714
:10214800001001401F85EB5160B310B5044690F8AC
:10215800413013B3242384F841302268D36823F430
:102168000053D3602046FFF767FF2268136923F402
:10217800904313612268536923F02A03536122684C
:10218800D36843F40053D36000206064202384F8AC
:10219800413084F84230606310BD80F84030FEF76B
:1021A8003DFDD7E701207047704708B50168CA6848
:1021B80022F04002CA60202280F84120FFF7F4FF95
:1021C800002008BD704708B5806B0023C385C38411
:1021D800FFF7F8FF08BD704790F84230DBB2222BBA
:1021E80069D18368B3F5805F4FD0826AB3F5805FA9
:1021F80004D0002B56D10369002B53D103685B68C8
:102208001370836A01338362C38D9BB2013B9BB217
:10221800C385002B51D100B583B00268D36823F081
:102228002003D3600268D36823F48073D360026804
:10223800536923F001035361202380F842300023BF
:102248004363036B012B33D100230363026802F15C
:102258000C0353E8003F23F010030C3242E800312E
:102268000029F3D103681A6812F0100F06D0002273
:1022780001921A6801925B680193019B818DFFF7B7
:10228800AAFF002003B05DF804FB0269002AACD164
:10229800826A03685B68C3F308031380836A0233A6
:1022A8008362B1E703685B6803F07F031370A8E7F4
:1022B800FEF73CFAE5E7022070470020704700006F
:1022C80010B582B0044602681368D068516913F0EB
:1022D8000F0F09D113F0200F0CD010F0200F09D0E8
:1022E8002046FFF779FF16E011F0010115D110F42F
:1022F800907F12D1216B012979D013F0800F03D080
:1023080010F0800F40F0148113F0400F03D010F04C
:10231800400F40F0118102B010BD13F0010F06D03C
:1023280010F4807F03D0626C42F00102626413F003
:10233800040F04D019B1626C42F00202626413F017
:10234800020F04D019B1626C42F00402626413F007
:10235800080F07D010F0200F00D119B1626C42F0BD
:1023680008026264626C002AD5D013F0200F02D0F4
:1023780010F0200F29D123685B6903F04003626CD9
:1023880012F0080F00D163B32046FFF7F7FD23686A
:102398005B6913F0400F20D0226802F1140353E860
:1023A800003F23F04003143242E800310029F3D102
:1023B800E36B73B1624A1A65E06BFEF707FE00280B
:1023C800A9D0E06B036D9847A5E72046FFF704FF07
:1023D800D1E72046FFF7F6FE9DE72046FFF7F2FE1D
:1023E80099E72046FFF7EEFE0023636493E713F0B6
:1023F800100F82D010F0100F3FF47FAF002301932D
:102408001368019353680193019B536913F0400FBC
:1024180052D0E26B13685B689BB2002B3FF47BAF32
:10242800A18D99427FF677AFE385D369B3F5807FB5
:1024380037D0226802F10C0353E8003F23F480737D
:102448000C3242E800310029F3D1226802F114036A
:1024580053E8003F23F00103143242E80031002919
:10246800F3D1226802F1140353E8003F23F040033C
:10247800143242E800310029F3D1202384F8423095
:1024880000232363226802F10C0353E8003F23F082
:1024980010030C3242E800310029F3D1E06BFEF75B
:1024A8004BFD02236363A18DE38D9BB2C91A89B2E8
:1024B8002046FFF790FE2EE7A18DE38D9BB2C91A47
:1024C80089B2E38D9BB2002B3FF425AF00293FF47E
:1024D80022AF226802F10C0353E8003F23F4907303
:1024E8000C3242E800300028F3D1226802F11403CC
:1024F80053E8003F23F00103143242E8003000287B
:10250800F3D1202384F8423000232363226802F1A8
:102518000C0353E8003F23F010030C3242E800306C
:102528000028F3D1022363632046FFF754FEF2E646
:102538002046FFF751FDEEE62046FFF736FEEAE6B5
:10254800CF21000881628285C2850023436422234B
:1025580080F84230036923B10268D36843F480737A
:10256800D3600268536943F0010353610268D3687A
:1025780043F02003D3600020704708B590F842303C
:10258800DBB2202B08D149B10AB9012008BD0023CC
:102598000363FFF7D7FFF9E70220F7E70120F5E724
:1025A8002DE9F047089D0E4604460F46002B4AD1F8
:1025B80094468C45B2FA82F260D942B1C2F1200346
:1025C800974020FA03F30CFA02FC1F4394404FEAA9
:1025D8001C4E1FFA8CF6B7FBFEF1230C0EFB11778D
:1025E80043EA074301FB06F098420AD91CEB0303B0
:1025F80001F1FF3780F01581984240F212810239CB
:1026080063441B1AA4B2B3FBFEF00EFB103344EA7A
:10261800034400FB06F6A6420AD91CEB040400F1A9
:10262800FF3380F00081A64240F2FD806444023806
:1026380040EA0140A41B00211DB1D4400023C5E994
:102648000043BDE8F0878B4205D90DB1C5E900010B
:1026580000210846F5E7B3FA83F1002946D1B342D1
:1026680002D3824200F2F580841A66EB030201204D
:102678001746002DE5D0C5E90047E2E7002A40F0FB
:102688009380A1EB0C034FEA1C471FFA8CFE012133
:10269800B3FBF7F607FB1630230C43EA00430EFBA7
:1026A80006F0984208D91CEB030306F1FF3802D262
:1026B800984200F2D08046461B1AA4B2B3FBF7F04A
:1026C80007FB103344EA03440EFB00FEA64508D975
:1026D8001CEB040400F1FF3302D2A64500F2B680D9
:1026E8001846A4EB0E0440EA0640A5E7C1F120070E
:1026F8008B4022FA07FC4CEA030C06FA01FE20FA8A
:1027080007F426FA07F344EA0E0400FA01F84FEA40
:102718001C404FEA1449B3FBF0FE1FFA8CF600FB8D
:102728001E3349EA03430EFB06F9994502FA01F202
:102738000BD91CEB03030EF1FF3A80F08580994515
:1027480040F28280AEF1020E6344A3EB0909A4B201
:10275800B9FBF0F300FB139944EA094403FB06F6BE
:10276800A64208D91CEB040403F1FF3068D2A64244
:1027780066D9023B644443EA0E40A41BA0FB02E670
:10278800B4427346B14652D34FD05DB1B8EB0302A1
:1027980064EB090404FA07F722FA01F31F43CC405B
:1027A800C5E9007400214CE7C2F1200120FA01F3C9
:1027B8000CFA02FC26FA01F1964033434FEA1C4713
:1027C8001FFA8CFEB1FBF7F007FB1016190C41EA53
:1027D800064100FB0EF68E4204FA02F408D91CEBFF
:1027E800010100F1FF382DD28E422BD90238614405
:1027F800891B9BB2B1FBF7F607FB161143EA0143AD
:1028080006FB0EF1994208D91CEB030306F1FF38C9
:1028180014D2994212D9023E63445B1A46EA004137
:1028280036E73946EDE6184602E7F045ADD2BEEB8D
:10283800020366EB0C060138B146A6E74646ECE70C
:10284800034698E74046D3E7D6467EE76444023815
:1028580047E708460DE7023E63442DE7024B014671
:10286800186800F00BB800BF20040020024B014696
:10287800186800F0D1BB00BF200400202DE9F04FFC
:1028880001F10B05162D83B0064623D8102900F256
:10289800AF8000F0A5FA102518230220B74F3B445B
:1028A800A3F108025C68944200F01F816368E26843
:1028B800A16823F00303CA602344304691605A6834
:1028C80042F001025A6000F091FA0834204603B041
:1028D800BDE8F08F35F0070500F18A80A94200F2C3
:1028E800878000F07DFAB5F5FC7FC0F06E816B0A39
:1028F80000F08280042B00F21E81AB0903F139003D
:1029080003F1380EC3009D4F3B44A3F1080C5C68EB
:10291800A44507D10DE0002AE16880F2E0808C45EB
:1029280007D00C46636823F003035A1B0F2AF2DD15
:102938007046DFF84C823C69444500F0BD8063680E
:1029480023F0030CACEB05030F2B00F34281002BA3
:10295800C7E9048880F22D81BCF5007FD7F804E030
:1029680080F0C9804FEADC0101314FEA5C1C012389
:1029780003FA0CF357F83120A2604EEA030E07EB76
:10298800C103083BE360C7F804E047F83140D4606E
:1029980083104FF0010C0CFA03FCF44532D81CEA02
:1029A8000E0F08D120F003004FEA4C0C1CEA0E0F62
:1029B80000F10400F8D007EBC00AD6468146DEF8DD
:1029C8000C300BE0596821F003014A1B0F2A1C4602
:1029D800DB6800F3BC80002A80F2DE809E45F1D1DE
:1029E80009F1010919F0030F0EF1080EE7D119E1F9
:1029F8000C233360002469E74FF4007340204FF044
:102A08003F0E80E7BC68636823F00309A94503D338
:102A1800A9EB05030F2B52DC5A4B1B68082003F166
:102A2800100804EB0903009300F050FA564A1368A3
:102A38000133A844834605D008F1FF388044434257
:102A480003EA08084146304600F028FAB0F1FF3F93
:102A58004D4A824600F0D88004EB0903834200F215
:102A6800D1804A4B186840440BF1FF311860844606
:102A780040F0FB801AEA010F40F0F780D7F808A071
:102A8800C84448F00102CAF80420414B1968814241
:102A980038BF18603F4B1968814238BF18605446E8
:102AA80022F00308A845A8EB050301D30F2B06DC89
:102AB800304600F09BF99DE7D7F804E068E7621913
:102AC80043F0010345F0010565603046BA60536084
:102AD80000F08CF90834204603B0BDE8F08FA268F6
:102AE8002344D16030468A60E9E6DC68A3427FF47B
:102AF800DDAE02301DE7BCF5206F4FEA5C227AD3C9
:102B0800142A00F2128102F15C03DB005B32F9182F
:102B1800FB580839994203D1ECE09B68994204D0EC
:102B28005A6822F003026245F7D8D968C4E902312D
:102B38008C60DC602CE7142B69D9542B00F2FE80E2
:102B48002B0B03F16F0003F16E0EC300DBE6D4F824
:102B580008C03046661945F001056560CCF80C30B0
:102B6800C3F808C042F00103C7E90466C6E9028851
:102B78007360625000F03AF90834A7E618000020A4
:102B880020000020A40700200C000020740700206B
:102B9800A00700209C070020214430464A6842F0E4
:102BA80001024A6054F8082FD3609A6000F01EF9B9
:102BB8008CE6A4443046DCF8043043F00103CCF83A
:102BC800043000F013F9083480E6E80805F108033A
:102BD80064E6621943F0010145F00105656030467D
:102BE800C7E90422C2E90288516044F80C3000F0B9
:102BF800FDF808346AE64FEA9C1202F13903DB005B
:102C0800383284E7BC4228D0BC68626848E703F1E0
:102C18005C0003F15B0EC30075E65AF808395345AA
:102C280040F0DA8010F0030F00F1FF30F5D17B6837
:102C380023EA0C037B604FEA4C0C9C453FF6E2AE5E
:102C4800BCF1000F04D1DDE64FEA4C0C09F1040990
:102C58001CEA030FF8D04846ADE6604B186808EB4D
:102C6800000C0BF1FF31C3F800C0106801306FD0C1
:102C780004EB0902AAEB020262441A601AF0070286
:102C8800CDE9002340D0C2F108029244D04408EABA
:102C980001005A44121A02EA010B5946304600F064
:102CA800FDF8421C019B6FD0A0EB0A0000EB0B085B
:102CB8001868C7F808A048F001025844BC42CAF88E
:102CC800042018603FF4E1AEB9F10F0F43D96168F1
:102CD800A9F10C0222F0070201F001011143616021
:102CE8004FF0050CA1180F2AC1E901CC54D8DAF825
:102CF8000420CAE692104FF0010C0CFA02F24EEAD8
:102D0800020EC7F804E011E70AEB08020A40ABEB31
:102D1800020202EA010B5946304600F0BFF8431C94
:102D2800019BC1D1DDF800B0C2E7542A17D84FEA99
:102D38001C3202F16F03DB006E32E8E6B3F5AA7FBE
:102D480017D8EB0B03F1780003F1770EC300DAE52F
:102D5800C2F800A092E70123CAF80430A8E6B2F549
:102D6800AA7F24D84FEADC3202F17803DB007732FD
:102D7800CDE640F25452934224D8AB0C03F17D00C7
:102D880003F17C0EC300BEE5009A083A9044A8EB14
:102D98000A084FF0000B8BE7304604F10801009356
:102DA80000F03AF9009BD7F808A018689FE740F2AE
:102DB80054539A420CD84FEA9C4202F17D03DB003F
:102DC8007C32A4E64FF47E737F204FF07E0E9AE5A6
:102DD8004FF47E737E229AE67B682CE77407002006
:102DE800014800F0A9B800BFE0080020014800F041
:102DF800A5B800BFE0080020830730B547D0541EAF
:102E0800002A3ED0CAB2034601E0013C39D303F898
:102E1800012B9D07F9D1032C2CD9CDB205EB052543
:102E28000F2C05EB054535D9A4F1100222F00F0C43
:102E380003F1100EE6444FEA121C1A46C2E9005587
:102E4800C2E9025510327245F8D10CF1010214F0B2
:102E58000C0F03EB021204F00F0C13D0ACF10403B7
:102E680023F003030433134442F8045B9342FBD179
:102E78000CF003042CB1C9B21C4403F8011BA34293
:102E8800FBD130BD64461346002CF4D1F9E7034664
:102E98001446C0E71A46A446E0E700BF38B5074D18
:102EA8000022044608462A60FDF70EFF431C00D0A6
:102EB80038BD2B68002BFBD0236038BDEC08002000
:102EC800014B1868704700BF20040020082802D171
:102ED8004FF48050704708B5FFF7F2FF16230360E0
:102EE8004FF0FF3008BD00BF70B50F4B0F4DAB4220
:102EF800A3EB050607D0B610002455F8043B0134AF
:102F08009847A642F9D800F0D7F9094D094B5E1B3E
:102F1800AB424FEAA60606D0002455F8043B01341C
:102F28009847A642F9D870BDF8320008F832000870
:102F3800F832000800330008704700BF704700BF30
:102F4800024B13B1024800F005B8704700000000BA
:102F580019320008002301461A46184600F06CB9D9
:102F68002DE9F843064608208946FFF7AFFFDFF84A
:102F78009C8005463046FFF733FFD8F808305F6875
:102F880027F00307A7F11104A4EB09042C44B4FBB0
:102F9800F5F4013C05FB04F4A54208DC00213046A9
:102FA800FFF77CFFD8F808303B44984205D03046FC
:102FB800FFF71CFF0020BDE8F88361423046FFF7A9
:102FC8006DFF01300FD0124AD8F808303F1B47F088
:102FD80001075F60136830461B1B1360FFF706FF8D
:102FE8000120BDE8F88300213046FFF757FFD8F8E5
:102FF8000820831A0F2BDADD43F001035360054BD9
:1030080003491B68C01A0860D1E700BF18000020F8
:10301800740700200C00002000297CD0F8B50C466D
:103028000646FFF7DDFE54F8043C764FA4F1080588
:1030380023F001016818D7F808C04268844522F0D7
:10304800030200F08380DB07426000EB020C33D4FC
:1030580054F8084CDCF804302D1B2144AC6807F107
:10306800080C644503F0010364D0D5F80CE0C4F8FB
:103078000CE0CEF80840002B00F0818041F00103FD
:103088006B600160B1F5007F22D27868CB0801221D
:10309800490901338A40024357F833107A6007EB35
:1030A800C302083AC5E9021247F83350CD603046EA
:1030B800BDE8F840FFF79ABEDCF80430DB072BD5F3
:1030C80041F00103B1F5007F44F8043C0160DCD312
:1030D800B1F5206F4FEA512353D28B0903F1390020
:1030E80003F13802C300F818FB580838984203D196
:1030F80061E09B68984204D05A6822F003028A4231
:10310800F7D8D868C5E902308560DD603046BDE88B
:10311800F840FFF76BBE7047114407F1080C83684D
:1031280063453FD0C268DA60936041F001036B6089
:103138006950A7E7002B5FD10A44D0E90213CB609E
:10314800996042F001036B60AA50B0E70A44D907BE
:1031580007D454F8083CED1A1A44D5E90213CB6099
:10316800996042F001036B60274BBD601B68934276
:103178009DD8264B30461968FFF7F2FE97E71144B1
:10318800CDE7142B08D9542B1DD80B0B03F16F0076
:1031980003F16E02C300A6E703F15C0003F15B02D2
:1031A800C300A0E741F00103C7E90455C5E902CC13
:1031B8006B6069507BE779689210012404FA02F287
:1031C8000A437A609EE7B3F5AA7F06D8CB0B03F1D2
:1031D800780003F17702C30085E740F25452934226
:1031E80006D88B0C03F17D0003F17C02C3007AE75B
:1031F8004FF47E737E2276E741F001036B60016035
:1032080055E700BF1800002010000020A407002088
:1032180038B5074D074C2C1BA41005D0013C55F8B8
:10322800043D9847002CF9D1BDE8384000F04AB871
:1032380004330008003300082DE9F8431B4D064607
:10324800286898460F469146FFF776FE184B1C688B
:103258001CB3286865681F2D22DC4EB96B1C02352B
:10326800636044F82570FFF769FE0020BDE8F88325
:1032780004EB85010123C1F88890D4F88821AB407C
:103288001A43022EC4F88821C1F80881E6D1D4F87F
:103298008C211A43C4F88C21E0E7064C1C60D8E75F
:1032A800FFF74CFE4FF0FF30E0E700BF6805002055
:1032B800E8080020F0080020F8B500BFF8BC08BCFA
:1032C8009E467047F8B500BFF8BC08BC9E467047DC
:1032D80000000000010203040000000000000000DC
:0832E8000102030406070809B6
:0832F000B8F2FF7F01000000AD
:0832F800492F0008350200080F
:043300000D020008B2
:103304000024F4000100000010000000FFFFFFFF94
:1033140000000200000000000000000000000000A7
:1033240018000020180000202000002020000020A9
:103334002800002028000020300000203000002059
:103344003800002038000020400000204000002009
:1033540048000020480000205000002050000020B9
:103364005800002058000020600000206000002069
:103374006800002068000020700000207000002019
:1033840078000020780000208000002080000020C9
:103394008800002088000020900000209000002079
:1033A4009800002098000020A0000020A000002029
:1033B400A8000020A8000020B0000020B0000020D9
:1033C400B8000020B8000020C0000020C000002089
:1033D400C8000020C8000020D0000020D000002039
:1033E400D8000020D8000020E0000020E0000020E9
:1033F400E8000020E8000020F0000020F000002099
:10340400F8000020F8000020000100200001002046
:1034140008010020080100201001002010010020F4
:1034240018010020180100202001002020010020A4
:103434002801002028010020300100203001002054
:103444003801002038010020400100204001002004
:1034540048010020480100205001002050010020B4
:103464005801002058010020600100206001002064
:103474006801002068010020700100207001002014
:1034840078010020780100208001002080010020C4
:103494008801002088010020900100209001002074
:1034A4009801002098010020A0010020A001002024
:1034B400A8010020A8010020B0010020B0010020D4
:1034C400B8010020B8010020C0010020C001002084
:1034D400C8010020C8010020D0010020D001002034
:1034E400D8010020D8010020E0010020E0010020E4
:1034F400E8010020E8010020F0010020F001002094
:10350400F8010020F8010020000200200002002041
:1035140008020020080200201002002010020020EF
:10352400180200201802002020020020200200209F
:10353400280200202802002030020020300200204F
:1035440038020020380200204002002040020020FF
:1035540048020020480200205002002050020020AF
:10356400580200205802002060020020600200205F
:10357400680200206802002070020020700200200F
:1035840078020020780200208002002080020020BF
:10359400880200208802002090020020900200206F
:1035A4009802002098020020A0020020A00200201F
:1035B400A8020020A8020020B0020020B0020020CF
:1035C400B8020020B8020020C0020020C00200207F
:1035D400C8020020C8020020D0020020D00200202F
:1035E400D8020020D8020020E0020020E0020020DF
:1035F400E8020020E8020020F0020020F00200208F
:10360400F8020020F802002000030020000300203C
:1036140008030020080300201003002010030020EA
:10362400180300201803002020030020200300209A
:10363400280300202803002030030020300300204A
:1036440038030020380300204003002040030020FA
:1036540048030020480300205003002050030020AA
:10366400580300205803002060030020600300205A
:10367400680300206803002070030020700300200A
:1036840078030020780300208003002080030020BA
:10369400880300208803002090030020900300206A
:1036A4009803002098030020A0030020A00300201A
:1036B400A8030020A8030020B0030020B0030020CA
:1036C400B8030020B8030020C0030020C00300207A
:1036D400C8030020C8030020D0030020D00300202A
:1036E400D8030020D8030020E0030020E0030020DA
:1036F400E8030020E8030020F0030020F00300208A
:10370400F8030020F8030020000400200004002037
:1037140008040020080400201004002010040020E5
:10372400280400200000000000000000A80700207A
:1037340010080020780800200000000000000000AD
:103744000000000000000000000000000000000075
:103754000000000000000000000000000000000065
:103764000000000000000000000000000000000055
:103774000000000000000000000000000000000045
:103784000000000000000000000000000000000035
:103794000000000000000000000000000000000025
:1037A4000000000000000000000000000000000015
:1037B4000000000000000000000000000000000005
:1037C40001000000000000000E33CDAB34126DE6A2
:1037D400ECDE05000B00000000000000000000000B
:1037E40000000000000000000000000000000000D5
:1037F40000000000000000000000000000000000C5
:1038040000000000000000000000000000000000B4
:1038140000000000000000000000000000000000A4
:103824000000000000000000000000000000000094
:103834000000000000000000000000000000000084
:103844000000000000000000000000000000000074
:103854000000000000000000000000000000000064
:0C3864000000000000000000E40800204C
:0400000508000D29B9
:00000001FF
