:020000040800F2
:1000000000500020B90F0008E10E0008E30E0008C0
:10001000E50E0008E70E0008E90E000800000000E9
:10002000000000000000000000000000EB0E0008CF
:10003000ED0E000800000000EF0E0008F10E0008B1
:10004000011000080110000801100008011000084C
:10005000011000080110000801100008011000083C
:10006000011000080110000801100008011000082C
:10007000011000080110000801100008011000081C
:10008000011000080110000801100008011000080C
:1000900001100008011000080110000801100008FC
:1000A00001100008011000080110000801100008EC
:1000B00001100008011000080110000801100008DC
:1000C00001100008011000080110000801100008CC
:1000D00001100008011000080110000801100008BC
:1000E00001100008011000080110000800000000C5
:1000F0000000000000000000000000000000000000
:0C01000000000000000000005FF808F1A3
:10011000844641EA000313F0030349D1403A23D354
:100120000B6803604B6843608B688360CB68C36077
:100130000B6903614B6943618B698361CB69C3615F
:100140000B6A03624B6A43628B6A8362CB6AC36247
:100150000B6B03634B6B43638B6B8363CB6BC3632F
:1001600040304031403ADBD230320BD30B68036071
:100170004B6843608B688360CB68C360103010317C
:10018000103AF3D20C3205D351F8043B40F8043B4B
:10019000043AF9D2043208D0D2071CBF11F8013B4F
:1001A00000F8013B01D30B8803806046704700BF15
:1001B000082A13D38B07B1D010F00303AED0C3F1DC
:1001C0000403D21ADB071CBF11F8013B00F8013B06
:1001D000A4D331F8023B20F8023B9FE7043AD9D37D
:1001E000013A11F8013B00F8013BF9D20B7803709A
:1001F0004B7843708B7883706046704781F0004184
:1002000002E000BF83F0004330B54FEA41044FEAFB
:10021000430594EA050F08BF90EA020F1FBF54EA96
:10022000000C55EA020C7FEA645C7FEA655C00F032
:10023000E2804FEA5454D4EB5555B8BF6D420CDD03
:100240002C4480EA020281EA030382EA000083EA86
:10025000010180EA020281EA0303362D88BF30BD26
:1002600011F0004F4FEA01314FF4801C4CEA11317C
:1002700002D0404261EB410113F0004F4FEA0333DB
:100280004CEA133302D0524263EB430394EA050F66
:1002900000F0A780A4F10104D5F1200E0DDB02FAD5
:1002A0000EFC22FA05F2801841F1000103FA0EF269
:1002B000801843FA05F359410EE0A5F120050EF12F
:1002C000200E012A03FA0EFC28BF4CF0020C43FA60
:1002D00005F3C01851EBE37101F0004507D54FF06D
:1002E000000EDCF1000C7EEB00006EEB0101B1F5BD
:1002F000801F1BD3B1F5001F0CD349085FEA300003
:100300004FEA3C0C04F101044FEA445212F5800F0D
:1003100080F09A80BCF1004F08BF5FEA500C50F1AA
:10032000000041EB045141EA050130BD5FEA4C0C8D
:10033000404141EB0101013C28BFB1F5801FE9D2EA
:1003400091F0000F04BF01460020B1FA81F308BF0D
:100350002033A3F10B03B3F120020CDA0C3208DDD9
:1003600002F1140CC2F10C0201FA0CF021FA02F1B4
:100370000CE002F11402D8BFC2F1200C01FA02F124
:1003800020FA0CFCDCBF41EA0C019040E41AA2BF49
:1003900001EB0451294330BD6FEA04041F3C1CDA11
:1003A0000C340EDC04F11404C4F1200220FA04F031
:1003B00001FA02F340EA030021FA04F345EA0301DB
:1003C00030BDC4F10C04C4F1200220FA02F001FA9D
:1003D00004F340EA0300294630BD21FA04F029461F
:1003E00030BD94F0000F83F4801306BF81F48011B8
:1003F0000134013D4EE77FEA645C18BF7FEA655C2B
:1004000029D094EA050F08BF90EA020F05D054EAFC
:10041000000C04BF1946104630BD91EA030F1EBF01
:100420000021002030BD5FEA545C05D14000494105
:1004300028BF41F0004130BD14F580043CBF01F5F8
:10044000801130BD01F0004545F0FE4141F47001DE
:100450004FF0000030BD7FEA645C1ABF19461046B9
:100460007FEA655C1CBF0B46024650EA013406BFBA
:1004700052EA033591EA030F41F4002130BD00BF79
:1004800090F0000F04BF0021704730B54FF4806436
:1004900004F132044FF000054FF0000150E700BFB7
:1004A00090F0000F04BF0021704730B54FF4806416
:1004B00004F1320410F0004548BF40424FF0000103
:1004C0003EE700BF42004FEAE2014FEA31014FEA46
:1004D00002701FBF12F07F4393F07F4F81F0605195
:1004E000704732F07F4208BF704793F07F4F04BFE0
:1004F00041F40021704730B54FF4607401F00045BD
:1005000021F000411CE700BF50EA010208BF70471C
:1005100030B54FF000050AE050EA010208BF70470D
:1005200030B511F0004502D5404261EB41014FF476
:10053000806404F132045FEA915C3FF4D8AE4FF07E
:1005400003025FEADC0C18BF03325FEADC0C18BF61
:10055000033202EBDC02C2F1200300FA03FC20FAB2
:1005600002F001FA03FE40EA0E0021FA02F11444FF
:10057000BDE600BF70B54FF0FF0C4CF4E06C1CEA18
:1005800011541DBF1CEA135594EA0C0F95EA0C0F89
:1005900000F0DEF82C4481EA030621EA4C5123EAFC
:1005A0004C5350EA013518BF52EA033541F480112B
:1005B00043F4801338D0A0FB02CE4FF00005E1FBDE
:1005C00002E506F00042E0FB03E54FF00006E1FB28
:1005D00003569CF0000F18BF4EF0010EA4F1FF046B
:1005E000B6F5007F64F5407404D25FEA4E0E6D41AB
:1005F00046EB060642EAC62141EA55514FEAC520BC
:1006000040EA5E504FEACE2EB4F1FD0C88BFBCF537
:10061000E06F1ED8BEF1004F08BF5FEA500E50F1E8
:10062000000041EB045170BD06F0004646EA0101AE
:1006300040EA020081EA0301B4EB5C04C2BFD4EBE0
:100640000C0541EA045170BD41F480114FF0000ED9
:10065000013C00F3AB8014F1360FDEBF002001F047
:10066000004170BDC4F10004203C35DA0C341BDCC1
:1006700004F11404C4F1200500FA05F320FA04F093
:1006800001FA05F240EA020001F0004221F00041C7
:1006900010EBD37021FA04F642EB06015EEA430E3A
:1006A00008BF20EAD37070BDC4F10C04C4F120056A
:1006B00000FA04F320FA05F001FA04F240EA02001D
:1006C00001F0004110EBD37041F100015EEA430EEE
:1006D00008BF20EAD37070BDC4F1200500FA05F20E
:1006E0004EEA020E20FA04F301FA05F243EA02038D
:1006F00021FA04F001F0004121FA04F220EA02009C
:1007000000EBD3705EEA430E08BF20EAD37070BDE1
:1007100094F0000F0FD101F00046400041EB0101C1
:1007200011F4801F08BF013CF7D041EA060195F0A3
:10073000000F18BF704703F00046520043EB03035D
:1007400013F4801F08BF013DF7D043EA060370474A
:1007500094EA0C0F0CEA135518BF95EA0C0F0CD055
:1007600050EA410618BF52EA4306D1D181EA03019B
:1007700001F000414FF0000070BD50EA410606BF95
:100780001046194652EA430619D094EA0C0F02D1DA
:1007900050EA013613D195EA0C0F05D152EA03361F
:1007A0001CBF104619460AD181EA030101F000413D
:1007B00041F0FE4141F470014FF0000070BD41F086
:1007C000FE4141F4780170BD70B54FF0FF0C4CF460
:1007D000E06C1CEA11541DBF1CEA135594EA0C0F7F
:1007E00095EA0C0F00F0A7F8A4EB050481EA030ECC
:1007F00052EA03354FEA013100F088804FEA0333B3
:100800004FF0805545EA131343EA12634FEA022280
:1008100045EA111545EA10654FEA00260EF0004141
:100820009D4208BF964244F1FD0404F5407402D293
:100830005B084FEA3202B61A65EB03055B084FEA24
:1008400032024FF480104FF4002CB6EB020E75EB21
:10085000030E22BFB61A754640EA0C005B084FEA49
:100860003202B6EB020E75EB030E22BFB61A7546C6
:1008700040EA5C005B084FEA3202B6EB020E75EB11
:10088000030E22BFB61A754640EA9C005B084FEA89
:100890003202B6EB020E75EB030E22BFB61A754696
:1008A00040EADC0055EA060E18D04FEA051545EA85
:1008B00016754FEA06164FEAC30343EA52734FEA2E
:1008C000C2025FEA1C1CC0D111F4801F0BD141EAA7
:1008D00000014FF000004FF0004CB6E711F4801F0C
:1008E00004BF01430020B4F1FD0C88BFBCF5E06FEC
:1008F0003FF6AFAEB5EB030C04BFB6EB020C5FEAFC
:10090000500C50F1000041EB045170BD0EF0004E50
:100910004EEA113114EB5C04C2BFD4EB0C0541EA82
:10092000045170BD41F480114FF0000E013C90E67F
:1009300045EA060E8DE60CEA135594EA0C0F08BF43
:1009400095EA0C0F3FF43BAF94EA0C0F0AD150EA42
:1009500001347FF434AF95EA0C0F7FF425AF1046D5
:1009600019462CE795EA0C0F06D152EA03353FF4FD
:10097000FDAE1046194622E750EA410618BF52EA7A
:1009800043067FF4C5AE50EA41047FF40DAF52EA4E
:1009900043057FF4EBAE12E74FF0FF3C06E000BFEB
:1009A0004FF0010C02E000BF4FF0010C4DF804CDF8
:1009B0004FEA410C7FEA6C5C4FEA430C18BF7FEAB8
:1009C0006C5C1BD001B050EA410C0CBF52EA430CE6
:1009D00091EA030F02BF90EA020F0020704710F166
:1009E000000F91EA030F58BF994208BF90422CBFF5
:1009F000D8176FEAE37040F0010070474FEA410CEE
:100A00007FEA6C5C02D150EA013C07D14FEA430C0B
:100A10007FEA6C5CD6D152EA033CD3D05DF8040B7C
:100A2000704700BF8446104662468C4619466346AE
:100A300000E000BF01B5FFF7B7FF002848BF10F185
:100A4000000F01BD4DF808EDFFF7F4FF0CBF0120CA
:100A500000205DF808FB00BF4DF808EDFFF7EAFF46
:100A600034BF012000205DF808FB00BF4DF808ED01
:100A7000FFF7E0FF94BF012000205DF808FB00BFF6
:100A80004DF808EDFFF7CEFF94BF012000205DF880
:100A900008FB00BF4DF808EDFFF7C4FF34BF01208D
:100AA00000205DF808FB00BF4FEA410C7FEA6C5C58
:100AB00002D150EA013C0AD14FEA430C7FEA6C5C58
:100AC00002D152EA033C02D14FF0000070474FF0D0
:100AD000010070474FEA410212F5001215D211D5FC
:100AE0006FF47873B3EB625212D94FEAC12343F02B
:100AF000004343EA505311F0004F23FA02F018BFAD
:100B0000404270474FF00000704750EA013005D175
:100B100011F0004008BF6FF0004070474FF0000038
:100B2000704700BF0348044B834202D0034B03B11C
:100B300018477047C0060020C006002000000000D3
:100B40000548064B1B1AD90F01EBA301491002D02F
:100B5000034B03B118477047C0060020C0060020B1
:100B60000000000010B5064C237843B9FFF7DAFF08
:100B7000044B13B10448AFF300800123237010BD70
:100B8000C0060020000000005C85000808B5054B89
:100B90001BB105490548AFF30080BDE80840FFF7E9
:100BA000CFBF00BF00000000C40600205C85000825
:100BB00082B00A4B9A6942F004029A619A6902F083
:100BC00004020092009A9A6942F008029A619B69B5
:100BD00003F008030193019B02B07047001002402C
:100BE00072B6FEE708B50A480A4B03600A4B436039
:100BF00000238360C3604FF48042026143618361DC
:100C0000C361036200F066FD00B908BDFFF7E8FFAD
:100C10002407002000540040A086010008B50A48BF
:100C20000A4B03604FF4E133436000238360C360E9
:100C300003610C2242618361C36101F053FA00B980
:100C400008BDFFF7CDFF00BFDC06002000440040D8
:100C500000B591B02822002106A804F0ABFD0023C6
:100C600001930293039304930593022306930123B4
:100C70000A9310230B9306A800F0DCFE68B90F233B
:100C800001930021029103910491059101A801F0C3
:100C900003F920B911B05DF804FBFFF7A1FFFFF7DE
:100CA0009FFF000038B500F0D3F9FFF7D1FFFFF741
:100CB0007FFFFFF797FFFFF7B1FF104800F04CF8F8
:100CC00000241034E4B20D4D22460021284600F0E5
:100CD00027F822460121284600F022F82246022168
:100CE000284600F01DF822460321284600F018F897
:100CF0004FF47A7000F0D0F9E3E700BF240700203A
:100D000000B585B08DF80F104FF0FF33009301232D
:100D10000DF10F02002100F0BBFD05B05DF804FBF2
:100D200010B584B0044649B24B0043F058038DF827
:100D30000C3049018DF80D108DF80E204FF0FF3367
:100D40000093032303AAC02100F0A2FD082120463E
:100D5000FFF7D6FF04B010BD10B586B004461848A2
:100D600001F0F0F906212046FFF7CAFF09212046CD
:100D7000FFF7C6FF50238DF80C3001230FE0590018
:100D800001F119026A44002002F80C0C5A1ED2B27A
:100D900012011831694401F80C2C0133DBB2042B29
:100DA000EDD94FF0FF330093092303AAC021204659
:100DB00000F06EFD08212046FFF7A2FF06B010BD2F
:100DC0007885000882B00E4B9A6942F001029A6160
:100DD0009A6902F001020092009ADA6942F08052A8
:100DE000DA61DB6903F080530193019B054A536884
:100DF00023F0E06343F00073536002B0704700BF1C
:100E0000001002400000014010B586B0002302939C
:100E10000393049305930268114B9A4201D006B0E4
:100E200010BD104CA36943F00803A361A36903F04C
:100E300008030093009BC023029312230393032310
:100E4000059302A9084800F0A5F9E36943F40013EB
:100E5000E361E36903F400130193019BDFE700BF43
:100E60000054004000100240000C014010B586B054
:100E7000002302930393049305930268164B9A424E
:100E800001D006B010BD03F5E633DA6942F4003252
:100E9000DA61DA6902F400320092009A9A6942F04B
:100EA00004029A619B6903F004030193019B0423EC
:100EB00002930223039303230593084C02A92046BF
:100EC00000F068F90823029300230393049302A916
:100ED000204600F05FF9D4E70044004000080140DC
:100EE000FEE7FEE7FEE7FEE7FEE770477047704764
:100EF00008B500F0BFF808BD0120704708B504F040
:100F0000E9FC162303604FF0FF3008BD08B54FF031
:100F1000FF31FFF7F3FFFEE770B50C4616460025DC
:100F200006E0AFF30080214601F8010B01350C46C5
:100F3000B542F6DB304670BD70B50C46164600254E
:100F400004E014F8010BAFF300800135B542F8DB83
:100F5000304670BD4FF0FF3070474FF400534B6088
:100F600000207047012070470020704710B50346ED
:100F70000C4A0D490D48006840B10C480068034414
:100F8000521A934206D8094A136010BD0748084C0C
:100F90000460F2E704F09EFC0C2303604FF0FF3086
:100FA000F3E700BF00500020000400007807002095
:100FB000980A002070470000FFF7FCFF0B480C491F
:100FC0000C4A002302E0D458C4500433C4188C42A5
:100FD000F9D3094A094C002301E013600432A2420C
:100FE000FBD304F07DFCFFF75DFE7047000000209E
:100FF000C0060020BC890008C0060020940A00201A
:10100000FEE7000010B504460E4B1A784FF47A73D1
:10101000B3FBF2F30C4A1068B0FBF3F000F0A6F853
:1010200068B90F2C01D901200AE0002221464FF0B7
:10103000FF3000F08BF8054B1C60002000E0012021
:1010400010BD00BF040000200000002008000020A8
:1010500008B5074A136843F010031360032000F03B
:1010600063F80F20FFF7CEFFFFF7ACFE002008BDAE
:1010700000200240034A1168034B1B780B441360A5
:10108000704700BF7C07002004000020014B186857
:10109000704700BF7C07002038B50446FFF7F6FF15
:1010A0000546B4F1FF3F02D0044B1B781C44FFF708
:1010B000EDFF401BA042FAD338BD00BF0400002062
:1010C000002808DB0901C9B200F1604000F5614069
:1010D00080F80013704700F00F000901C9B2014BFE
:1010E0001954704714ED00E000B500F00700C0F19E
:1010F000070CBCF1040F28BF4FF0040C031D062B96
:101100000FD9C31E4FF0FF3E0EFA0CF021EA00018A
:1011100099400EFA03FE22EA0E0241EA02005DF84F
:1011200004FB0023EEE70000074AD36823F4E063E2
:101130001B041B0C000200F4E060034343F0BF6398
:1011400043F40033D360704700ED00E010B504466F
:10115000054BD868C0F30220FFF7C6FF01462046C2
:10116000FFF7AEFF10BD00BF00ED00E00138B0F1A9
:10117000807F0BD24FF0E0235861054AF02182F8BE
:1011800023100020986107221A61704701207047E0
:1011900000ED00E070B582B00024A446A1E07E4DD1
:1011A000AB4214D00CD8A5F58015AB420FD005F595
:1011B0007025AB420BD0A5F58015AB4210D106E0EF
:1011C000764DAB4203D005F58035AB4208D18B6834
:1011D000002B50D0012B49D04261082400E0CC689C
:1011E000BEF1FF0F49D806464FEA8C0233680F253F
:1011F000954023EA050304FA02F2134333604B6877
:1012000013F0805F6BD0664B9A6942F001029A61DD
:101210009B6903F001030193019B4FEA9C02951C1B
:10122000604B53F825600CF00305AD000F23AB4075
:1012300026EA03065C4B984226D003F58063984269
:1012400000F08C8003F58063984200F0898003F5FC
:101250008063984216D0042317E0CC680434BFE7BB
:10126000CC680834BCE7CC680C34B9E702610824C8
:10127000B6E70024B4E70424B2E7061DACF1080287
:101280009200B3E7032300E00023AB403343023274
:10129000444D45F822304B6813F4801F62D0434A16
:1012A000936843EA0E0393604B6813F4001F5FD00A
:1012B0003E4AD36843EA0E03D3604B6813F4003F01
:1012C0005CD03A4A536843EA0E0353604B6813F408
:1012D000803F59D0354A136843EA0E0313600CF17E
:1012E000010C0B6833FA0CF254D0012202FA0CF212
:1012F00003EA020E32EA0303F1D14B68122B3FF6E8
:101300004EAF122B3FF66CAF01A555F823F000BF8E
:10131000CF110008DF1100086112000873120008E5
:10132000E1110008E1110008E1110008E1110008D5
:10133000E1110008E1110008E1110008E1110008C5
:10134000E1110008E1110008E1110008E1110008B5
:10135000E11100085B12000867120008012394E7FE
:10136000022392E7114A936823EA0E0393609BE7F6
:101370000E4AD36823EA0E03D3609EE70B4A5368F4
:1013800023EA0E035360A1E7084A136823EA0E0319
:101390001360A4E702B070BD0000221000003110FD
:1013A000001002400000014000080140000401401C
:1013B00003685A6912F4806F01D1002070476FF4FE
:1013C00080625A6100230363202280F83D2080F868
:1013D0003E30026C42F00402026480F83C3001208E
:1013E00070472DE9F04106460C46174698463BE00B
:1013F000FFF74CFE069BC01A404502D8B8F1000F1B
:1014000032D1012D18D033689B6924EA03039BB2C3
:10141000B3FA83F35B099F4226D100233363202272
:1014200086F83D2086F83E30326C42F0200232646D
:1014300086F83C30012027E033685B6924EA030327
:101440009BB2B3FA83F35B09E5E733685B6924EA8F
:10145000030C1FFA8CFCBCFA8CFC4FEA5C1C674541
:1014600011D1B8F1FF3FC3D1C4F30745012DECD032
:1014700033689B6924EA030C1FFA8CFCBCFA8CFCD1
:101480004FEA5C1CEBE70020BDE8F0812DE9F84352
:1014900005460E469046994653E01A6842F400729B
:1014A0001A602B686FF480625A6100232B6320223C
:1014B00085F83D2085F83E302A6C42F004022A640B
:1014C00085F83C3001204AE0FFF7E0FDA0EB090081
:1014D000404502D8B8F1000F33D1012F17D02B6847
:1014E0009B6926EA03039BB2003B18BF012343B369
:1014F00000232B63202285F83D2085F83E302A6C9E
:1015000042F020022A6485F83C30012027E02B6855
:101510005B6926EA03039BB2003B18BF0123E6E7A1
:101520002B689C6926EA0404A4B2003C18BF01247D
:10153000A4B12B685A6912F4806FAED1B8F1FF3FA5
:10154000C2D1C6F30747012FEAD12B685C6926EAAE
:101550000404A4B2003C18BF0124E9E70020BDE860
:10156000F8830000F0B583B004460D4616461F46CA
:10157000C36A082B0DD0012B0BD013F5803F08D088
:10158000036B122B0AD10268136843F48073136053
:1015900004E02268136843F48073136000973346B5
:1015A00000224FF001112046FFF71BFF80B923698D
:1015B000B3F5804F16D1236805F0FE051D613B464B
:1015C000324613492046FFF761FFF8B903B0F0BD7A
:1015D00023681B6813F4807F02D04FF400732364E8
:1015E0000320F3E7EB11226803F0060343F0F00356
:1015F00013613B46324607492046FFF747FF18B9BB
:101600002368EDB21D61DAE70120DFE70120DDE7A5
:10161000020001000800010070B504460D461646A0
:1016200023685B6913F0800F21D12046FFF7C0FECD
:10163000F8B9B5F1FF3FF3D0FFF728FD801BA842B2
:1016400001D8002DECD123685B6913F0800FE7D13E
:1016500000232363202284F83D2084F83E30226C4E
:1016600042F02002226484F83C30012000E0002097
:1016700070BD0120FCE770B504460D461646236890
:101680005B6913F0040F21D12046FFF791FEF8B9F2
:10169000B5F1FF3FF3D0FFF7F9FC801BA84201D85A
:1016A000002DECD123685B6913F0040FE7D1002310
:1016B0002363202284F83D2084F83E30226C42F0DF
:1016C0002002226484F83C30012000E0002070BD3C
:1016D0000120FCE7002800F0CC8070B5044690F8AB
:1016E0003D30002B77D0242384F83D3022681368E6
:1016F00023F0010313602268136843F4004313606E
:101700002268136823F40043136000F081FC6268D0
:101710005A4B9A4264D85A4B98428CBF00230123FB
:10172000002B40F0A8805749A1FB00318B0C2568A5
:101730006A6822F03F0242EA91426A6021680A6ABE
:1017400022F03F0266684D4DAE424FD8013313433D
:101750000B622168CA6922F44F4222F0FF026568D9
:10176000464B9D424CD8431E6D00B3FBF5F301334D
:1017700040F6FC70034278D0C3F30B031A43CA61EE
:1017800021680B6823F0C003E269206A0243134317
:101790000B6021688B6823F4034323F0FF03226965
:1017A000E068024313438B602168CB6823F0FF039A
:1017B0006269A06902431343CB602268136843F057
:1017C0000103136000202064202384F83D3020634F
:1017D00084F83E0070BD80F83C30FFF715FB82E7CF
:1017E000294B98428CBF0023012399E74FF496754B
:1017F00005FB03F3254DA5FB03539B090133A6E726
:10180000A668BEB9431E05EB450CB3FBFCF30133E0
:10181000C3F30B03B3FA83F35B0943BBC6B9431E9F
:1018200005EB4505B3FBF5F30133C3F30B0343F4B9
:101830000043A3E7431E05EB850C0CEB8C0CB3FBBC
:10184000FCF30133C3F30B03B3FA83F35B09E4E75F
:10185000431E05EB850505EB8505B3FBF5F3013369
:10186000C3F30B0343F4404388E7042386E70123D3
:1018700084E7012070470120ACE700BFA08601008B
:101880007F841E0083DE1B43FF083D00D34D6210A2
:101890002DE9F04385B004460F46914698460C9ECC
:1018A000FFF7F4FB054694F83D00C0B2202804D0B1
:1018B0000227384605B0BDE8F083009519230122C0
:1018C0004F492046FFF78DFD002840F0928094F8A4
:1018D0003C30012B00F08F80012384F83C302368DA
:1018E0001A6812F0010F03D11A6842F001021A605F
:1018F0002268136823F400631360212384F83D30C9
:10190000102384F83E3000232364C4F82490A4F804
:101910002A80638D23853B4BE3622B463246394652
:101920002046FFF71FFE0746002866D100230393D9
:1019300023685A6903929B690393039B11E0236C0C
:10194000042B01D00127B4E72268136843F4007325
:101950001360F7E72A4631462046FFF78CFE002841
:101960002ED1238D002B36D02A4631462046FFF754
:1019700053FE0028E3D1626A236812781A61606A14
:10198000431C6362618D89B2013989B26185238DFF
:10199000013B9BB223852268516911F0040FD9D015
:1019A000002BD7D043781361636A01336362638D80
:1019B0009BB2013B9BB26385238D013B2385C9E725
:1019C000236C042B01D0012773E72268136843F4CA
:1019D00000731360F7E72268136843F40073136021
:1019E000202384F83D30002384F83E3084F83C30D6
:1019F0005FE702275DE702275BE7012759E700BFA2
:101A0000020010000000FFFF82B0084B1B68084A6C
:101A1000A2FB03235B0A00FB03F3019300BF019BBE
:101A20005A1E0192002BF9D102B07047000000202D
:101A3000D34D6210002800F0F18170B582B00446E9
:101A4000036813F0010F2CD0994B5B6803F00C0373
:101A5000042B1DD0964B5B6803F00C03082B12D0AF
:101A60006368B3F5803F41D0002B55D103F180432B
:101A700003F504331A6822F480321A601A6822F4DB
:101A800080221A6037E08A4B5B6813F4803FE7D00E
:101A9000874B1B6813F4003F03D06368002B00F0F2
:101AA000BF81236813F0020F75D0814B5B6813F080
:101AB0000C0F5FD07E4B5B6803F00C03082B54D0F7
:101AC0002369002B00F08A807A4B01221A60FFF70D
:101AD000DDFA0546764B1B6813F0020F75D1FFF750
:101AE000D5FA401B0228F5D903209EE1704A1368FD
:101AF00043F480331360636843B3FFF7C7FA0546C6
:101B00006B4B1B6813F4003FCBD1FFF7BFFA401BB0
:101B10006428F5D9032088E1B3F5A02F09D0644BE0
:101B20001A6822F480321A601A6822F480221A603D
:101B3000E1E703F18043A3F53C331A6842F48022C5
:101B40001A601A6842F480321A60D4E7FFF79EFAEE
:101B50000546574B1B6813F4003FA2D0FFF796FAD7
:101B6000401B6428F5D903205FE1514B5B6813F4F7
:101B7000803FA5D14E4B1B6813F0020F03D02369A1
:101B8000012B40F04F814A4A136823F0F803616942
:101B900043EAC1031360236813F0080F33D0A3692D
:101BA000002B5CD0434B0122C3F88024FFF76EFA70
:101BB00005463F4B5B6A13F0020F21D1FFF766FA2F
:101BC000401B0228F5D903202FE1394A136823F07E
:101BD000F803616943EAC1031360DCE7354B002277
:101BE0001A60FFF753FA0546314B1B6813F0020FDA
:101BF000D1D0FFF74BFA401B0228F5D9032014E19E
:101C00000120FFF701FF236813F0040F00F0968016
:101C1000274BDB6913F0805F34D1254BDA6942F042
:101C20008052DA61DB6903F080530193019B012547
:101C3000214B1B6813F4807F26D0E368012B3DD035
:101C4000002B53D103F1804303F504331A6A22F0C9
:101C500001021A621A6A22F004021A6233E0154B7A
:101C60000022C3F88024FFF711FA0546104B5B6A87
:101C700013F0020FC7D0FFF709FA401B0228F5D96D
:101C80000320D2E00025D3E70B4A136843F48073A6
:101C90001360FFF7FBF90646074B1B6813F4807FC0
:101CA000CBD1FFF7F3F9801B6428F5D90320BCE002
:101CB0000010024000004242007000405F4A136A78
:101CC00043F001031362E36833B3FFF7DFF906461D
:101CD0005A4B1B6A13F0020F2FD1FFF7D7F9801B65
:101CE00041F288339842F3D903209EE0052B09D0B6
:101CF000524B1A6A22F001021A621A6A22F0040296
:101D00001A62E0E74D4B1A6A42F004021A621A6A3C
:101D100042F001021A62D6E7FFF7B8F90646474BD0
:101D20001B6A13F0020F08D0FFF7B0F9801B41F2D5
:101D300088339842F3D9032077E0E5B9E369002BB3
:101D400072D03E4A526802F00C02082A56D0022B8A
:101D500017D03B4B00221A66FFF798F90446374B21
:101D60001B6813F0007F47D0FFF790F9001B022893
:101D7000F5D9032059E0314AD36923F08053D36168
:101D8000DCE72F4B00221A66FFF780F905462B4B44
:101D90001B6813F0007F06D0FFF778F9401B02287C
:101DA000F5D9032041E0236AB3F5803F1AD02349D7
:101DB0004B6823F47413226A606A024313434B6036
:101DC0001F4B01221A66FFF761F904461B4B1B6883
:101DD00013F0007F0ED1FFF759F9001B0228F5D947
:101DE000032022E0154A536823F40033A1680B4313
:101DF0005360DCE7002018E0002016E0012B16D02D
:101E00000E4B5B6803F48031226A914211D103F4D6
:101E10007013626A93420ED1002006E001207047E1
:101E2000012002E0012000E0002002B070BD01208E
:101E3000FBE70120F9E70120F7E700BF00100240AF
:101E4000000042420F4B5B6803F00C02082A01D0ED
:101E50000D487047C3F383420C49885C13F4803FFC
:101E60000BD0084B5B68C3F34043094AD35C064A76
:101E700002FB00F0B0FBF3F07047064B03FB00F0F1
:101E8000704700BF0010024000127A00548700081B
:101E90005087000800093D00002800F0A08070B5C0
:101EA0000D460446524B1B6803F007038B420BD2CE
:101EB0004F4A136823F007030B431360136803F0C2
:101EC00007038B4240F08D80236813F0020F17D078
:101ED00013F0040F04D0474A536843F4E06353609F
:101EE000236813F0080F04D0424A536843F4605348
:101EF0005360404A536823F0F003A1680B435360DA
:101F0000236813F0010F31D06368012B20D0022B1E
:101F100025D0384A126812F0020F64D035494A6859
:101F200022F0030213434B60FFF7B0F80646314B33
:101F30005B6803F00C036268B3EB820F16D0FFF707
:101F4000A5F8801B41F288339842F0D9032045E080
:101F5000284A126812F4003FE0D101203EE0254AF1
:101F6000126812F0007FD9D1012037E0204B1B68A6
:101F700003F00703AB420AD91D4A136823F0070395
:101F80002B431360136803F00703AB422DD1236882
:101F900013F0040F06D0174A536823F4E063E16896
:101FA0000B435360236813F0080F07D0114A53689E
:101FB00023F46053216943EAC1035360FFF742FFF2
:101FC0000C4B5B68C3F303130B4AD35CD8400B4B39
:101FD00018600B4B1868FFF715F8002070BD012042
:101FE00070470120FAE70120F8E70120F6E700BF7B
:101FF000002002400010024040870008000000203E
:1020000008000020014B1868704700BF0000002046
:1020100008B5FFF7F7FF044B5B68C3F30223034ADD
:10202000D35CD84008BD00BF0010024038870008CC
:1020300008B5FFF7E7FF044B5B68C3F3C223034A0D
:10204000D35CD84008BD00BF0010024038870008AC
:1020500010B504460268136923F44053C1680B436A
:10206000136183680269134342691A430168CB68AC
:1020700023F4B05323F00C031343CB60026853697D
:1020800023F4407381690B4353610268134B9A42F6
:1020900020D0FFF7BDFF024602EB820202EB820274
:1020A00063689B00B2FBF3F20D48A0FB02314909C3
:1020B000642303FB11231B013233A0FB03035B09E1
:1020C00003F0F00202EB011203F00F032168134446
:1020D0008B6010BDFFF7ACFF0246DDE70038014022
:1020E0001F85EB5160B310B5044690F8413013B32F
:1020F000242384F841302268D36823F40053D3604A
:102100002046FFF7A5FF2268136923F4904313616B
:102110002268536923F02A0353612268D36843F489
:102120000053D36000206064202384F8413084F899
:102130004230606310BD80F84030FEF797FED7E76D
:10214000012070470FB400B5074A83B004AB106894
:1021500053F8042B8168019300F008F803B05DF890
:1021600004EB04B0704700BF840100202DE9F04F5C
:10217000DDB0914609911C4683460F9303F0A6FB00
:1021800003681846199303F027FC082218900021D1
:102190002CA803F00FFBBBF1000F04D0DBF83430A8
:1021A000002B01F03480099B5A6EB3F90C30D5072F
:1021B00002D4980540F16986990407D4099943F43B
:1021C00000534A6E8B8122F400524A661A0740F18E
:1021D000C880099A1269002A00F0C38003F01A022D
:1021E0000A2A00F0CD80002300249E46CDE9313339
:1021F000002333AACDE91634DA4614464D46CDE91C
:102200001BEE3092CDF868E0CDF880E0CDF874E0B8
:10221000CDF82CE0CDF848E02F468B4BD3F8E460A6
:1022200003F04EFB0DF1B00C03463A46504628A988
:10223000CDF800C0B047002800F0C180C0F2B780E0
:10224000289B252B01D00744E7E7B7EB0508064696
:1022500040F0B98000224FF0FF3393460A937B7819
:102260007E1C8DF897200C9299460136A9F1200327
:102270005A2B00F2EB80DFE813F0F702E900E900E7
:10228000F302E900E900E900D502E900E9006A008B
:102290006602E90062026F02E9006B025B005B000C
:1022A0005B005B005B005B005B005B005B00E900C8
:1022B000E900E900E900E900E900E9006101E9005D
:1022C000F1013503610161016101E900E900E90003
:1022D000E9003103E900E9000103E900E900E90050
:1022E0000A02E9001F03E900E900C806E900E90065
:1022F000E900E900E900E900E900E9006101E9001D
:10230000F1013B0261016101610115033B02ED0135
:10231000E9004D03E900BB02C3068C02ED01E900B0
:102320000A027200C506E900E900E906E900720048
:102330000022A9F1300316F8019B02EB820203EBA5
:102340004202A9F13003092BF5D90C928EE70F9BBD
:1023500053F8042B002A0C920F93C0F2ED813378CE
:1023600082E7099D5846294603F0D6F8002841F037
:102370009D83B5F90C3003F01A020A2A7FF433AFBB
:102380000999B1F90E20002AFFF62DAF4A6ED50744
:1023900002D4980541F1E28023464A4658460999FD
:1023A00001F0DCFC0B900B985DB0BDE8F08F0822CB
:1023B00000212CA803F0FEF9012007442DE7B7EB1C
:1023C0000508064610D0329BC4E9005843443293B6
:1023D000319B0133072B319310DC08340B9B4344B2
:1023E0000B93002E7FF436AF329B002B41F08F8091
:1023F0000022099B3192B3F90C3019E0504609993B
:1024000030AA01F027FD80B933ACE7E750460999BF
:1024100030AA01F01FFD002800F08580D3460E9BF6
:102420001BB158460E9904F0C1FB099BB3F90C305F
:10243000099A526ED10740F103815B0601F1428394
:102440000B985DB0BDE8F08F180000201096B9F130
:10245000000FC9D0012300228DF80C91069343ADE3
:102460008DF897200D93CDE913220E920A921192C6
:102470001BF0020302D00699023106911BF084087A
:10248000329E05D10C9906980F1A002F00F39B80FD
:102490006AB101226260319A013601320DF1970171
:1024A000072A32963192216000F3BE83083463B16B
:1024B00002236360319B0236013326AA072B329632
:1024C0003193226000F3BD830834B8F1800F00F02F
:1024D000C2820A9B0D9A9F1A002F00F3FD821BF403
:1024E000807F40F021820D9B25601E446360319BFC
:1024F00032960133072B319300F32F8308341BF0FE
:10250000040F05D00C9B069A9D1A002D00F3A4839E
:10251000DDE90B3206998A42ACBF9B185B180B931E
:10252000002E7FF473AF002331930E9B1BB15046F6
:102530000E9904F03BFB33AC109D6DE60F9B10969B
:10254000073323F00703F3E802670F9327F00043F4
:102550001F931E964FF0FF32DDE91E01AC4BCDE913
:102560001667FEF7A1FA002840F0F484DDE91E01A9
:102570004FF0FF32A64BFEF779FA002840F0EA84CC
:102580000022002330463946FEF766FA002841F063
:10259000F1809DF89720002103209E4D9E4B2BF04B
:1025A000800B0E910690B9F1470FD8BF1D46CDE9BB
:1025B00013110A910D901191002A3FF459AF069B17
:1025C0000133069354E7102F319A41F3F481DFF879
:1025D0004CC221463046099C2E46CDF854C0654673
:1025E000219304E0103F102F01F1080116DD1023A4
:1025F00001321030072ACDE931200D604B60F1DD4A
:102600002146504630AA01F025FC00287FF406AF91
:10261000DDE93120103F102F33A9E8DC35460C46A8
:102620000646219B013215993E44072ACDE9312601
:102630002160676000F3DB859DF89720083427E769
:102640009A053FF5FAAE099CA06D03F077F9B4F94D
:102650000C30F2E633784BF0200B05E60F9BB9F116
:10266000430F109603F1040600F01C851BF0100FB9
:1026700040F018850F9B43AD1B688DF80C3101238A
:1026800006930D9300220F968DF89720EBE600231A
:102690000F9F109657F8045B8DF89730002D00F0CF
:1026A000F084B9F1530F00F0C8851BF010031193AB
:1026B00040F0C3850A9B002BC0F216871A462846B5
:1026C000119903F03DF90E90002801F0A5820E9BB0
:1026D00011995B1B0D9323EAE3734FF07309CDE966
:1026E00013119DF897200F970A9106930E9163E7B7
:1026F0001BF0200F109600F0FC800F9B073323F097
:1027000007031846596850F8083B0A460F900029FD
:10271000C0F2FF830A990029C0F2728253EA0201D3
:102720002BF0800740F06D820A9A002A40F06E82FA
:10273000BB460D925CAD65E10C9B5B420C9333781C
:102740004BF0040B90E52B238DF8973033788BE515
:1027500033784BF0800B87E5314611F8019BB9F1D6
:102760002A0F01F0CD82A9F13003092B98BF002276
:1027700001F2298111F8019B02EB820203EB420274
:10278000A9F13003092BF5D942EAE2730E460A9308
:102790006CE547F630030F9AADF8983052F8043BD9
:1027A00002210F924FF0780900221D4810964BF03D
:1027B00002071A9000200A9D8DF89700002DC0F2A4
:1027C0000A8153EA020027F0800B40F00381002DBC
:1027D00040F02285002940F0998417F001030D9301
:1027E00000F0858330230DF26F158DF86F3109E10C
:1027F0001BF0200F109600F095830F9B0B9A1B681F
:102800001A60D2175A600F9B04330F9394E600BFEF
:10281000FFFFEF7F8485000880850008748700082B
:1028200090850008504603F051F8436818461D9300
:1028300003F0D2F820900746504603F047F883682B
:102840001B93002F3FF48BAD1B9A3378002A3FF483
:102850000BAD1278002A3FF407AD4BF4806B03E513
:1028600033784BF0010BFFE49DF897203378002A72
:102870007FF4FAAC20228DF89720F5E410964BF007
:10288000100B1BF0200200F0E3820F9B073323F0B4
:10289000070319465A6851F8083B0F9100212BF4A1
:1028A000806787E73378682B03BF73784BF4007B2E
:1028B00001364BF0400BD7E410964BF0100717F0A1
:1028C000200200F0D4820F9B0121073323F007037D
:1028D00018465A6850F8083B0F906BE733784BF076
:1028E000080BC1E44BF0100B1BF0200F10967FF487
:1028F00004AF0F9A1BF0100F52F8043B0F9240F0F8
:1029000003831BF0400F00F0FB8243F3C0321146FB
:102910001BB2FCE633786C2B03BF73784BF0200BB3
:1029200001364BF0100B9FE4B9F1650F40F32081A5
:10293000DDE9160100220023FEF784F8002800F0EC
:10294000C68101236360319BB54A01330136072BF1
:1029500032963193226000F364840834279B129AE4
:10296000934280F29A82189B199A1E44C4E900236C
:10297000319B32960133072B319300F37783083470
:10298000129B5D1E002D7FF7BAAD102D319B40F3D9
:10299000D880DFF890921027DDF82480CDF854908D
:1029A00004E00834103D102D40F3CD800133103683
:1029B000072BC4E90097CDE93136F2DD4146504698
:1029C00030AA01F047FA00287FF428ADDDE931365E
:1029D00033ACE7E75F46012900F0138102295CADC3
:1029E0001ED11A9803F00F01415C1B0943EA0273E0
:1029F000120905F8011D53EA0201F3D1BB465CAB95
:102A00005B1B0D930A9A0D9900238A42B8BF0A46B0
:102A1000CDE9133306920E939DF897201193CBE5E1
:102A200003F00701DB0843EA4273D208303153EA6E
:102A30000206284605F8011DF2D1FE07DED5302931
:102A4000DCD03023023805F8013C5CAB1B1ABB46D6
:102A500005460D93D6E70C9B069A9F1A002F7FF729
:102A600038AD102F319B41F384806E4822463146A9
:102A70004FF010080646099C159004E0103F102FF7
:102A800002F1080215DD01331031072BC2E900689D
:102A9000CDE93131F2DD2146504630AA01F0DAF9B4
:102AA00000287FF4BBACDDE93131103F102F33AA91
:102AB000E9DC14460E460133159A3E44072BCDE956
:102AC00031362260676000F3C5820A9B0D9A083494
:102AD0009F1A002F7FF703AD524A102F319B15929A
:102AE00023DD32464FF010082E46099D04E0103FCA
:102AF000102F04F1080416DD01334A491032072B68
:102B0000C4E90018CDE93132F1DD2946504630AA3A
:102B100001F0A0F900287FF481ACDDE93132103FEB
:102B2000102F33ACE8DC354616460133159A3E4487
:102B3000072BCDE931362260676000F37D810834D0
:102B4000CDE4384A1592159A01332E44072B2260A2
:102B50006560CDE931367FF7D1AC5046099930AA8E
:102B600001F078F900287FF459AC329E33ACC6E40A
:102B7000129B319F012B06F1010607F1010704F1B9
:102B8000080940F315810123072FCDE9317625602F
:102B9000636000F3CC82189B0137199A1E44072FFB
:102BA000C9E90023CDE9317600F3B48209F10809BF
:102BB000129B0022DDE916015C1E0023FDF742FF97
:102BC000002840F00E81013701352644072FCDE95A
:102BD0003176C9F80050C9F8044000F3F58009F1D6
:102BE00008091C9B01371E44C9F80430072F2AAB83
:102BF000CDE93176C9F80030AFDC09F108047EE494
:102C00005F460A2B72F1000180F09E8230338DF80E
:102C10006F310123BB460D930DF26F15F2E600BF35
:102C2000C0850008648700085046099930AA1593AA
:102C300001F010F900287FF4F1AB329E159B33AC04
:102C400035E45046099930AA01F004F900287FF4D0
:102C5000E5AB329E33AC38E4102D319B40F337871F
:102C6000DFF8E4821027DDF82490CDF8548004E0EA
:102C7000103D102D04F1080415DD01331036072B2B
:102C8000C4E90087CDE93136F2DD4946504630AA25
:102C900001F0E0F800287FF4C1ABDDE93136103DEA
:102CA000102D33ACE9DC0133159A2E44072BC4E90F
:102CB0000025CDE931367FF72BAC5046099930AA73
:102CC00001F0C8F800287FF4A9AB329E20E42799D0
:102CD000002940F3E780DDE911839845A8BF9846B5
:102CE000B8F1000F0ADD319B46440133072BC4E9DC
:102CF00000583296319300F345860834119FB8F19D
:102D0000000FA8BFA7EB0807002F00F31E83DDF814
:102D100044901BF4806FA94440F05185279B129A80
:102D20009342C0F2D7811BF0010F40F0D381129A79
:102D3000AF18A7EB0907D51AAF42A8BF2F46002F3F
:102D40000BDD319B3E440133072BC4F800906760D4
:102D50003296319300F37A860834002FA8BFED1B1A
:102D6000002D7FF7CCAB102D319B7FF7EAAEDFF85B
:102D7000DC911027DDF82480CDF8549004E008346D
:102D8000103D102D7FF7DFAE01331036072BC4E95D
:102D90000097CDE93136F2DD4146504630AA01F0C8
:102DA00059F800287FF43AABDDE9313633ACE7E778
:102DB0001BF0010F7FF4E7AE0123072FCDE9317639
:102DC000256063607FF70DAF5046099930AA01F086
:102DD00041F800287FF422ABDDE931760DF1CC0912
:102DE000FFE6129B012B7FF7FCAE112B40F39B8774
:102DF000564BCDF828B010259B46DDF8248015935E
:102E000005E009F10809103C102C40F3C482013799
:102E10001036072FC9E900B5CDE93176F1DD41461D
:102E2000504630AA01F016F800287FF4F7AADDE931
:102E300031760DF1CC09E6E75046099930AA01F048
:102E400009F800287FF4EAAA329E33ACFFF747BBAB
:102E50000F9951F8043B0F911BF010017FF41EAD48
:102E60001BF0400000F0A6820A469BB216E50F99BF
:102E700051F8043B0F9117F010013FD117F04000BB
:102E800037D00A469BB2012194E4099DA86D02F057
:102E900053FDB5F90C30FFF78FB91BF0010F3FF46C
:102EA0002EAB60E501236360319B294A0133013673
:102EB000072B32963193226000F3478508340029AE
:102EC00040F02482129A0BF0010313433FF417AB36
:102ED000189B199A1E44C4E90023319B3296013392
:102EE000072B319300F32D8304F108021FE25CAD40
:102EF00088E517F400721CBF0246DBB2012159E4D9
:102F00001BF4007F40F0EA82DA1711460029BFF671
:102F100001AC5B425F464FF02D004FF0010162EBC8
:102F2000420248E41BF0100F40F0EA811BF0400F12
:102F300040F0CE821BF4007F00F0E2810F9B0B9AE1
:102F40001B681A705FE400BF74870008648700087C
:102F5000C0850008DDE9160102460B46FDF7A4FD19
:102F6000002840F04086B9F1610F00F00985B9F101
:102F7000410F00F0D6820A9B013300F0FE8529F054
:102F80002003472B00F0B7850E90DDE91612002ACA
:102F900013464BF48078C0F2C48400231593DDE916
:102FA0001623CDE92223A9F14103252B00F20F823C
:102FB000DFE813F01E030D020D020D02D902AB0370
:102FC0000D020D020D020D020D020D020D020D0289
:102FD0000D020D020D020D020D020D020D020D0279
:102FE0000D020D020D020D020D020D020D020D0269
:102FF0000D020D021E030D020D020D02D902AB03DC
:1030000010963EE45F46109659E4B94B10961A9319
:103010001BF020026CD00F9B073323F007031946E7
:103020005A6851F8083B0F911BF0010F09D053EA81
:10303000020106D030218DF899904BF0020B8DF8EB
:10304000981002212BF48067FFF7B4BBA94B1096B0
:103050001A93DDE75046099930AA00F0FBFE0028DC
:103060007FF4DCA9329E33ACFFF733BA504609999E
:1030700030AA00F0EFFE00287FF4D0A9329E33ACD6
:103080007EE40A9B2946062B28BF06232A460A957A
:103090000E95CDE91311984D06930F970D9311914D
:1030A000FFF78ABA082200212EA802F083FB0F9AAC
:1030B00043AD2EAB29465046126802F0BBFC0346D6
:1030C00001330D9000F027860D9B23EAE3730693EE
:1030D000FFF7D8BA189A19991644C4E90012319A20
:1030E00032960132072A319200F3588408341EE6E2
:1030F0000F9951F8043B0F911BF0100194D11BF074
:10310000400000F05E810A469BB28DE70A9B5CADF1
:103110000D9377E45046099930AA00F09BFE0028F1
:103120007FF47CA9DDE931760DF1CC0940E550460C
:10313000099930AA00F08EFE00287FF46FA9DDE91E
:1031400031760DF1CC0926E507F48061CDE90D74E7
:103150004FF0000E0F46DFF8A4B11B9C0DF5B87CB4
:10316000CDF8189006E00A2B72F1000237D34346DF
:103170003246AC46991841F10001ABFB010626F03E
:10318000030000EB96004FF0CC36091A581A06FBE4
:1031900000F662F10009A0FB0B800BFB09660644F8
:1031A000052008F00109A9FB000940184FEA58085A
:1031B000303048EAC6780EF1010E0CF1FF350CF8FC
:1031C000010C7608002FCED021788E45CBD1BEF1F0
:1031D000FF0FC8D00A2B72F1000280F0BE821B9450
:1031E000DDF818900D9F0E9CCDF848E006E450469F
:1031F000099930AA159300F02DFE00287FF40EA93E
:103200009DF89720329E159B33ACFFF741B9584685
:1032100001F0C0FFFEF7C7BF01295F467FF4DEABB8
:10322000F4E45046099930AA00F014FE00287FF417
:10323000F5A8329E33ACFFF791BB0DF1B808082218
:1032400000214046299502F0B5FA0A9B002BC0F2F6
:10325000758200260697CDF834B037469B460FE0BE
:103260004346504643A902F0E5FB431C06F1040621
:10327000384400F08C84584506DC00F0AD840746E5
:10328000299B9A59002AEBD1DDF834B00D97069F9F
:103290000D9B002B00F04D83632B40F31C845046A4
:1032A000591C03F07FFD0546002800F04B850E9069
:1032B00008220021404602F07DFA0D9E2946334641
:1032C0005046CDF8008029AA02F0DAFB864240F091
:1032D000328500230D9ACDE9133322EAE271AB5413
:1032E0009DF897200F9706910A931193FFF764B901
:1032F000A485000890850008B8850008CDCCCCCC0A
:103300000F9B0B9A1B681A60FFF77DBA189B199ADE
:103310001E44C4E90023319B32960133072B3193BD
:1033200000F30F8104F108020029C0F29E83129974
:1033300001330E44072BCDE93136156051603FF75C
:103340000CAC02F10804FFF7DAB8102F319B40F300
:10335000C184A54932464FF010090E46DDF824809D
:10336000159104E00834103F102F40F3D981013348
:103370001032072BC4E90069CDE93132F2DD414654
:10338000504630AA00F066FD00287FF447A8DDE92A
:10339000313233ACE7E7DDF828B00137159B26441E
:1033A000072FCDE93176C9F80030C9F804407FF71E
:1033B00016AC09E51BF400721CBF0246DBB2FFF736
:1033C0006DBA1BF400721CBF0246DBB22CE60A9BEE
:1033D00050460193022300932EAB049329AB039331
:1033E00027AB0293DDE9222302F03AFC1BF0010F28
:1033F000054640F0E4822E9B1B1A1293279B1193E3
:10340000119BDA1C03DB0A9A9A4280F2B881119B65
:10341000A9F10209013B002127935FFA89F2002BF1
:103420008DF8A820B6BF2D222B22119B8DF8A92044
:10343000B8BFC3F10103092B40F375830DF1BF073A
:103440003A46DFF8A8C11E461046ACFB0321C90866
:1034500001EB8102A3EB42023032632E00F8012C13
:103460000B4600F1FF32EEDC303302F8013C831EE4
:10347000BB4280F01D840DF1A90213F8011BBB4271
:1034800002F8011FF9D15CAB181AA0F1AD031C932F
:10349000129B1C9A012B1A440D9240F373830D9BCF
:1034A000189A13440D932BF4806343F4807B00231C
:1034B0000D9A149322EAE272069213931193159BCC
:1034C000002B40F026819DF897200A93FFF774B8EF
:1034D0000F9B0B9A1B681A80FFF795B943F3C01234
:1034E00011465BB2FFF713B9284602F075FA119B3B
:1034F00020EAE0714FF07309CDE913339DF897206E
:103500000F970D900A9306910E93FFF755B850460A
:10351000099930AA00F09EFC00283EF469AFFEF73E
:1035200084BF58238DF8993030238DF898300A9B4A
:103530004BF0020B632B00F31183002343AD0E937A
:1035400023E55046099930AA00F084FC00287EF457
:1035500065AFDDE93136279933AAE5E6886D02F0DB
:10356000EDF9FEF719BF02230A9A01320692009381
:103570002EAB069E049329AB039327AB01960293CF
:103580005046DDE9222302F06BFB29F02007462F8D
:10359000054618BF4527064405D12B78302B00F08F
:1035A0001782279B1E440022DDE922010023FDF73C
:1035B00049FA002840F046822E9BB34206D23021C1
:1035C0005A1C2E9219702E9B9E42F9D8279A11925E
:1035D0005B1B472F12933FF413AF462F00F0068278
:1035E000119B013B17E700BF64870008CDCCCCCC12
:1035F00027AADDE9220102F04FFA00224FF07F53A3
:10360000FCF7B8FF02460B46CDE906230022002353
:10361000FDF718FA08B1012327930A9BB54A591EF2
:10362000B54BCDE91194B9F1610F08BF1A462E468A
:10363000CDF834B01395D346DDE906458946924668
:103640000A9207E000220023FDF7FCF9002840F071
:10365000FF82B9460022A94B20462946FCF78AFF83
:103660000D460446FDF736FA8046FCF719FF024680
:103670000B4620462946FCF7C5FD1AF80830B9F17B
:10368000FF3F324604460D4609F1FF3706F8013B7D
:10369000D8D117469A4B0022CDE90645DA46DDF827
:1036A0004490129CDDF834B0139DFDF7F3F9002827
:1036B00000F002830A992E9716F8012CC97B334635
:1036C0008A4209D1302003F8010C2E9B5A1E2E92FB
:1036D00013F8012C8A42F6D0392A0BBF0A9A01321C
:1036E000927AD2B203F8012C33465B1B1293279BCC
:1036F000B9F1610F119303F1FF33279300F0BC82FE
:1037000050224FF04109012189E60A9B06930323C9
:103710002DE72D2200238DF897200A93FEF74FBF47
:1037200016460133159A3E44072BCDE93136226007
:10373000676000F307820834FFF7E9BA00235046B8
:103740001946CDF8008029AA02F09AF90346013300
:103750000D9000F01C8229959AE5209B1D99ED1A89
:103760001A46284602F076F8637803B101344FF028
:10377000000EFCE42D228DF89720FEF70CBFDDE94A
:103780001123934200F3AC811BF0010F119B00F059
:103790005082189A13440D931BF4806F00F0398205
:1037A000119B4FF06709002B00F334810D9B23EA36
:1037B000E37306930023C346CDE913337FE6129BE0
:1037C0002246EB180A93139B4C46002B3146DDF83A
:1037D0005080CDF844B0DDF86C90209EDDF824B028
:1037E00014952EDDB8F1000F7DDD08F1FF3831981A
:1037F0001D9B013031440728C2E9003632913190D7
:1038000066DC08320A9B99F800001F1B8742A8BF9C
:103810000746002F0BDD3198394401300728C2E9F3
:103820000047329131906FDC99F800000832002F88
:10383000B4BF0546C51B002D15DC0444139B002BAB
:10384000D0DCB8F1000FD0DCCDF86C90A146149D0F
:10385000129B1446EB1899450E4628BF9946DDF891
:1038600044B0FFF75BBA102D3198264B23DD0D9441
:1038700010272C461D4604E0103C102C02F10802D3
:1038800016DD01301F4B10310728C2E90037CDE9A2
:103890003101F1DD5946504630AA00F0DBFA00282C
:1038A0007EF4BCADDDE93101103C102C33AAE8DC1C
:1038B0002B4625460D9C013029440728CDE93101CE
:1038C000136055604EDC99F8000008320444B5E7F7
:1038D0005946504630AA00F0BDFA00287EF49EAD4D
:1038E000329933AA8EE7139B09F1FF39013B1393F9
:1038F0007DE700BFA48500089085000800003040E7
:103900000000E03F648700085946504630AA00F0A6
:10391000A1FA00287EF482AD99F80000329933AA0A
:1039200085E722912D2103F1004315912393FFF7A1
:103930003ABB0D9B9DF89720CDE913330F97069363
:103940000A9311930E93FEF737BE5046099930AA99
:1039500000F080FA00287EF461AD2799329E33ACE6
:10396000FFF7ADBA5946504630AA00F073FA002866
:103970007EF454AD99F80000329933AA04445DE70F
:103980007823CFE55046099930AA00F063FA002861
:103990007EF444AD329E33ACFFF7B0B9504609997E
:1039A00030AA00F057FA00287EF438AD279B329EEB
:1039B00033ACFFF7BCB9B1491591FEF733BE0A9B92
:1039C0004727C618EFE500230E460A93FEF74EBCC4
:1039D0000022DDE922010023FDF734F8002800F081
:1039E0005581279B1E441193731B129311990A9AB8
:1039F0000BF00103002943EA020340F36E81002B20
:103A000040F0D1804FF06609119B0D931BF4806F3D
:103A10003FF4CCAE1B990B78FF2B00F08881002679
:103A2000119A304604E001300131FF2B00F0C380D1
:103A3000934280F2C080D21A4B78002BF3D10B78DE
:103A40000136F2E7279A33461192C1E550460999AB
:103A500030AA00F0FFF900287EF4E0AC279D129B0D
:103A6000329E33AC5D1BFFF778B94F4210314CDA10
:103A7000DFF80C821024CDF8548003E00832103FA8
:103A8000102F44DD01331036072BC2E90084CDE945
:103A90003136F3DD5046099930AA00F0DBF90028F1
:103AA0007EF4BCACDDE9313633AAE8E7099B5B6EF6
:103AB000DF0707D4099B9B899E0503D4099B986D5A
:103AC00001F03CFF4FF0FF330B93FEF7B9BC6B4A9C
:103AD0001592FFF7E8B8002343AD0E93FFF7E8BB5C
:103AE000129B189A9A18119B0D92002B40F3A380F9
:103AF0004FF067098AE70A9B002B7FF445AA0A9BCF
:103B00000E9301230A93FFF740BA5D4915910133E3
:103B100015993E44072BCDE931361160576000F30B
:103B2000BA80083203E4002940F08F8030228DF8FB
:103B3000AA200DF1AB02303302F8013B2AABD31AB5
:103B40001C93A5E45046099930AA00F083F9002897
:103B50007EF464AC329E33ACFFF7D9B85046591CA2
:103B600003F020F90546002800F0D5800E90FFF7FD
:103B70000CBA434A1592FEF79EBF06230E900A9395
:103B8000FFF703BA1BF0010F3FF48DAC87E400226E
:103B9000D346099B0E92B3F90C3043F04003099AC7
:103BA0009381FEF73CBC1346189A4FF06609134404
:103BB0000B440D932AE7CDE913061B911192DDE921
:103BC0001332209913440D9AC34601FB03230D932E
:103BD00023EAE373069372E40A9BDDF834B0069F90
:103BE0000D93FFF755BB179B0320002BB8BF2D2269
:103BF0004FF00003A8BF9DF8972019460E93214D62
:103C0000214BB8BF8DF897202BF0800B0690FEF764
:103C1000CABC4FF06709C9E50A9B4FF07309CDE9AB
:103C200013009DF897200F9706930D930A90FEF7C7
:103C3000C3BC0D93B0E5C3F101031A4422EAE27359
:103C40004FF067090D920693B4E50DF1AA0272E7F1
:103C500049460029DA46129CDDF84490DDF834B07C
:103C6000139DFFF641AD4B1C30223146334401F821
:103C7000012B8B42FBD138E5702244E574870008A4
:103C8000648700088C85000888850008069BC3F1BE
:103C90000103279386E45046099930AA00F0DAF828
:103CA00000287EF4BBABDDE9313633AAFFF73FBB1A
:103CB00002231C93FFF7ECBB0022DDE90601254B34
:103CC000FCF7C0FE00283FF40FAD18F0010F3FF4E1
:103CD0000BADEFE4204A159223E52BB901234FF0F9
:103CE000660906930D9365E5189B4FF0660903F18D
:103CF000010B0A9B5B440D9323EAE373069359E59A
:103D00000F9A73780E4652F8041B0F9241EAE17243
:103D10000A92FEF7A9BA099AB2F90C3043F04003AF
:103D20009381FEF785BB0C4B1593FFF736BB002341
:103D3000CDE9133343E7099BD346B3F90C3043F085
:103D400040032CE7099BD346B3F90C300E9043F0A7
:103D5000400324E70000E03F64870008F0B54FF41B
:103D600080640026ADF26C4D1AADCDE905461F46C4
:103D700006460095049515468B8916A823F0020384
:103D8000ADF80C304B6E02941993CB890C46ADF80C
:103D90000E30CB6907934B6A099301F0C9FD2A469F
:103DA0003B4669463046FEF7E1F9051E07DB6946EA
:103DB000304601F021F9002818BF4FF0FF35BDF85B
:103DC0000C305B0603D5A38943F04003A38116980A
:103DD00001F0B0FD28460DF26C4DF0BD2DE9F84F15
:103DE0004B6E90469C042ED5936812684BB30D46DB
:103DF000064602F1080959E9022A5FEA9A0716D035
:103E00000024A2F1040B01E0A7420ED02A4630465E
:103E10005BF8041F01F020FC431C04F10104F3D102
:103E20000023C8E90133BDE8F88FD8F808302AF03C
:103E3000030AA3EB0A03C8F8083009F10809002BAC
:103E4000D9D10020ECE701F0CFF90023C8E9013314
:103E5000BDE8F88F10B4946814B110BCFFF7BEBF72
:103E60002046546010BC704784462DE9F04F0E4642
:103E70001546E146C7B016AF0822002138461C4659
:103E8000CDE906560B9301F095FCB9F1000F04D073
:103E9000D9F83430002B00F0D086079A536EB2F96F
:103EA0000C20DE0702D4950540F1A485900407D4C8
:103EB000079942F400524B6E8A8123F400534B66FB
:103EC000110740F1BD80079B1B69002B00F0B880F3
:103ED00002F01A030A2B00F0C28000231DAA9246AA
:103EE000CDE91B33CDE91033DFF844B21A920E93BB
:103EF00008930F93069DDBF8E44001F0E1FC2A46AD
:103F0000034614A948460097A047002800F0C68041
:103F1000C0F2BC80149B252B01D00544EBE7069B27
:103F20000446EE1A40F0BE8000234FF0FF3269785D
:103F300005926C1C8DF84B30099303930134A1F169
:103F400020035A2B00F2F680DFE813F01303F4008D
:103F5000F4000D03F400F400F400ED02F400F400AA
:103F60006A003F03F40003022303F4001D035B0017
:103F70005B005B005B005B005B005B005B005B0069
:103F8000F400F400F400F400F400F400F400F40091
:103F9000F400B6014302F400F400F400F400F4006D
:103FA000F400F400F400F400F4000902F400F4005A
:103FB000F4008F01F4005C02F400F400F205F40058
:103FC000F400F400F400F400F400F400F400F40051
:103FD000F400B601DB01F400F400F400AA02DB01F6
:103FE0007400F400E402F400D5021506B302740074
:103FF000F4008F017200EF05F400F4001906F400DC
:1040000072000022A1F1300314F8011B02EB8202BE
:1040100003EB4202A1F13003092BF5D909928EE797
:104020000B9B53F8042B002A09920B93C0F28E814C
:10403000217883E7039B217843F0200303937DE7F6
:10404000079D4846294601F067FA002840F0D486CB
:10405000B5F90C2002F01A030A2B7FF43EAF079942
:10406000B1F90E30002BFFF638AF4B6EDE0702D4ED
:10407000950540F18686DDE906212346484600F095
:10408000E7FE0890089847B0BDE8F08F08220021AD
:10409000384601F08FFB012005442CE7069B0446BF
:1040A000EE1A12D0069B1C9ACAE900361B9B3244BA
:1040B0000133072B1C921B9311DC0AF1080A089BA1
:1040C00033440893002C7FF42FAF1C9B002B40F04F
:1040D00074860022079B1B92B3F90C301CE0002A67
:1040E00000F04984484607991AAAFFF777FE80B97D
:1040F0000DF1740AE3E7484607991AAAFFF76EFE26
:10410000002800F09D800C9B1BB148460C9902F0E2
:104110004DFD079BB3F90C30079A526ED10740F161
:104120009A805B0600F17486089847B0BDE8F08F6E
:104130001800002006940029C7D000238DF84B30CA
:1041400001238DF8B41004932DAC0A9300260C962D
:104150000596039BDDE91B1213F0840301F1010CAA
:1041600060460D9305D1099B049D5D1B002D00F356
:104170004F839DF84B3083B101230132CAF80430DC
:1041800007280DF14B03CDE91B02CAF8003000F3FC
:10419000098301460AF1080A0130D6B1022302322E
:1041A000CAF80430072813ABCDE91B02CAF8003067
:1041B00040F31183002A00F0FD83484607991AAAAC
:1041C000FFF70CFE00289ED1DDE91B120DF1740AE9
:1041D000481C0D9B802B00F03B82059B0A9D5D1BBC
:1041E000002D00F38F820A9B07281A44CDE91B0299
:1041F000CAF80040CAF8043040F32782002A00F0D1
:104200005083484607991AAAFFF7E8FD00287FF473
:104210007AAF1C9A0DF1740A039B580705D5099BC8
:1042200004995C1A002C00F34783DDE908310498F7
:104230008142ACBF5B181B180893002A7FF45BAF68
:1042400000231B930C9B1BB11946484602F0AEFCA1
:104250000DF1740A4EE69A053FF563AF079CA06D19
:1042600001F06CFBB4F90C305BE700230B9E069465
:1042700056F8044B8DF84B30002C00F0F68453298F
:1042800000F09A84039B13F0100540F09584059B81
:10429000002BC0F27F851A462946204601F050FBCC
:1042A0000C90002800F07285031B0A9323EAE37345
:1042B0000C95049300F036BD0B9B4329069403F143
:1042C000040503D0039BDC0640F15D840822002135
:1042D00018A801F06FFA0B9A2DAC18AB214648468E
:1042E000126801F0A7FB034601330A9000F07C85B9
:1042F0000A9B23EAE373049300230B958DF84B305C
:1043000024E7039B069498066BD50B9B073323F099
:10431000070318465A6850F8083B11460B90002ACC
:10432000C0F25881059A002AC0F26181039A22F0F6
:104330008002039253EA010240F05981059B002B51
:1043400040F0398504930A9346AC62E1099B5B42D5
:104350000993039B217843F004030393EEE5039B49
:10436000069443F0100111F0200200F007830B9B2C
:10437000073323F0070318465A6850F8083B0B90A0
:10438000002021F480640394059C8DF84B00844246
:1043900063DB53EA020421F4906140F04C84039AF9
:1043A0000391059B002B50D1002840F01A8312F096
:1043B00001020A9200F01A8330238DF817319DF81C
:1043C0004B3004920DF21714002B40F027810C9310
:1043D00029E1039B069443F010030393039B980683
:1043E00093D403990B9AC90652F8043B00F17D83DC
:1043F00003994E0640F1438443F3C0310B921BB244
:104400000A468CE7039B069443F0100212F0200149
:1044100000F0C3820B9B073323F00703184659684B
:1044200050F8083B0B9000208DF84B0005980028B1
:10443000C0F2FA8222F08000039053EA010040F0BB
:10444000D680059B0120002BAED0012800F0B3845C
:10445000002302281A4600F0C48146AC03F007018D
:10446000DB0843EA4273D208303153EA02052046A2
:1044700004F8011DF2D1039BDD0740F1C081302912
:1044800000F0BD813023059A023804F8013C46ABA8
:104490001B1A9A42B8BF1A4604460A930492B8E01F
:1044A0002178039B682900F0CD8343F040030393F8
:1044B00044E5039B0B9A43F00203039347F6300352
:1044C000ADF84C3052F8043BB4490B9200220694EC
:1044D0000F9100218DF84B1005990029C0F28181C0
:1044E000039C53EA020024F0800140F079812246C7
:1044F0000220039155E7039B06949C0640F1FE823F
:104500000B9B089A1B681A60D2175A600B9B0433E6
:104510000B93EFE42178039B6C2900F09A8343F01E
:10452000100303930AE5484601F0D0F943681846A2
:10453000119301F051FA10900546484601F0C6F972
:1045400083680E93002D3FF473AD0E9B2178002BF2
:104550003FF4F4AC1B78002B3FF4F0AC039B43F426
:1045600080630393EAE4039B217843F00103039300
:10457000E4E49DF84B302178002B7FF4DFAC20235E
:104580008DF84B30DAE4039B217843F080030393EA
:10459000D4E4204610F8011B2A2900F04584A1F13B
:1045A0003003092B98BF002200F2FD8310F8011B95
:1045B00002EB820203EB4202A1F13003092BF5D991
:1045C00042EAE27304460593B9E42B2321788DF87F
:1045D0004B30B3E42D228DF84B20059A5B4261EB02
:1045E0004101002A03DB039A22F0800203920A2B86
:1045F00071F1000280F01E823033DBB28DF817318A
:10460000059B0DF21714012BB8BF0123049301235E
:104610000A939DF84B30002B3FF4D9AE00230C9346
:10462000049B01330493039B13F002063FF491AD06
:10463000049B0226023304938BE501230A9A1D94FE
:104640001B931E921C920DF1740A0AF1080AE3E50D
:10465000099B049D5D1B002D7FF7BFAD102D40F31E
:10466000DC83DFF83C81D44643461026A046DDF8C3
:104670001CA01C4606E0881C19460CF1080C103DD5
:10468000102D1ADD4B1C1032072BCCE90046CDE96A
:104690001B32F0DD002A7BD0514648461AAAFFF7AC
:1046A0009DFB00287FF42FADDDE91B12103D102D7E
:1046B0000DF1740C01F10100E4DC2346E2464446AE
:1046C00098462A440728CDE91B02CAF80080CAF898
:1046D000045040F39781002A00F030834846079940
:1046E0001AAAFFF77BFB00287FF40DADDDE91B1252
:1046F000059B0A9D0DF1740A5D1B002D01F101005F
:104700007FF771AD102DDFF898802EDDD44610268E
:10471000AA462546079C08E0881C19460CF1080C9F
:10472000AAF1100ABAF1100F1CDD4B1C1C48103204
:10473000072BCCE90006CDE91B32EDDD1AB321468B
:1047400048461AAAFFF74AFB00287FF4DCACDDE9F3
:104750001B12AAF1100ABAF1100F0DF1740C01F13D
:104760000100E2DC2C465546E2462A440728CDE902
:104770001B02CAF80080CAF8045000F3EB800AF16B
:10478000080A01302FE5012011460DF1740CC7E72E
:10479000012011460DF1740C71E700BF90850008EF
:1047A000848700086AB1484607991AAAFFF716FBE2
:1047B00000287FF4A8ACDDE91B120DF1740A481C37
:1047C000EBE4002E00F0AB810222012013AB1D931D
:1047D0000DF1740A1E9201460AF1080A0130F8E44C
:1047E00003910F9846AC03F00F01415C1B0943EAAB
:1047F0000273120904F8011D53EA0201F3D1059A6C
:1048000046AB1B1B9A42B8BF1A460A93049200E7B4
:10481000102D40F3CD82DFF8DC82D6461023A2466D
:104820004446DDF81C8008E001F1020C01460EF15F
:10483000080E103D102D1BDD481C10320728CEE954
:104840000043CDE91B02EFDD2AB3414648461AAAD0
:10485000FFF7C4FA00287FF456ACDDE91B12103DC7
:10486000102D4FF010030DF1740E01F1010CE3DC7B
:10487000A04660465446F2462A440728CDE91B026A
:10488000CAF80080CAF8045000F3998001460AF182
:10489000080A01306DE411464FF0010C0DF1740E61
:1048A000C7E7039B1B925C074BD5099B04995C1AD5
:1048B000002C46DD0DF1740A102C1B9940F3878201
:1048C000DFF8308210254646DDF81C8006E0881CA3
:1048D00019460AF1080A103C102C19DD4B1C103245
:1048E000072BCAE90065CDE91B32F0DD22B3414652
:1048F00048461AAAFFF772FA00287FF404ACDDE9F3
:104900001B12103C102C0DF1740A01F10100E5DCC2
:10491000B04622440728CAE90084CDE91B027FF78C
:1049200084AC72B1484607991AAAFFF757FA0028D3
:104930007FF4E9AB1C9A78E4012011460DF1740A6A
:10494000C9E70499DDE908328A42ACBF9B185B18BD
:10495000089375E4002A3FF470AE484607991AAAF6
:10496000FFF73CFA00287FF4CEAB1B981C9A0DF1A0
:10497000740A013037E41B92FFF7BABB0B9811F0B1
:10498000100450F8043B40F0AE8011F0400500F0F8
:10499000A68022460B909BB2F2E40B9812F0100412
:1049A00050F8043B38D112F0400531D021460B902D
:1049B0009BB238E5012011460DF1740A09E4002A82
:1049C00000F0EB80484607991AAAFFF707FA00287B
:1049D0007FF499ABDDE91B120DF1740A481CFFF757
:1049E000C8BB059B46AC04930A9312E6059B46ACF4
:1049F00004930EE6079DA86D00F09EFFB5F90C200C
:104A0000FFF754BA01460AF1080A0130FFF7E5BB87
:104A100012F4007140F098810B9000208DF84B004B
:104A200005980028BFF606AD0A2B039271F100022B
:104A3000FFF4E2AD039A984602F480624FF0000C56
:104A400013462D4D0DF58C7ECDF810A0CDF8289095
:104A500007E0B8F10A0F71F100013BD3C8463146B7
:104A6000A64618EB010242F10002A5FB020626F061
:104A7000030000EB96004FF0CC36121AB8EB0200A0
:104A800006FB00F661F1000AA0FB059005FB0A6633
:104A90000644052009F0010AAAFB000A80184FEA23
:104AA0005909303049EAC6790CF1010C0EF1FF3496
:104AB0000EF8010C7608002BCBD00E9A12786245C6
:104AC000C7D1BCF1FF0FC4D0B8F10A0F71F10001DA
:104AD00080F0E180DDF810A0DDF828908FE611F479
:104AE000007240F036810B904AE4D9170B920A46C7
:104AF00015E400BF94870008CDCCCCCC039BD8062E
:104B000000F1AE80039B590600F13181039B9A05A9
:104B100040F1A6800B9B089A1B681A70F6E41146B8
:104B200001200DF1740AFFF754BB039A06946DE45B
:104B3000A94B06940F93039B13F0200264D00B9BA8
:104B4000073323F0070318465A6850F8083B0B90C8
:104B5000039CE6070AD553EA020007D08DF84D10F2
:104B600044F00201039130218DF84C10039921F497
:104B700080610391ADE403990694FFF7F4BB974B72
:104B800006940F93D7E70B9B2DAC1B688DF8B430C0
:104B9000012304930A93FFF7AFBB9DF84B30002B22
:104BA00000F0DF8001200DF14B0302461D930DF153
:104BB000740A1E90FFF7EDBA0822002118A8159478
:104BC00000F0F8FD059B002B77DB0025CDF810A049
:104BD000A8469A460FE018AB48462DA900F02AFFD8
:104BE000431C05F10405404400F0FE80504506DCFE
:104BF00000F016818046159B5A59002AEBD1DDF84A
:104C000010A0CDF8288066E0039C0B9814F01004E7
:104C100050F8043B0DD1039A12F0400203D0224613
:104C20000B909BB294E7039C14F4007440F09680C0
:104C300022460B908CE703910FE4484600F0AAFA55
:104C4000FFF72BB943F40073617803930134FFF746
:104C500075B943F02003617803930134FFF76EB90F
:104C60000B9B089A1B681A6050E4059B5C4C062B52
:104C700028BF0623CDE90A360493FFF767BA0399E4
:104C80000B928D054CBF43F3C011D9170A4648BF9C
:104C90005BB2FFF744BB0C93109B1199E41A1A46C0
:104CA000204600F0D7FD0E990C9B4A7812B10A46B7
:104CB00001320E924FF0000CD0E618AB00930023A7
:104CC0004846194615AA00F0DBFE034601330A9058
:104CD00000F08A8015940A9B0BB3632B4DDD484688
:104CE000591C02F05FF8044600287DD00C90082281
:104CF000002118A800F05EFD0A9D18AB0093214624
:104D00002B46484615AA00F0BBFE854240F097802E
:104D100000230A9AA35422EAE273049302E00A9B56
:104D200004930C939DF84B301BB100230B96059315
:104D300076E40B9605931E46FFF70BBA0120114649
:104D40000DF1740AFFF749BA29460B90DBB2FFF761
:104D50006ABB2A460B90DBB2FFF712BB0B90DBB2AB
:104D6000F6E6114601200DF1740AFFF716BA0B9B07
:104D7000089A1B681A80FFF7C9BB00232DAC0C935F
:104D8000B5E7886D00F0DAFDFFF775B9059B049370
:104D90000A93C7E7204600F01FFE20EAE0730C9557
:104DA0000A900493BEE7002304460593FFF7C7B8B3
:104DB000DFF8308060E5302320E4484607991AAADE
:104DC000FFF70CF800283FF484A9FFF7A2B9DFF839
:104DD0001480481C9DE500BFA4850008908500084C
:104DE000B885000894870008079AB2F90C3043F0A0
:104DF00040039381FFF790B9079B5B6EDB0707D4F5
:104E0000079B9B899F0503D4079B986D00F096FD37
:104E10004FF0FF330893FFF787B9DFF8308050E495
:104E2000DDE904A30A9356E70B9B617853F8042B42
:104E300004460B9342EAE2730593FFF77FB8079AA3
:104E4000938943F040039381FFF75DB9848700089D
:104E5000F0B54FF480640026ADF26C4D1AADCDE98B
:104E600005461F4606460095049515468B8916A8EB
:104E700023F00203ADF80C304B6E02941993CB89EA
:104E80000C46ADF80E30CB6907934B6A099300F0DE
:104E90004FFD2A463B4669463046FEF7E5FF051EB4
:104EA00007DB6946304600F0A7F8002818BF4FF02E
:104EB000FF35BDF80C305B0603D5A38943F04003F2
:104EC000A381169800F036FD28460DF26C4DF0BD1A
:104ED000B1F90C20F8B516070C46074648D44968C6
:104EE00042F400630029A3815FDDA56A002D3DD057
:104EF000002112F480523E683960E16961D10123DA
:104F00003846A847451C02466AD0B4F90C30A56A59
:104F1000E169580705D56368D21A236B0BB1E36BBF
:104F2000D21A00233846A847411C4CD13968B4F93D
:104F30000C301D293FD82F4ACA40D2073BD500224A
:104F400062602269DD04226023F40062A28101D53F
:104F5000002943D0216B3E6041B104F140039942E6
:104F600002D0384601F022FE002323630020F8BD62
:104F70000E69002EFAD0920718BF00230D6808BFF3
:104F80004B690E60AD1B8B600CE02B463246D4F8AB
:104F900024C03846E169E047B0F1000CA5EB0C05F0
:104FA000664406DD002DF0DCE0E7E16B00299CDCC7
:104FB000DCE7B4F90C3043F040034FF0FF30A3813D
:104FC000F8BD226DA5E70022B4F90C3062602269B9
:104FD000226023F40062DB04A281BBD52065B9E71F
:104FE0003B68002B91D01D2B01D0162BE1D13E60E8
:104FF000BCE700BF0100402038B505460C4608B1AB
:10500000436B03B3B4F90C0088B1636EDB0701D4C2
:1050100081050FD528462146FFF75AFF636E0546E6
:10502000DA0702D4A3899B0508D5284638BD054672
:10503000284638BDA06D00F07FFCEBE7A06D00F0C6
:105040007DFC284638BD00F0A5F8DBE7024A03499D
:10505000034800F03FBA00BF0C000020A57B000809
:10506000880100200C4B416810B59942044601D0DC
:1050700002F098FDA168094B994202D0204602F047
:1050800091FDE168064B994204D02046BDE81040EE
:1050900002F088BD10BD00BF80070020E807002097
:1050A000500800202DE9F84300250423304C314AF4
:1050B0003149DFF8C890DFF8C880324F324E1160B6
:1050C00004F15C0029460822C4E90335C4E900550F
:1050D000C4E90555A560656600F06CFB04F1580055
:1050E000C4E90749C4E90987E66200F021FC274BBF
:1050F0002946082204F1C4006367C4E91A55C4E9CB
:105100001E552567C4F8CC50C4F8805000F052FBFF
:1051100004F1680304F1C000C4F88430C4E92298A3
:10512000C4E9247600F004FC194B294604F5967076
:105130000822C4F8DC30C4E93455C4E93855C4F851
:10514000D850C4F83451C4F8E85000F033FB04F1EF
:10515000D003C4E93D87C4F8F09004F59470C4F816
:10516000FC60C4F8EC30BDE8F84300F0E1BB00BFE0
:1051700080070020B80800204D500008B17F0008CB
:10518000D57F00081580000839800008090001005B
:105190001200020010B504460A4800F0CDFB636B14
:1051A00023B9094B094A1B68626323B1BDE810406B
:1051B000044800F0C3BBFFF775FFBDE8104001488D
:1051C00000F0BCBBC4080020B808002065500008EF
:1051D000014800F0B1BB00BFC4080020014800F046
:1051E000ADBB00BFC40800209368002B00F0F08026
:1051F0002DE9F04FB1F90CC090461CF0080F814624
:105200000C4683B02BD00B694BB31CF00207D8F8C7
:10521000006032D04FF0000A5546D4F824B0E1695E
:10522000AB4FC5B1BD422B46524628BF3B46484610
:10523000D847002840F3C280D8F8083082441B1AAF
:105240002D1AC8F80830002B00F0AE80D4F824B036
:10525000E169002DE6D1D6E900A50836E1E721464F
:10526000484600F059F9002840F0AD80B4F90CC070
:10527000D8F800601CF00207CCD11CF0010A63D101
:1052800057462368A16818468B46002F58D01CF457
:10529000007F00F0B180B9420A4600F2DD801CF4C4
:1052A000906F2FD0216962695D1A02EB420202EB16
:1052B000D2726B1C52103B44934292BF93469B4662
:1052C0001A461CF4806F00F0E6801146484601F053
:1052D00069FD002800F0F5802A4621690190FAF75F
:1052E00017FFA289019B22F4906242F08002A28102
:1052F0005819C4F814B0ABEB05053A46BB46236118
:10530000A56020603D4600275146019200F0D4F987
:10531000A1682368019AA1EB0B011A44A1602260E5
:10532000D8F80830AA445B1BC8F80830002B3BD0E3
:105330002368A16818468B46B4F90CC0002FA6D18B
:10534000D6E900A708369EE73846BB463D46002D05
:1053500040D0002845D03A46D4E904C32068AA4288
:1053600028BF2A466045A16804D901EB030A5245CB
:1053700000F38280934272DC5A464846E169D4F8D1
:1053800024C0E047B0F1000A18DDB7EB0A070FD0E0
:105390000120D8F80830D344A3EB0A03A5EB0A0593
:1053A000C8F80830002BD2D1002003B0BDE8F08F40
:1053B00021464846FFF720FE0028EAD0B4F90C3019
:1053C00043F04003A3814FF0FF3003B0BDE8F08FFE
:1053D00000207047756833460836002DFAD0D3F8A0
:1053E00000B02A460A21584600F0AAFA002865D0E3
:1053F0000130A0EB0B07AEE722699A4214D365692E
:10540000BD4211D86FF00043BB4228BF3B4693FB1F
:10541000F5F3524605FB03F34846656AE169A84780
:10542000051ECBDD7F1B7BE7B94228BF39460D4601
:10543000184651462A4600F03FF9A1682368491BE7
:105440002B44A16023600029ECD121464846FFF798
:10545000D3FD0028E6D0B1E7BB463A4652E75946AD
:10546000019200F029F9019AA36892469B1AA36061
:1054700023681344236088E75946524600F01CF91C
:1054800023682146534448462360FFF7B5FD0028B2
:105490003FF47BAF92E7484602F0E4FB0346002866
:1054A0007FF426AF4846216901F080FB0C22B4F955
:1054B0000C30C9F8002023F0800381E76A1C1746EE
:1054C0004AE70C22B4F90C30C9F8002078E700BF95
:1054D00000FCFF7F2DE9F8434FF0000980460F469E
:1054E0001646D6E90154013D10D4A389012B08D9F1
:1054F000B4F90E30013304D021464046B84749EA9A
:105500000009013D6B1C04F16804EED13668002EE1
:10551000E7D14846BDE8F88338B52F4B05461B68F0
:105520000C4613B15A6B002A4BD0B4F90C30180753
:105530001CD5226922B313F0010107D00020616954
:10554000A0604942A1613AB1002038BD980758BF18
:105550006169A160002AF7D1190658BF1046F4D539
:1055600043F04003A3814FF0FF3038BDD9062CD55E
:105570005A0712D4226943F00803A381002ADAD122
:1055800003F42071B1F5007FD5D02146284601F003
:10559000D3FEB4F90C302269CDE7216B51B104F18F
:1055A0004002914204D0284601F000FBB4F90C30CF
:1055B000002222630021226923F02403C4E9002190
:1055C000D9E71846FFF7E6FDAFE7092243F04003AD
:1055D0002A60A381C7E700BF8401002070B582B0B4
:1055E00006460D46144600F06BF9012802D16B1EE9
:1055F000FE2B26D904F15C032A46304601A900F0AF
:1056000019FA431C20D078B1A3689DF80410013B1F
:10561000002BA36004DAA269934208DB0A2906D0B2
:1056200023685A1C22601970284602B070BD2246B9
:10563000304602F013FD0130F6D14FF0FF3002B0DA
:1056400070BD8DF80450DFE7A3894FF0FF3043F0C1
:105650004003A381F3E700BF30B51446526E054600
:10566000D007B4F90C3083B001D49A051CD5980446
:1056700006D4626E43F4005342F40052A381626682
:1056800022462846FFF7AAFF636E0546DA0702D4D2
:10569000A3899B0502D5284603B030BDA06D00F05C
:1056A0004DF9284603B030BDA06D019100F044F9DA
:1056B000B4F90C300199DAE788420ED98B1883428D
:1056C0000BD900EB020C002A6DD0624613F801CD15
:1056D000994202F801CDF9D170470F2A0FD803463D
:1056E00002F1FF3C002A5ED00CF1010C013B8C441E
:1056F00011F8012B614503F8012FF9D1704740EAF9
:1057000001039B0750D1A2F1100370B501F1200CE9
:1057100023F00F0501F1100E00F11004AC441B0939
:105720005EF8105C0EF1100E44F8105C5EF81C5C24
:10573000103444F81C5C5EF8185C44F8185C5EF8A1
:10574000145CE64544F8145CEAD1013312F00C0F06
:1057500001EB031102F00F0400EB031328D08E4677
:10576000043C24F003064FEA940C1E441C1F5EF810
:10577000045B44F8045FB442F9D10CF1010402F077
:10578000030203EB840301EB840102F1FF3C4AB105
:105790000CF1010C013B8C4411F8012B614503F81D
:1057A000012FF9D170BD7047034602F1FF3C9BE722
:1057B0002246EAE770B5860747D0541E002A3ED03D
:1057C0000346CAB201E0013C39D303F8012B9D071F
:1057D000F9D1032C2CD9CDB205EB05250F2C1A4697
:1057E00005EB054534D9A4F1100C2CF00F0603F19C
:1057F000100EB6444FEA1C1CC2E90055C2E902551E
:1058000010327245F8D10CF1010214F00C0F03EBC9
:10581000021204F00F0C13D0ACF1040323F00303C5
:105820000433134442F8045B9342FBD10CF00304AD
:105830002CB1C9B21C4403F8011BA342FBD170BDBB
:1058400064461346002CF4D1F9E703461446C0E73A
:10585000A446E1E740EA01039B0710B524D1032ADF
:1058600022D98E468446DEF800407146A4F1013309
:1058700023EA040313F0803F0EF1040E15D1043A1D
:10588000032A4CF8044BEED8714601F1FF3E52B1A9
:1058900063461EF8011F541E03F8011B41B1224646
:1058A0009C46002AF4D110BD844601F1FF3EEEE78C
:1058B0009444002CF7D003F8011B6345FBD110BDC5
:1058C000014B93F8280170471800002000487047EA
:1058D00008010020014B1868704700BF84010020B8
:1058E00070B50F4B0F4DAB42A3EB050607D000245C
:1058F000B61055F8043B01349847A642F9D802F097
:105900002DFE094D094B5E1BAB424FEAA60606D0A1
:10591000002455F8043B01349847A642F9D870BDDD
:10592000B0890008B0890008B0890008B88900086B
:10593000704700BF704700BF704700BF704700BF8F
:105940005FFA81FC810744D00346511E22B909E069
:105950009A0709D0013905D3184602780133624508
:10596000F6D1704700207047184603290CD800294B
:10597000F8D00346014401E08B42F3D0184613F8F7
:10598000012B6245F8D1704710B50CEB0C24024690
:1059900004EB044402E00439032915D9104652F8F7
:1059A000043B6340A3F1013E2EEA030313F0803F62
:1059B000F1D00346014401E08B4208D0184613F8A9
:1059C000012B6245F8D110BD10460029F1D100200D
:1059D00010BD1146C9E700BF20F0030110F003001D
:1059E000C0F1000051F8043B00F1040C4FEACC0C6C
:1059F0006FF000021CBF22FA0CF213434FF0010CAF
:105A00004CEA0C2C4CEA0C4CA3EB0C0222EA0302ED
:105A100012EACC1204BF51F8043B0430F4D0C2F1B6
:105A2000000102EA0102B2FA82F2C2F11F0200EBA7
:105A3000D200704770B5054684B05BB11C460F4B71
:105A4000D3F8E060234669B12846B047431C0FD025
:105A500004B070BD094B00F58274D3F8E0602346B2
:105A60000029F1D10A46284601A9B047431CEFD1CD
:105A700000228A2322602B6004B070BD1800002031
:105A800010B51C4682B0049B009401934FF0FF3385
:105A900002F05EFC02B010BDF8B50027DFF858C078
:105AA00021F00043634504460D46176021D8844623
:105AB00053EA0C0C1DD0DFF844C0164601EA0C0C6A
:105AC0000A46BCF1000F09D100220D4BFAF752FD36
:105AD0006FF0350704460A4621F000431B156FF3AB
