:020000040800F2
:1000000000000120691A00088119000883190008FE
:1000100085190008871900088919000800000000E8
:100020000000000000000000000000008B19000824
:100030008D190008000000008F19000891190008B0
:10004000B91A0008B91A0008B91A0008B91A000844
:10005000B91A0008B91A0008B91A0008B91A000834
:10006000B91A0008B91A0008B91A0008B91A000824
:10007000B91A0008B91A0008B91A0008B91A000814
:10008000B91A0008B91A0008B91A000800000000DF
:10009000000000000000000000000000B91A000885
:1000A000B91A0008B91A0008B91A0008B91A0008E4
:1000B000B91A0008B91A0008B91A0008B91A0008D4
:1000C000B91A0008B91A0008B91A0008B91A0008C4
:1000D000B91A0008B91A0008B91A0008000000008F
:1000E000B91A0008B91A0008B91A0008000000007F
:1000F000000000000000000000000000B91A000825
:1001000000000000B91A0008B91A0008B91A00085E
:1001100000000000000000000000000000000000DF
:1001200099190008B91A0008B91A0008B91A000884
:10013000B91A0008000000000000000000000000E4
:10014000000000000000000000000000B91A0008D4
:10015000B91A0008B91A0008B91A0008B91A000833
:10016000B91A0008B91A00080000000000000000D9
:10017000000000000000000000000000000000007F
:1001800000000000B91A0008000000000000000094
:04019000B91A000890
:1001C00081F0004102E000BF83F0004330B54FEA08
:1001D00041044FEA430594EA050F08BF90EA020F75
:1001E0001FBF54EA000C55EA020C7FEA645C7FEA08
:1001F000655C00F0E2804FEA5454D4EB5555B8BF2B
:100200006D420CDD2C4480EA020281EA030382EA9B
:10021000000083EA010180EA020281EA0303362D2D
:1002200088BF30BD11F0004F4FEA01314FF4801C00
:100230004CEA113102D0404261EB410113F0004F12
:100240004FEA03334CEA133302D0524263EB4303C9
:1002500094EA050F00F0A780A4F10104D5F1200E67
:100260000DDB02FA0EFC22FA05F2801841F10001C2
:1002700003FA0EF2801843FA05F359410EE0A5F196
:1002800020050EF1200E012A03FA0EFC28BF4CF0C7
:10029000020C43FA05F3C01851EBE37101F000457D
:1002A00007D54FF0000EDCF1000C7EEB00006EEB8A
:1002B0000101B1F5801F1BD3B1F5001F0CD3490814
:1002C0005FEA30004FEA3C0C04F101044FEA44526B
:1002D00012F5800F80F09A80BCF1004F08BF5FEAF2
:1002E000500C50F1000041EB045141EA050130BDD2
:1002F0005FEA4C0C404141EB0101013C28BFB1F5E4
:10030000801FE9D291F0000F04BF01460020B1FA2E
:1003100081F308BF2033A3F10B03B3F120020CDA01
:100320000C3208DD02F1140CC2F10C0201FA0CF0DF
:1003300021FA02F10CE002F11402D8BFC2F1200C44
:1003400001FA02F120FA0CFCDCBF41EA0C019040FA
:10035000E41AA2BF01EB0451294330BD6FEA040443
:100360001F3C1CDA0C340EDC04F11404C4F120022E
:1003700020FA04F001FA02F340EA030021FA04F340
:1003800045EA030130BDC4F10C04C4F1200220FA97
:1003900002F001FA04F340EA0300294630BD21FAD5
:1003A00004F0294630BD94F0000F83F4801306BF9B
:1003B00081F480110134013D4EE77FEA645C18BF8F
:1003C0007FEA655C29D094EA050F08BF90EA020F26
:1003D00005D054EA000C04BF1946104630BD91EA1E
:1003E000030F1EBF0021002030BD5FEA545C05D121
:1003F0004000494128BF41F0004130BD14F5800460
:100400003CBF01F5801130BD01F0004545F0FE41D3
:1004100041F470014FF0000030BD7FEA645C1ABF08
:10042000194610467FEA655C1CBF0B46024650EA3F
:10043000013406BF52EA033591EA030F41F400216B
:1004400030BD00BF90F0000F04BF0021704730B5F1
:100450004FF4806404F132044FF000054FF00001C6
:1004600050E700BF90F0000F04BF0021704730B587
:100470004FF4806404F1320410F0004548BF40425C
:100480004FF000013EE700BF42004FEAE2014FEAB1
:1004900031014FEA02701FBF12F07F4393F07F4F8C
:1004A00081F06051704732F07F4208BF704793F08F
:1004B0007F4F04BF41F40021704730B54FF46074A2
:1004C00001F0004521F000411CE700BF50EA0102A5
:1004D00008BF704730B54FF000050AE050EA01024E
:1004E00008BF704730B511F0004502D5404261EBBE
:1004F00041014FF4806404F132045FEA915C3FF4FF
:10050000D8AE4FF003025FEADC0C18BF03325FEA9B
:10051000DC0C18BF033202EBDC02C2F1200300FA4C
:1005200003FC20FA02F001FA03FE40EA0E0021FA71
:1005300002F11444BDE600BF4A0011D212F50012C8
:1005400011D20DD56FF47873B3EB62520ED44FEA2B
:10055000C12343F0004343EA505323FA02F07047AB
:100560004FF00000704750EA013002D14FF0FF30E9
:1005700070474FF00000704753B94AB9002908BFCF
:1005800000281CBF4FF0FF314FF0FF3000F00CB8D7
:10059000ADF1080C6DE904CE02F0EAFDDDF804E0EF
:1005A000DDE9022304B07047704700BF000000007F
:1005B00001F0FF01102A2BDB10F0070F08D010F814
:1005C000013B013A8B422DD010F0070F42B3F6D118
:1005D000F0B441EA012141EA014122F007047FF031
:1005E00000070023F0E80256083C85EA010586EA88
:1005F000010685FA47F5A3FA87F586FA47F6A5FAC4
:1006000087F68EB9EED1F0BC01F0FF0102F00702CF
:1006100032B110F8013B013A83EA010313B1F8D17A
:100620000020704701387047002D06BF354603385B
:10063000073815F0010F07D1013015F4807F02BF94
:10064000013015F4C03F0130F0BC0138704700BFE5
:10065000844641EA000313F003036DD1403A41D3CD
:1006600051F8043B40F8043B51F8043B40F8043B8C
:1006700051F8043B40F8043B51F8043B40F8043B7C
:1006800051F8043B40F8043B51F8043B40F8043B6C
:1006900051F8043B40F8043B51F8043B40F8043B5C
:1006A00051F8043B40F8043B51F8043B40F8043B4C
:1006B00051F8043B40F8043B51F8043B40F8043B3C
:1006C00051F8043B40F8043B51F8043B40F8043B2C
:1006D00051F8043B40F8043B51F8043B40F8043B1C
:1006E000403ABDD2303211D351F8043B40F8043BBC
:1006F00051F8043B40F8043B51F8043B40F8043BFC
:1007000051F8043B40F8043B103AEDD20C3205D3CB
:1007100051F8043B40F8043B043AF9D2043208D0C3
:10072000D2071CBF11F8013B00F8013B01D30B8835
:1007300003806046704700BF082A13D38B078DD013
:1007400010F003038AD0C3F10403D21ADB071CBFE5
:1007500011F8013B00F8013B80D331F8023B20F84F
:10076000023B7BE7043AD9D3013A11F8013B00F888
:10077000013BF9D20B7803704B7843708B78837010
:10078000604670470000000000000000000000000C
:100790000000000000000000000000000000000059
:1007A0000000000000000000000000000000000049
:1007B0000000000000000000000000000000000039
:1007C00030B490F800F020F007016FF0000C10F04A
:1007D000070491F820F040F048804FF000046FF0DB
:1007E0000700D1E9002391F840F000F1080082FAF7
:1007F0004CF2A4FA8CF283FA4CF3A2FA8CF34BBBC2
:10080000D1E9022382FA4CF200F10800A4FA8CF23A
:1008100083FA4CF3A2FA8CF3E3B9D1E9042382FA08
:100820004CF200F10800A4FA8CF283FA4CF3A2FA1D
:100830008CF37BB9D1E9062301F1200182FA4CF255
:1008400000F10800A4FA8CF283FA4CF3A2FA8CF3BC
:10085000002BC6D0002A04BF04301A4612BAB2FADE
:1008600082F200EBD20030BC7047D1E9002304F0E3
:100870000305C4F100004FEAC50514F0040F91F818
:1008800040F00CFA05F562EA05021CBF63EA0503B5
:1008900062464FF00004AAE770B54FF0FF0C4CF42D
:1008A000E06C1CEA11541DBF1CEA135594EA0C0FAE
:1008B00095EA0C0F00F0DEF82C4481EA030621EAE9
:1008C0004C5123EA4C5350EA013518BF52EA033524
:1008D00041F4801143F4801338D0A0FB02CE4FF0D6
:1008E0000005E1FB02E506F00042E0FB03E54FF006
:1008F0000006E1FB03569CF0000F18BF4EF0010EFE
:10090000A4F1FF04B6F5007F64F5407404D25FEAF9
:100910004E0E6D4146EB060642EAC62141EA5551AC
:100920004FEAC52040EA5E504FEACE2EB4F1FD0CEE
:1009300088BFBCF5E06F1ED8BEF1004F08BF5FEA6C
:10094000500E50F1000041EB045170BD06F000461E
:1009500046EA010140EA020081EA0301B4EB5C04CB
:10096000C2BFD4EB0C0541EA045170BD41F48011C3
:100970004FF0000E013C00F3AB8014F1360FDEBFE8
:10098000002001F0004170BDC4F10004203C35DAC4
:100990000C341BDC04F11404C4F1200500FA05F347
:1009A00020FA04F001FA05F240EA020001F00042E8
:1009B00021F0004110EBD37021FA04F642EB06015E
:1009C0005EEA430E08BF20EAD37070BDC4F10C0488
:1009D000C4F1200500FA04F320FA05F001FA04F24C
:1009E00040EA020001F0004110EBD37041F1000138
:1009F0005EEA430E08BF20EAD37070BDC4F1200543
:100A000000FA05F24EEA020E20FA04F301FA05F2AA
:100A100043EA020321FA04F001F0004121FA04F252
:100A200020EA020000EBD3705EEA430E08BF20EA22
:100A3000D37070BD94F0000F0FD101F0004640005C
:100A400041EB010111F4801F08BF013CF7D041EADE
:100A5000060195F0000F18BF704703F000465200E2
:100A600043EB030313F4801F08BF013DF7D043EAB3
:100A70000603704794EA0C0F0CEA135518BF95EA69
:100A80000C0F0CD050EA410618BF52EA4306D1D1F0
:100A900081EA030101F000414FF0000070BD50EA0F
:100AA000410606BF1046194652EA430619D094EA99
:100AB0000C0F02D150EA013613D195EA0C0F05D183
:100AC00052EA03361CBF104619460AD181EA0301D7
:100AD00001F0004141F0FE4141F470014FF000008F
:100AE00070BD41F0FE4141F4780170BD70B54FF02A
:100AF000FF0C4CF4E06C1CEA11541DBF1CEA1355AA
:100B000094EA0C0F95EA0C0F00F0A7F8A4EB05048B
:100B100081EA030E52EA03354FEA013100F0888082
:100B20004FEA03334FF0805545EA131343EA12634B
:100B30004FEA022245EA111545EA10654FEA002600
:100B40000EF000419D4208BF964244F1FD0404F5B9
:100B5000407402D25B084FEA3202B61A65EB030515
:100B60005B084FEA32024FF480104FF4002CB6EBD2
:100B7000020E75EB030E22BFB61A754640EA0C0052
:100B80005B084FEA3202B6EB020E75EB030E22BF92
:100B9000B61A754640EA5C005B084FEA3202B6EBD3
:100BA000020E75EB030E22BFB61A754640EA9C0092
:100BB0005B084FEA3202B6EB020E75EB030E22BF62
:100BC000B61A754640EADC0055EA060E18D04FEA20
:100BD000051545EA16754FEA06164FEAC30343EAC0
:100BE00052734FEAC2025FEA1C1CC0D111F4801F8D
:100BF0000BD141EA00014FF000004FF0004CB6E786
:100C000011F4801F04BF01430020B4F1FD0C88BF24
:100C1000BCF5E06F3FF6AFAEB5EB030C04BFB6EB2F
:100C2000020C5FEA500C50F1000041EB045170BD22
:100C30000EF0004E4EEA113114EB5C04C2BFD4EB4F
:100C40000C0541EA045170BD41F480114FF0000ED3
:100C5000013C90E645EA060E8DE60CEA135594EA4F
:100C60000C0F08BF95EA0C0F3FF43BAF94EA0C0F52
:100C70000AD150EA01347FF434AF95EA0C0F7FF4C7
:100C800025AF104619462CE795EA0C0F06D152EA1B
:100C900003353FF4FDAE1046194622E750EA4106FF
:100CA00018BF52EA43067FF4C5AE50EA41047FF410
:100CB0000DAF52EA43057FF4EBAE12E74FF0FF3C75
:100CC00006E000BF4FF0010C02E000BF4FF0010C46
:100CD0004DF804CD4FEA410C7FEA6C5C4FEA430CBF
:100CE00018BF7FEA6C5C1BD001B050EA410C0CBF0E
:100CF00052EA430C91EA030F02BF90EA020F002070
:100D0000704710F1000F91EA030F58BF994208BFD6
:100D100090422CBFD8176FEAE37040F00100704793
:100D20004FEA410C7FEA6C5C02D150EA013C07D1EA
:100D30004FEA430C7FEA6C5CD6D152EA033CD3D035
:100D40005DF8040B704700BF8446104662468C462F
:100D50001946634600E000BF01B5FFF7B7FF002862
:100D600048BF10F1000F01BD4DF808EDFFF7F4FF8B
:100D70000CBF012000205DF808FB00BF4DF808ED16
:100D8000FFF7EAFF34BF012000205DF808FB00BF39
:100D90004DF808EDFFF7E0FF94BF012000205DF85B
:100DA00008FB00BF4DF808EDFFF7CEFF94BF012010
:100DB00000205DF808FB00BF4DF808EDFFF7C4FF09
:100DC00034BF012000205DF808FB00BF4FEA410C52
:100DD0007FEA6C5C02D150EA013C0AD14FEA430C35
:100DE0007FEA6C5C02D152EA033C02D14FF0000072
:100DF00070474FF0010070474FEA410212F50012B0
:100E000015D211D56FF47873B3EB625212D94FEA51
:100E1000C12343F0004343EA505311F0004F23FA3B
:100E200002F018BF404270474FF00000704750EA90
:100E3000013005D111F0004008BF6FF0004070474D
:100E40004FF00000704700BF0348044B834202D0BC
:100E5000034B03B118477047D0060020D00600208E
:100E6000000000000548064B1B1AD90F01EBA30137
:100E7000491002D0034B03B118477047D006002039
:100E8000D00600200000000010B5064C237843B9BE
:100E9000FFF7DAFF044B13B10448AFF300800123DE
:100EA000237010BDD006002000000000B09700089D
:100EB00008B5054B1BB105490548AFF30080BDE8F7
:100EC0000840FFF7CFBF00BF00000000D40600209D
:100ED000B097000830B589B00024039404940594B9
:100EE000069407940094194B1A6B42F004021A639B
:100EF0001A6B02F004020092009A01941A6B42F0FD
:100F000001021A631A6B02F001020192019A029423
:100F10001A6B42F002021A631B6B03F00203029386
:100F2000029B0B4D22464FF40051284601F0D8FA9F
:100F30004FF400530393012304930594069403A9EB
:100F4000284601F0E5F909B030BD00BF0038024085
:100F50000008024000B583B000210191094B1A6BD3
:100F600042F480021A631B6B03F480030193019B1C
:100F70000A46382000F0ECFF382000F0F9FF03B0FB
:100F80005DF804FB00380240D0B50C4600F040FC90
:100F900006460F46094B93F90000FFF763FA324605
:100FA0003B46FFF779FCFFF7C7FAC2B200210448BD
:100FB00000F0FCF9204600F0D3FDD0BD0000002079
:100FC000EC06002072B6FEE700B585B00023009362
:100FD0000193029303931448144A02604FF4803241
:100FE0004260836003610122027680F82030C36290
:100FF0000F498162C360C26180F83020426100F015
:101000005DFE60B9002300930122019202936946BC
:10101000054800F07FFE20B905B05DF804FBFFF73E
:10102000D1FFFFF7CFFF00BFA00700200020014045
:101030000100000F08B50A480A4B03600A4B4360E1
:1010400000238360C3604FF4804202614361836187
:10105000C361036201F0DCFB00B908BDFFF7B2FF1A
:10106000EC06002000540040A086010000B595B0B9
:101070003022002108A805F04BFD002303930493C0
:101080000593069307930193194A116C41F080511F
:101090001164126C02F080520192019A0293154978
:1010A0000A6822F4404242F400420A600A6802F4EC
:1010B00040420292029A0222089201220B921022CE
:1010C0000C920E9308A801F03DFD68B90F2303931D
:1010D0000021049105910691079103A801F082FF78
:1010E00020B915B05DF804FBFFF76CFFFFF76AFF4E
:1010F000003802400070004008B500F005FDFFF721
:10110000B5FFFFF7E7FEFFF725FFFFF75DFFFFF7EE
:1011100091FF00224FF400519A4801F0E1F99A48FA
:1011200000F060F900F094F9002840F02381642178
:101130000020FFF729FF64210120FFF725FF64212C
:101140000220FFF721FF64210320FFF71DFF642128
:101150000420FFF719FF64210520FFF715FF642124
:101160000620FFF711FF64210720FFF70DFF642120
:101170000820FFF709FF64210920FFF705FF64211C
:101180000A20FFF701FF64210B20FFF7FDFEFA2084
:1011900000F0E6FC64210C20FFF7F6FE64210D2030
:1011A000FFF7F2FE64210E20FFF7EEFE64210F2010
:1011B000FFF7EAFE64211020FFF7E6FE642111200C
:1011C000FFF7E2FE64211220FFF7DEFE6421132008
:1011D000FFF7DAFE64211420FFF7D6FE6421152004
:1011E000FFF7D2FE64211620FFF7CEFE6421172000
:1011F000FFF7CAFEFA2000F0B3FC64211820FFF7C5
:10120000C3FE64211920FFF7BFFE64211A20FFF7F7
:10121000BBFE64211B20FFF7B7FE64211C20FFF7F3
:10122000B3FE64211D20FFF7AFFE64211E20FFF7EF
:10123000ABFE64211F20FFF7A7FE64212020FFF7EB
:10124000A3FE64212120FFF79FFE64212220FFF7E7
:101250009BFE64212320FFF797FEFA2000F080FC1C
:1012600064212420FFF790FE64212520FFF78CFEE7
:1012700064212620FFF788FE64212720FFF784FEE3
:1012800064212820FFF780FE64212920FFF77CFEDF
:1012900064212A20FFF778FE64212B20FFF774FEDB
:1012A00064212C20FFF770FE64212D20FFF76CFED7
:1012B00064212E20FFF768FE64212F20FFF764FED3
:1012C0004FF47A7000F04CFCC8210020FFF75CFE60
:1012D00064210020FFF758FEC8210720FFF754FEC5
:1012E00064210720FFF750FEC8210920FFF74CFEBC
:1012F000C8210920FFF748FE64210720FFF744FEBC
:10130000C8210520FFF740FEC8210520FFF73CFE5D
:10131000C8210420FFF738FEC8210420FFF734FE5F
:10132000C8210220FFF730FEC8210220FFF72CFE63
:101330004FF4C8710020FFF727FEC8210720FFF7F0
:1013400023FEC8210720FFF71FFE64210520FFF7B9
:101350001BFEC8210520FFF717FE96210420FFF78A
:1013600013FEC8210420FFF70FFE4FF47A7000F03F
:10137000F7FBDCE601224FF40051024801F0B0F81F
:10138000D5E600BF00080240EC06002000B585B09D
:101390008DF80F104FF0FF33009301230DF10F0272
:1013A000002101F013FB05B05DF804FB10B584B01B
:1013B000044649B24B0043F058038DF80C30490104
:1013C0008DF80D108DF80E204FF0FF33009303239E
:1013D00003AAC02101F0FAFA08212046FFF7D6FF40
:1013E00004B010BD10B586B00446184802F01EF8CF
:1013F00006212046FFF7CAFF09212046FFF7C6FF56
:1014000050238DF80C3001230FE0590001F119022F
:101410006A44002002F80C0C5A1ED2B21201183194
:10142000694401F80C2C0133DBB2042BEDD94FF0E9
:10143000FF330093092303AAC021204601F0C6FA16
:1014400008212046FFF7A2FF06B010BDC89700088C
:101450002DE9F04F91B0BB4C4FF4B0620021204613
:1014600005F056FBB84BD3E90067C4E904674FF0B9
:10147000010B84F81AB032463B4630463946FEF737
:10148000A5FECDE90E0102460B46C4E908234FF044
:10149000020A84F82AA00022AC4B30463946FFF7F6
:1014A000FBF90A460146CDE90012C4E90C120325F6
:1014B00084F83A500022A64B30463946FFF7ECF943
:1014C00080468946CDE90289C4E91089042384F85D
:1014D0004A3000229F4B30463946FFF7DDF9CDE90F
:1014E0000401C4E91401052384F85A3000229A4B00
:1014F00030463946FFF7D0F90A460146CDE90612D3
:10150000C4E91812062384F86A300022934B30464F
:101510003946FFF7C1F980468946CDE90889C4E913
:101520001C89072384F87A3000228D4B30463946D7
:10153000FFF7B2F9CDE90A01C4E92001082384F8D4
:101540008A300022874B30463946FFF7A5F90A4614
:101550000146CDE90C12C4E92412092384F89A301B
:101560000022814B30463946FFF796F9804689467E
:10157000C4E928890A2384F8AA3000227B4B30462C
:101580003946FFF789F9C4E92C010B2384F8BA30F6
:10159000A4F8C8B00C2384F8CA30C4E93467A4F8AE
:1015A000D8B00D2384F8DA30DDE90E23C4E93823FE
:1015B000A4F8E8B00E2384F8EA30DDE90023C4E99A
:1015C0003C23A4F8F8B00F2384F8FA30DDE90223B5
:1015D000C4E94023A4F808B1102384F80A31DDE9F6
:1015E0000423C4E94423A4F818B1112384F81A3160
:1015F000DDE90623C4E94823A4F828B1122384F8BE
:101600002A31DDE90823C4E94C23A4F838B11323B7
:1016100084F83A31DDE90A23C4E95023A4F848B13B
:10162000142384F84A31DDE90C23C4E95423A4F8D7
:1016300058B1152384F85A31C4E95889A4F868B11F
:10164000162384F86A31C4E95C01A4F878B1172341
:1016500084F87A31A4F888A1182384F88A31C4E97F
:101660006467A4F898A1192384F89A31DDE90EBCC7
:10167000C4E968BCA4F8A8A11A2384F8AA31DDE95A
:101680000023C4E96C23A4F8B8A11B2384F8BA3161
:10169000DDE90223C4E97023A4F8C8A11C2384F85F
:1016A000CA31DDE90423C4E97423A4F8D8A11D23B9
:1016B00084F8DA31DDE90623C4E97823A4F8E8A147
:1016C0001E2384F8EA31DDE90823C4E97C23A4F869
:1016D000F8A11F2384F8FA31DDE90A23C4E9802345
:1016E000A4F808A2202384F80A32DDE90C23C4E917
:1016F0008423A4F818A2212384F81A32C4E9888923
:10170000A4F828A2222384F82A32C4E98C01A4F880
:1017100038A2232384F83A32A4F84852242384F8C8
:101720004A32C4E99467A4F85852252384F85A32FF
:10173000C4E998BCA4F86852262384F86A32DDE92B
:10174000002315E0E8070020080000200000084002
:1017500000001040000014400000184000001C4031
:1017600000002040000022400000244000002640ED
:10177000C4E99C23A4F87852272384F87A32DDE95F
:101780000223C4E9A023A4F88852282384F88A32CB
:10179000DDE90423C4E9A423A4F89852292384F89A
:1017A0009A32DDE90623C4E9A823A4F8A8522A2323
:1017B00084F8AA32DDE90823C4E9AC23A4F8B852BE
:1017C0002B2384F8BA32DDE90A23C4E9B023A4F854
:1017D000C8522C2384F8CA32DDE90C23C4E9B423AF
:1017E000A4F8D8522D2384F8DA32C4E9B889A4F8D1
:1017F000E8522E2384F8EA32C4E9BC01A4F8F85276
:101800002F2384F8FA32002011B0BDE8F08F00BF1A
:1018100010B5054C04EB00142089FEF723FED4E933
:101820000023FEF7D3FC10BDE807002082B00021A2
:1018300000910B4B5A6C42F480425A645A6C02F489
:1018400080420092009A01911A6C42F080521A6410
:101850001B6C03F080530193019B02B0704700BFE3
:101860000038024030B589B00023039304930593F8
:1018700006930793026803F1804303F590339A427D
:1018800001D009B030BD04460025019503F58C3325
:101890005A6C42F480725A645A6C02F4807201925B
:1018A000019A02951A6B42F001021A631B6B03F056
:1018B00001030293029B012303930323049303A9CF
:1018C000104800F025FD1048104B0360456085600E
:1018D000C5604FF4806303614FF4805343614FF45C
:1018E000804383614FF48073C3610562456200F0F9
:1018F000BBFB18B9044BA3639C63C2E7FFF762FB11
:10190000F8E700BF000002404007002010640240DA
:1019100030B589B00023039304930593069307938E
:101920000268144B9A4201D009B030BD00250195E0
:10193000114C236B43F002032363236B03F0020378
:101940000193019BC0230393122304930323069363
:101950000423079303A9094800F0DAFC0295236CDD
:1019600043F400132364236C03F400130293029BDB
:10197000DAE700BF00540040003802400004024093
:10198000FEE7FEE7FEE7FEE7FEE7704770477047B9
:1019900008B500F0D3F808BD08B5024800F0CAFB4E
:1019A00008BD00BF400700200120704708B505F0C2
:1019B0003FF9162303604FF0FF3008BD08B54FF024
:1019C000FF31FFF7F3FFFEE770B50C461646002522
:1019D00006E0AFF30080214601F8010B01350C460B
:1019E000B542F6DB304670BD70B50C461646002594
:1019F00004E014F8010BAFF300800135B542F8DBC9
:101A0000304670BD4FF0FF3070474FF400534B60CD
:101A100000207047012070470020704710B5034632
:101A20000C4A0D490D48006840B10C480068034459
:101A3000521A934206D8094A136010BD0748084C51
:101A40000460F2E705F0F4F80C2303604FF0FF3078
:101A5000F3E700BF0000012000040000680D002033
:101A60008810002070470000DFF834D0FFF7FAFF3D
:101A70000C480D490D4A002302E0D458C4500433E9
:101A8000C4188C42F9D30A4A0A4C002301E01360BF
:101A90000432A242FBD305F0D1F8FFF72DFB7047CB
:101AA0000000012000000020D0060020FC9B000860
:101AB000D006002084100020FEE7000010B5044688
:101AC0000E4B1A784FF47A73B3FBF2F30C4A10689A
:101AD000B0FBF3F000F050FA68B90F2C01D90120E7
:101AE0000AE0002221464FF0FF3000F031FA054BAA
:101AF0001C60002000E0012010BD00BF1400002089
:101B0000100000201800002008B50B4B1A6842F4A2
:101B100000721A601A6842F480621A601A6842F40D
:101B200080721A60032000F001FA0F20FFF7C6FF51
:101B3000FFF77CFE002008BD003C0240034A11680C
:101B4000034B1B780B441360704700BF6C0D0020E3
:101B500014000020014B1868704700BF6C0D002076
:101B600038B50446FFF7F6FF0546B4F1FF3F02D053
:101B7000044B1B781C44FFF7EDFF401BA042FAD337
:101B800038BD00BF140000204A4B5A6822F440328E
:101B90005A605A6841680A435A600268536823F4DD
:101BA0008073536002685368016943EA01235360FC
:101BB0000268536823F04073536002685368816879
:101BC0000B4353600268936823F4006393600268D8
:101BD0009368C1680B439360826A374B9A4257D02F
:101BE0000268936823F07063936002689368816A67
:101BF0000B4393600268936823F04053936002683C
:101C00009368C16A0B4393600268936823F00203F0
:101C1000936002689368017E43EA4103936090F801
:101C20002030002B3FD00268536843F400635360B8
:101C30000268536823F46043536001684B68426A4A
:101C4000013A43EA42334B600268D36A23F47003DB
:101C5000D3620168CB6AC269013A43EA0253CB629C
:101C60000268936823F4007393600268936890F8A5
:101C7000301043EA412393600268936823F4806341
:101C8000936002689368416943EA812393607047D7
:101C90000268936823F0706393600268936823F08E
:101CA00040539360B0E70268536823F400635360C5
:101CB000CAE700BF002301400100000F38B310B590
:101CC0000446036C43B1236C13F0100F0BD00120BA
:101CD000002384F83C3010BDFFF7C4FD002363648B
:101CE00084F83C30EFE7236C23F4885323F002039D
:101CF00043F0020323642046FFF746FF00206064A0
:101D0000236C23F0030343F001032364E0E7012085
:101D10007047000030B482B00022019290F83C205D
:101D2000012A00F0B6800346012280F83C200A68B0
:101D3000092A40D90468E06892B202EB42021E3AD6
:101D40004FF0070C0CFA02F220EA0202E2601C6873
:101D5000E0680A8802EB42021E3A8D6805FA02F238
:101D60000243E2604A68062A3CD81C68606B02EBBA
:101D70008202053A4FF01F0C0CFA02F220EA02022E
:101D800062631C68606B4A6802EB8202053AB1F834
:101D900000C00CFA02F20243626318683E4A9042A5
:101DA00050D018683C4A904255D0002083F83C003F
:101DB00002B030BC70470468206992B202EB420264
:101DC0004FF0070C0CFA02F220EA020222611C68B2
:101DD00020690A8802EB42028D6805FA02F202438A
:101DE0002261BFE70C2A16D81D68286B02EB82021D
:101DF000233A1F2404FA02F220EA02022A631D6831
:101E0000286B4A6802EB8202233A0C8804FA02F239
:101E100002432A63C1E71D68E86A02EB8202413A85
:101E20001F2404FA02F220EA0202EA621D68E86A4C
:101E30004A6802EB8202413A0C8804FA02F2024339
:101E4000EA62AAE70A68122AABD11448426842F44F
:101E500080024260A5E70A68103A012AA5D80F4817
:101E6000426842F4000242600A68102A9DD10C4A7E
:101E700012680C49A1FB0212920C02EB8202520082
:101E8000019202E0019A013A0192019A002AF9D1E5
:101E90008BE702208CE700BF0020014000230140B7
:101EA0001000002083DE1B43002807DB00F01F0228
:101EB000400901239340024A42F82030704700BF96
:101EC00000E100E0002808DB0901C9B200F1604030
:101ED00000F5614080F80013704700F00F00090121
:101EE000C9B2014B1954704714ED00E000B500F081
:101EF0000700C0F1070CBCF1040F28BF4FF0040C21
:101F0000031D062B0FD9C31E4FF0FF3E0EFA0CF037
:101F100021EA000199400EFA03FE22EA0E0241EA8C
:101F200002005DF804FB0023EEE70000074AD368D7
:101F300023F4E0631B041B0C000200F4E060034385
:101F400043F0BF6343F40033D360704700ED00E01B
:101F500010B50446054BD868C0F30220FFF7C6FF52
:101F600001462046FFF7AEFF10BD00BF00ED00E0C8
:101F700008B5FFF799FF08BD0138B0F1807F0BD29B
:101F80004FF0E0235861054AF02182F82310002029
:101F9000986107221A6170470120704700ED00E048
:101FA00010B40368D9B21039094AA2FB01421209E0
:101FB000084CA25CC2655F2906D96FF3090304339C
:101FC0008365806D10BC70476FF309038365F8E784
:101FD000ABAAAAAAA0990008836A826992B9012BC8
:101FE0000AD0022B02D00BB100207047C36A13F055
:101FF000807F28D100207047C36AB3F1C07F24D00E
:1020000000207047B2F5005F09D0022B25D9032BC1
:1020100025D1C36A13F0807F23D100207047032BA2
:1020200003D8DFE803F01404140A00207047C36AE1
:1020300013F0807F0DD100207047C36AB3F1C07FD9
:1020400009D000207047012070470120704701200F
:102050007047012070470120704701207047002021
:10206000704701207047000070B50446FFF772FD0D
:10207000002C5BD00546022384F83530002384F819
:1020800034302268136823F00103136023681A6850
:1020900012F0010F0AD0FFF75DFD431B052BF5D9A8
:1020A00020236365032084F8350070BD1A68204939
:1020B00011406268A0680243E0680243206902435D
:1020C00060690243A0690243E0690243206A024357
:1020D0000A43616A04291ED01A602668756925F0D2
:1020E0000705636A1D43042B07D1A36A1D43E36AF6
:1020F0001BB12046FFF770FF90B975612046FFF7CE
:102100004FFFE26D3F239340836000206065012311
:1021100084F83530C9E7E16A206B01430A43DBE705
:1021200040236365012084F83500BEE70120BCE749
:102130003F8010F0F0B583B0044600230193724B4A
:102140001D68724BA3FB0535AD0A876D3E68C26DF5
:1021500008239340334210D003681A6812F0040F2A
:102160000BD01A6822F004021A60C26D0823934053
:10217000BB60436D43F001034365E26D012393406F
:10218000334209D02268526912F0800F04D0BB603C
:10219000636D43F002036365E26D042393403342B1
:1021A00009D02268126812F0020F04D0BB60636D80
:1021B00043F004036365E26D10239340334224D05F
:1021C0002268126812F0080F1FD0BB6023681A68DB
:1021D00012F4802F0DD01B6813F4002F04D1236C50
:1021E0009BB12046984710E0A36C73B120469847F6
:1021F0000BE01A6812F4807F03D11A6822F00802FB
:102200001A60236C0BB120469847E26D202393405F
:10221000334255D02268126812F0100F50D0BB60C4
:1022200094F83530DBB2052B0ED023681A6812F40F
:10223000802F33D01B6813F4002F2AD1636C002B3E
:102240003ED0204698473BE02268136823F01603EF
:1022500013602268536923F080035361236CA3B198
:102260002268136823F008031360E26D3F23934054
:10227000BB60012384F83530002384F83430236DAB
:10228000002B3FD0204698473CE0A36C002BE7D1C1
:10229000EBE7E36BA3B12046984711E01A6812F40C
:1022A000807F09D11A6822F010021A60012384F895
:1022B0003530002384F83430E36B0BB12046984767
:1022C000636DFBB1636D13F0010F17D0052384F824
:1022D00035302268136823F001031360019B01333A
:1022E0000193AB4204D823681B6813F0010FF5D1AA
:1022F000012384F83530002384F83430E36C0BB1CB
:102300002046984703B0F0BD10000020B5814E1B59
:1023100000230F2B00F2DA8030B583B068E08568C7
:102320004FEA430E032404FA0EF425EA0405CC68B0
:1023300004FA0EF42C438460446824EA02044A68D8
:10234000C2F300129A40224342605FE0DC08083486
:1023500050F8242003F00705AD004FF00F0E0EFAE1
:1023600005FE22EA0E0E0A69AA4042EA0E0240F871
:1023700024205FE0042200E0002202FA0EF22A4349
:102380000234534D45F82420524A94686FEA0C02F7
:1023900024EA0C05D1F804E01EF4801F01D04CEAB9
:1023A00004054C4CA560E46802EA0405D1F804E099
:1023B0001EF4001F01D04CEA0405464CE560646839
:1023C00002EA0405D1F804E01EF4003F01D04CEA13
:1023D0000405404C6560246822404D6815F4803F38
:1023E00001D04CEA04023B4C226001330F2B6BD826
:1023F00001229A400C6804EA020C32EA0404F4D187
:102400004C6804F00304013C012C88D94A6802F0AE
:102410000302032A09D0C4685D000322AA4024EA0B
:1024200002048A68AA402243C2604A6802F003029A
:10243000022A8BD004684FEA430E032202FA0EF2FE
:1024400024EA02044A6802F0030202FA0EF222436E
:1024500002604A6812F4403FC7D0002201921E4A2F
:10246000546C44F480445464526C02F480420192EF
:10247000019A9C08A51C164A52F8255003F0030E39
:102480004FEA8E0E0F2202FA0EF225EA0205134AD7
:1024900090423FF471AF02F5806290420ED002F597
:1024A000806290420CD002F5806290420AD002F520
:1024B000806290423FF45EAF07225EE701225CE754
:1024C00002225AE7032258E703B030BD704700BF2D
:1024D00000380140003C014000380240000002404A
:1024E0000AB18161704709048161704703685A69C4
:1024F00012F4806F01D1002070476FF480625A613E
:1025000000230363202280F83D2080F83E30026CD7
:1025100042F00402026480F83C30012070472DE94B
:10252000F04106460C46174698463BE0FFF712FB83
:10253000069BC01A404502D8B8F1000F32D1012DD8
:1025400018D033689B6924EA03039BB2B3FA83F380
:102550005B099F4226D100233363202286F83D2069
:1025600086F83E30326C42F02002326486F83C300D
:10257000012027E033685B6924EA03039BB2B3FAC6
:1025800083F35B09E5E733685B6924EA030C1FFA10
:102590008CFCBCFA8CFC4FEA5C1C674511D1B8F18D
:1025A000FF3FC3D1C4F30745012DECD033689B69CD
:1025B00024EA030C1FFA8CFCBCFA8CFC4FEA5C1C6E
:1025C000EBE70020BDE8F0812DE9F84305460E4613
:1025D0009046994653E01A6842F400721A602B68DC
:1025E0006FF480625A6100232B63202285F83D201E
:1025F00085F83E302A6C42F004022A6485F83C30AB
:1026000001204AE0FFF7A6FAA0EB0900404502D8F6
:10261000B8F1000F33D1012F17D02B689B6926EA40
:1026200003039BB2003B18BF012343B300232B637A
:10263000202285F83D2085F83E302A6C42F02002A9
:102640002A6485F83C30012027E02B685B6926EA84
:1026500003039BB2003B18BF0123E6E72B689C698C
:1026600026EA0404A4B2003C18BF0124A4B12B68DC
:102670005A6912F4806FAED1B8F1FF3FC2D1C6F3F0
:102680000747012FEAD12B685C6926EA0404A4B24B
:10269000003C18BF0124E9E70020BDE8F8830000F2
:1026A000F0B583B004460D4616461F46C36A082B94
:1026B0000DD0012B0BD013F5803F08D0036B122BEC
:1026C0000AD10268136843F48073136004E022683F
:1026D000136843F4807313600097334600224FF071
:1026E00001112046FFF71BFF80B92369B3F5804F26
:1026F00016D1236805F0FE051D613B46324613499D
:102700002046FFF761FFF8B903B0F0BD23681B68EE
:1027100013F4807F02D04FF4007323640320F3E7A7
:10272000EB11226803F0060343F0F00313613B460C
:10273000324607492046FFF747FF18B92368EDB234
:102740001D61DAE70120DFE70120DDE7020001007B
:102750000800010070B504460D46164623685B6903
:1027600013F0800F21D12046FFF7C0FEF8B9B5F174
:10277000FF3FF3D0FFF7EEF9801BA84201D8002DF0
:10278000ECD123685B6913F0800FE7D1002323634A
:10279000202284F83D2084F83E30226C42F0200252
:1027A000226484F83C30012000E0002070BD01204C
:1027B000FCE770B504460D46164623685B6913F0C6
:1027C000040F21D12046FFF791FEF8B9B5F1FF3F84
:1027D000F3D0FFF7BFF9801BA84201D8002DECD140
:1027E00023685B6913F0040FE7D1002323632022E1
:1027F00084F83D2084F83E30226C42F020022264AE
:1028000084F83C30012000E0002070BD0120FCE78E
:10281000002800F0CC8070B5044690F83D30002BC5
:1028200077D0242384F83D302268136823F0010315
:1028300013602268136843F400431360226813682E
:1028400023F40043136000F083FC62685A4B9A4201
:1028500064D85A4B98428CBF00230123002B40F0D0
:10286000A8805749A1FB00318B0C25686A6822F0CB
:102870003F0242EA91426A6021680A6A22F03F02FE
:1028800066684D4DAE424FD8013313430B62216849
:10289000CA6922F44F4222F0FF026568464B9D420E
:1028A0004CD8431E6D00B3FBF5F3013340F6FC70CA
:1028B000034278D0C3F30B031A43CA6121680B6843
:1028C00023F0C003E269206A024313430B602168CE
:1028D0008B6823F4034323F0FF032269E06802437B
:1028E00013438B602168CB6823F0FF036269A06902
:1028F00002431343CB602268136843F00103136063
:1029000000202064202384F83D30206384F83E00BA
:1029100070BD80F83C30FEF7FBFF82E7294B984200
:102920008CBF0023012399E74FF4967505FB03F351
:10293000254DA5FB03539B090133A6E7A668BEB945
:10294000431E05EB450CB3FBFCF30133C3F30B0350
:10295000B3FA83F35B0943BBC6B9431E05EB4505D8
:10296000B3FBF5F30133C3F30B0343F40043A3E7D5
:10297000431E05EB850C0CEB8C0CB3FBFCF3013315
:10298000C3F30B03B3FA83F35B09E4E7431E05EBE0
:10299000850505EB8505B3FBF5F30133C3F30B03A5
:1029A00043F4404388E7042386E7012384E70120BA
:1029B00070470120ACE700BFA08601007F841E00A5
:1029C00083DE1B43FF083D00D34D62102DE9F04329
:1029D00085B004460F46914698460C9EFFF7BAF81C
:1029E000054694F83D00C0B2202804D0022738469E
:1029F00005B0BDE8F0830095192301224F49204618
:102A0000FFF78DFD002840F0928094F83C30012BB8
:102A100000F08F80012384F83C3023681A6812F09C
:102A2000010F03D11A6842F001021A60226813688C
:102A300023F400631360212384F83D30102384F8CD
:102A40003E3000232364C4F82490A4F82A80638DC8
:102A500023853B4BE3622B46324639462046FFF73F
:102A60001FFE0746002866D10023039323685A6996
:102A700003929B690393039B11E0236C042B01D009
:102A80000127B4E72268136843F400731360F7E783
:102A90002A4631462046FFF78CFE00282ED1238D92
:102AA000002B36D02A4631462046FFF753FE002839
:102AB000E3D1626A236812781A61606A431C636218
:102AC000618D89B2013989B26185238D013B9BB249
:102AD00023852268516911F0040FD9D0002BD7D07B
:102AE00043781361636A01336362638D9BB2013B78
:102AF0009BB26385238D013B2385C9E7236C042B9F
:102B000001D0012773E72268136843F40073136050
:102B1000F7E72268136843F400731360202384F8F6
:102B20003D30002384F83E3084F83C305FE70227D4
:102B30005DE702275BE7012759E700BF02001000AD
:102B40000000FFFF002800F0E08170B582B004466D
:102B5000036813F0010F3BD09F4B9B6803F00C03FD
:102B6000042B2CD09C4B9B6803F00C03082B21D02A
:102B70006368B3F5803F4FD0B3F5A02F52D0964B8A
:102B80001A6822F480321A601A6822F480221A60CD
:102B90006368002B50D0FEF7DDFF05468E4B1B68A7
:102BA00013F4003F14D1FEF7D5FF401B6428F5D97C
:102BB0000320B1E1884B5B6813F4800FD8D0864BBB
:102BC0001B6813F4003F03D06368002B00F09F8163
:102BD000236813F0020F54D07F4B9B6813F00C0F47
:102BE0003ED07D4B9B6803F00C03082B33D0E36889
:102BF000002B68D0794B01221A60FEF7ABFF054627
:102C0000754B1B6813F0020F54D1FEF7A3FF401B56
:102C10000228F5D903207FE16F4A136843F480331B
:102C20001360B5E76C4B1A6842F480221A601A6888
:102C300042F480321A60ABE7FEF78CFF0546664B24
:102C40001B6813F4003FC3D0FEF784FF401B6428C9
:102C5000F5D9032060E1604B5B6813F4800FC6D1A7
:102C60005D4B1B6813F0020F03D0E368012B40F0AB
:102C70005081594A136823F0F803216943EAC103DC
:102C80001360236813F0080F42D063696BB3534B92
:102C90000122C3F8802EFEF75DFF05464E4B5B6FA9
:102CA00013F0020F34D1FEF755FF401B0228F5D96F
:102CB000032031E1484A136823F0F803216943EA0D
:102CC000C1031360DDE7454B00221A60FEF742FFA7
:102CD0000546414B1B6813F0020FD2D0FEF73AFFB6
:102CE000401B0228F5D9032016E13C4B0022C3F813
:102CF000802EFEF72FFF0546374B5B6F13F0020F58
:102D000006D0FEF727FF401B0228F5D9032003E178
:102D1000236813F0040F77D02F4B1B6C13F0805FE8
:102D200033D1002301932C4B1A6C42F080521A6469
:102D30001B6C03F080530193019B0125284B1B68FA
:102D400013F4807F23D0A368012B34D0052B38D017
:102D5000214B1A6F22F001021A671A6F22F0040247
:102D60001A67A368002B3DD0FEF7F4FE06461A4B07
:102D70001B6F13F0020F46D1FEF7ECFE801B41F2F1
:102D800088339842F3D90320C6E00025D6E7144AD9
:102D9000136843F480731360FEF7DCFE0646104BA5
:102DA0001B6813F4807FCED1FEF7D4FE801B02286F
:102DB000F5D90320B0E0084A136F43F0010313670D
:102DC000CFE7054B1A6F42F004021A671A6F42F000
:102DD00001021A67C5E700BF003802400000474201
:102DE00000700040FEF7B6FE0646524B1B6F13F014
:102DF000020F08D0FEF7AEFE801B41F288339842E6
:102E0000F3D9032088E0EDB9A369002B00F083809B
:102E1000484A926802F00C02082A51D0022B17D0BF
:102E2000454B00221A66FEF795FE0446414B1B688F
:102E300013F0007F42D0FEF78DFE001B0228F5D96B
:102E4000032069E03B4A136C23F080531364DBE7F3
:102E5000394B00221A66FEF77DFE0546354B1B688E
:102E600013F0007F06D0FEF775FE401B0228F5D94F
:102E7000032051E0E369226A1343626A43EA821342
:102E8000A26A5208013A43EA0243E26A43EA026351
:102E9000284A5360284B01221A66FEF75BFE04465F
:102EA000244B1B6813F0007F06D1FEF753FE001B76
:102EB0000228F5D903202FE000202DE000202BE090
:102EC000012B2BD01B4B5B6803F48001E26991421C
:102ED00026D103F03F02216A8A4223D1616A47F674
:102EE000C0721A40B2EB811F1ED103F44031A26AB6
:102EF0005208013AB1EB024F18D103F07063E26A55
:102F0000B3EB026F14D1002006E0012070470120CE
:102F100002E0012000E0002002B070BD0120FBE7CC
:102F20000120F9E70120F7E70120F5E70120F3E7A9
:102F30000120F1E7003802400000474208B5264B67
:102F40009B6803F00C03042B41D0082B41D1224B8A
:102F50005A6802F03F025B6813F4800F12D01E4BD8
:102F60005968C1F388111D480023A1FB0001FDF73A
:102F700003FB194B5B68C3F3014301335B00B0FBF8
:102F8000F3F008BD144B5868C0F388104FEA401C9A
:102F9000BCEB000C6EEB0E0E4FEA8E1343EA9C6303
:102FA0004FEA8C11B1EB0C0163EB0E03DB0043EA3B
:102FB0005173C90011EB000C43F100039902002387
:102FC0004FEA8C2041EA9C51FDF7D6FAD1E703483D
:102FD000D7E70348D5E700BF0038024040787D01BD
:102FE0000024F400002800F09B8070B50D460446D4
:102FF0004F4B1B6803F007038B4208D2CBB24C4AFD
:103000001370136803F007038B4240F08B80236832
:1030100013F0020F17D013F0040F04D0454A936841
:1030200043F4E0539360236813F0080F04D0414A3F
:10303000936843F4604393603E4A936823F0F0033F
:10304000A1680B439360236813F0010F32D06368CB
:10305000012B21D09A1E012A25D9364A126812F076
:10306000020F61D033498A6822F0030213438B6058
:10307000FEF770FD06462F4B9B6803F00C03626859
:10308000B3EB820F16D0FEF765FD801B41F288334B
:103090009842F0D9032042E0264A126812F4003F19
:1030A000E0D101203BE0234A126812F0007FD9D121
:1030B000012034E01E4B1B6803F00703AB4207D925
:1030C000EAB21B4B1A701B6803F00703AB422DD109
:1030D000236813F0040F06D0164A936823F4E053D4
:1030E000E1680B439360236813F0080F07D0114A7F
:1030F000936823F46043216943EAC1039360FFF7B7
:103100001DFF0C4B9B68C3F303130B4AD35CD840E1
:103110000A4B18600A4B1868FEF7D0FC002070BDFF
:10312000012070470120FAE70120F8E70120F6E7C7
:10313000003C024000380240909900081000002036
:1031400018000020014B1868704700BF10000020D5
:1031500008B5FFF7F7FF044B9B68C3F38223034ACC
:10316000D35CD84008BD00BF0038024088990008F1
:103170002DE9F047089D0E4604460F46002B4AD124
:1031800094468C45B2FA82F260D942B1C2F1200372
:10319000974020FA03F30CFA02FC1F4394404FEAD5
:1031A0001C4E1FFA8CF6B7FBFEF1230C0EFB1177B9
:1031B00043EA074301FB06F098420AD91CEB0303DC
:1031C00001F1FF3780F01581984240F212810239F7
:1031D00063441B1AA4B2B3FBFEF00EFB103344EAA7
:1031E000034400FB06F6A6420AD91CEB040400F1D6
:1031F000FF3380F00081A64240F2FD806444023833
:1032000040EA0140A41B00211DB1D4400023C5E9C0
:103210000043BDE8F0878B4205D90DB1C5E9000137
:1032200000210846F5E7B3FA83F1002946D1B342FD
:1032300002D3824200F2F580841A66EB0302012079
:103240001746002DE5D0C5E90047E2E7002A40F027
:103250009380A1EB0C034FEA1C471FFA8CFE01215F
:10326000B3FBF7F607FB1630230C43EA00430EFBD3
:1032700006F0984208D91CEB030306F1FF3802D28E
:10328000984200F2D08046461B1AA4B2B3FBF7F076
:1032900007FB103344EA03440EFB00FEA64508D9A1
:1032A0001CEB040400F1FF3302D2A64500F2B68005
:1032B0001846A4EB0E0440EA0640A5E7C1F120073A
:1032C0008B4022FA07FC4CEA030C06FA01FE20FAB6
:1032D00007F426FA07F344EA0E0400FA01F84FEA6D
:1032E0001C404FEA1449B3FBF0FE1FFA8CF600FBBA
:1032F0001E3349EA03430EFB06F9994502FA01F22F
:103300000BD91CEB03030EF1FF3A80F08580994541
:1033100040F28280AEF1020E6344A3EB0909A4B22D
:10332000B9FBF0F300FB139944EA094403FB06F6EA
:10333000A64208D91CEB040403F1FF3068D2A64270
:1033400066D9023B644443EA0E40A41BA0FB02E69C
:10335000B4427346B14652D34FD05DB1B8EB0302CD
:1033600064EB090404FA07F722FA01F31F43CC4087
:10337000C5E9007400214CE7C2F1200120FA01F3F5
:103380000CFA02FC26FA01F1964033434FEA1C473F
:103390001FFA8CFEB1FBF7F007FB1016190C41EA7F
:1033A000064100FB0EF68E4204FA02F408D91CEB2B
:1033B000010100F1FF382DD28E422BD90238614431
:1033C000891B9BB2B1FBF7F607FB161143EA0143D9
:1033D00006FB0EF1994208D91CEB030306F1FF38F6
:1033E00014D2994212D9023E63445B1A46EA004164
:1033F00036E73946EDE6184602E7F045ADD2BEEBBA
:10340000020366EB0C060138B146A6E74646ECE738
:10341000034698E74046D3E7D6467EE76444023841
:1034200047E708460DE7023E63442DE70FB400B5B9
:10343000074983B004AB086853F8042B81680193F3
:1034400000F008F803B05DF804EB04B0704700BF6B
:10345000940100202DE9F04FDDB0164609911C467D
:1034600083460F9303F0E0FB036818931846FDF7BB
:10347000A7F90822179000212CA803F049FBBBF103
:10348000000F04D0DBF83430002B01F06B80099B77
:103490005A6EB3F90C30D50702D4980540F1728604
:1034A000990407D409994A6E43F4005322F4005258
:1034B0008B814A661A0740F1CD80099A1269002A69
:1034C00000F0C88003F01A020A2A00F0D28000231C
:1034D00033AA0024CDE93133CDE91B33129319937C
:1034E00020931D930B930023CDE91434309214469E
:1034F000B246914BD3F8E45003F090FB2CAA03465C
:10350000009228A952465846A847002800F0D080CB
:10351000C0F2C680289A252A034601D09A44E8E7DB
:10352000BAEB0607054640F0C78000231A464FF065
:10353000FF318DF897300C930AF1010A9AF80030A8
:103540000A9108920AF1010AA3F120025A2A00F214
:10355000F580DFE812F00103F300F300FA02F30054
:10356000F300F3006A00F300F30075028702F30032
:1035700080029402F3008D025B005B005B005B0045
:103580005B005B005B005B005B00F300F300F3009B
:10359000F300F300F300F3006D01F30001024803B0
:1035A0006D016D016D01F300F300F300F3004103C1
:1035B000F300F3000C03F300F300F3001E02F3002A
:1035C0002E03F300F300EB06F300F300F300F30027
:1035D000F300F300F300F3006D01F3000102500269
:1035E0006D016D016D0124035002FA01F3006203C5
:1035F000F300EB02E606B002FA01F3001E027C00C3
:10360000E806F300F3001107F3007C00A3F1300299
:1036100000211AF8013B01EB810102EB4101A3F10A
:103620003002092AF5D90C918EE7584603F0FCFACE
:1036300043681D931846FDF7C3F820900546584689
:1036400003F0F2FA83681B93002D40F004869AF889
:10365000003077E7099D5846294603F009F900280C
:1036600041F0AE83B5F90C3003F01A020A2A7FF458
:103670002EAF0999B1F90E20002AFFF628AF4A6E45
:10368000D50702D4980541F126810999234632468F
:10369000584601F0F7FC0B900B985DB0BDE8F08F39
:1036A000082200212CA803F033FA01239A4420E7D2
:1036B000BAEB0607054610D0329B3B443293319B50
:1036C0000133072BC4E90067319310DC08340B9BEE
:1036D0003B440B93002D7FF428AF329B002B41F02D
:1036E000E380099B0022B3F90C30319218E009996C
:1036F00030AA584601F042FD78B933ACE7E70999A2
:1037000030AA584601F03AFD002800F086800E9B52
:103710001BB10E99584604F06FFB099BB3F90C30AE
:10372000099A526ED00740F106815A0601F154837E
:103730000B985DB0BDE8F08F280000201093002B9F
:10374000CBD000228DF80C310123CDE90D328DF85C
:10375000972006930A9216921392119243AE089BF9
:1037600013F0020302D00699023106910899329DA6
:1037700011F0840805D10C9906980F1A002F00F358
:103780009E806AB101226260319A013201350DF1E9
:103790009701072A32953192216000F3C3830834E0
:1037A0006BB1319B26AA013302352260072B4FF003
:1037B000020232953193626000F3C1830834B8F19C
:1037C000800F00F0CA820A9B0D9A9F1A002F00F307
:1037D0000583089BDF0500F12A820D9B63601D4471
:1037E000319B26600133072B3295319300F33383ED
:1037F0000834089B5E0705D50C9B069A9E1A002E7E
:1038000000F3A883DDE90B3206998A42ACBF9B180E
:103810005B180B93002D7FF472AF002331930E9B46
:103820001BB10E99584604F0E7FA33AC56465FE6F2
:1038300010930F9B073323F00703F3E802780F93ED
:1038400028F000431F931E97DDE91E01B24B4FF095
:10385000FF32CDE91478FDF7B9FA002840F00B8566
:10386000DDE91E01AC4B4FF0FF32FDF791FA002865
:1038700040F001850022002338464146FDF77EFADC
:10388000002841F014819DF89720089BA34E23F057
:1038900080030893A24B10994729D8BF1E460023E6
:1038A00003210E9306910D910A931693139311938E
:1038B000002A3FF454AF069B013306934FE7102FC5
:1038C000319A41F33582DFF85CC2CDF868C02146F9
:1038D0002846099C21934FF01009654604E0103FEB
:1038E000102F01F1080115DD01321030072AC1E95E
:1038F0000059CDE93120F2DD30AA2146584601F0C9
:103900003DFC00287FF403AF103F102FDDE931208C
:1039100033A9E9DC219B0C46054601321A99216046
:103920003D44072ACDE93125676000F30B869DF8F9
:103930009720083425E799053FF5F7AE099CA06D5F
:1039400003F0AAF9B4F90C30EFE6089B43F020032A
:1039500008939AF80030F5E50F9A1093432B02F183
:10396000040500F04985089BDA0600F145850F9BA8
:103970001B688DF80C31012306930D9343AE002292
:103980000F958DF897200E920A921692139211922B
:10399000E5E60F9F109357F8046B00238DF89730DE
:1039A000002E00F01885109B532B00F0F185089B2A
:1039B00013F01003119340F0EB850A9B002BC0F22B
:1039C000608711991A463046FCF7F2FD0E900028E8
:1039D00001F07E820E9B11999DF897200F979B1BFB
:1039E0000D9323EAE373069373230A9116911391BF
:1039F0000E9110935CE71093089B9B0640F1FC80AE
:103A00000F9B073323F007031A46596852F8083B07
:103A10000F920A460029C0F2FF830A990029C0F2DA
:103A20006D82089921F0800553EA020140F0678217
:103A30000A9A002A40F0688208950D925CAE62E115
:103A40000F9B53F8042B0C92002A80F2A8830C9A47
:103A50000F9352420C92089B43F0040308939AF888
:103A600000306FE52B238DF897309AF8003069E528
:103A7000089B43F0800308939AF8003062E55046B3
:103A800010F8013B2A2B01F0B182A3F13002092A80
:103A900098BF002101F2508110F8013B01EB810138
:103AA00002EB4101A3F13002092AF5D941EAE172A2
:103AB0000A92824648E50F9A089B43F0020552F8A5
:103AC000043B0F9247F63002ADF898207820164A52
:103AD000199202210022109000200A9E8DF8970072
:103AE000002EC0F2F98025F08000089053EA020011
:103AF00040F0F180002E40F03A85002940F0B38478
:103B000015F001030D9300F0758330238DF86F31AC
:103B10000DF26F16F7E000BFFFFFEF7FD4970008AC
:103B2000D0970008B8990008E0970008089B9D0608
:103B300040F180830F9B0B9A1B681A60D2175A6062
:103B40000F9B04330F935646D2E4089B43F00103C6
:103B500008939AF80030F5E49DF897209AF8003021
:103B6000002A7FF4EFAC20228DF89720EAE410932E
:103B7000089B43F010030893089B13F0200200F009
:103B8000E2820F9B073323F0070319465A6851F866
:103B9000083B0F91089921F4806500219CE79AF871
:103BA0000030682B00F00284089A42F0400208922C
:103BB000C8E41093089B43F0100515F0200200F0B4
:103BC000D3820F9B073323F0070319465A6851F835
:103BD000083B0F9101217FE7089B43F008030893FE
:103BE0009AF80030AEE41093089B43F0100308935A
:103BF000089B9B063FF504AF0F9A52F8043B0F92C7
:103C0000089AD70600F10383089A560640F1FB8212
:103C100043F3C03211461BB2FCE69AF800306C2B1D
:103C200000F0BA83089A42F0100208928AE4109BCE
:103C3000652B40F31B81DDE9140100220023FDF711
:103C400093F8002800F0C181319BB44A226001330F
:103C500001350122072B32953193626000F38C8489
:103C60000834279B129A934280F29482179B189AE9
:103C70001D44C4E90023319B32950133072B319356
:103C800000F39E830834129B5E1E002E7FF7B1ADB9
:103C9000102E319BDFF8889240F3D380DDF824802A
:103CA000102704E00834103E102E40F3CA80013380
:103CB0001035072BC4E90097CDE93135F2DD30AA84
:103CC0004146584601F05AFA00287FF420ADDDE95C
:103CD000313533ACE7E7089D012900F01081022956
:103CE0005CAE1FD1199803F00F011B09415C06F867
:103CF000011D43EA0273120953EA0201F3D15CABDE
:103D00009B1B08950D930A990D989DF89720814269
:103D10004FF00003B8BF01460E930691169313931C
:103D20001193C5E503F00701DB0843EA4273D208AB
:103D3000303153EA0207304606F8011DF2D1EB0795
:103D4000DDD53029DBD03023023806F8013C5CABEE
:103D50001B1A08950D930646D5E70C9B069A9F1AE9
:103D6000002F7FF730AD102F319BDFF8B49123DDAA
:103D70002A464FF010084D46DDF8249004E0103F2D
:103D8000102F04F1080415DD01331032072BC4E9AC
:103D90000058CDE93132F2DD30AA4946584601F0EB
:103DA000EDF900287FF4B3AC103F102FDDE931327C
:103DB00033ACE9DCA946154601333D44072BCDE978
:103DC0003135C4F80090676000F3DA820A9B0D9ADF
:103DD0009F1A002F04F108047FF7FBAC102F319BD2
:103DE000DFF83C9121DD2A464FF01008099D04E0E0
:103DF000103F102F04F1080416DD0133484910323A
:103E0000072BC4E90018CDE93132F1DD30AA29468B
:103E1000584601F0B3F900287FF479AC103F102F19
:103E2000DDE9313233ACE8DC154601333D44072B84
:103E3000CDE93135C4F80090676000F3788108342B
:103E4000C7E401333544072BC4F800906660CDE920
:103E500031357FF7CDAC099930AA584601F08EF97B
:103E600000287FF454AC329D33ACC2E4129B319FE6
:103E7000012B05F1010507F1010704F1080840F3E2
:103E800012810123072FCDE931752660636000F3AD
:103E9000FB82179B189A01371D44072FC8E900239E
:103EA000CDE9317500F3E38208F10808129BDDE9E2
:103EB00014015C1E00220023FCF756FF002840F08E
:103EC0000B81013701362544072FCDE93175C8F83C
:103ED0000060C8F8044000F3F28008F108081C9B59
:103EE000C8F8043001371D44072F2AABCDE93175DE
:103EF000C8F80030AFDC08F108047AE4089D0A2B0A
:103F000072F1000180F0CD8230338DF86F310123E2
:103F100008950D930DF26F16F5E600BF1098000896
:103F2000A899000809991A9330AA584601F026F971
:103F300000287FF4ECAB329D1A9B33AC30E4099936
:103F400030AA584601F01AF900287FF4E0AB329D00
:103F500033AC34E4102E319B40F34387DFF8C89232
:103F6000DDF82480CDF86890102704E0103E102E74
:103F700004F1080415DD01331035072BC4E900975F
:103F8000CDE93135F2DD30AA4146584601F0F6F868
:103F900000287FF4BCAB103E102EDDE9313533AC88
:103FA000E9DC01331A9A3544072BC4E90026CDE930
:103FB00031357FF727AC099930AA584601F0DEF871
:103FC00000287FF4A4AB329D1CE42799002940F31C
:103FD000EB80DDE911839845A8BF9846B8F1000F42
:103FE0000ADD319B01334544072BC4E90068329553
:103FF000319300F384860834119FB8F1000FA8BFF5
:10400000A7EB0807002F00F35783119B33440A9353
:10401000089B590500F17185279B129A9342C0F2C3
:104020000382089AD20700F1FF81129AB718D61AB4
:104030000A9BFF1AB742A8BF3746002F0ADD23604C
:10404000319B676001333D44072B3295319300F378
:10405000A4860834002FA8BFF61B002E7FF7C9AB3B
:10406000102E319BDFF8C4917FF7EBAEDDF8248092
:10407000102704E00834103E102E7FF7E2AE013323
:104080001035072BC4E90097CDE93135F2DD30AAB0
:104090004146584601F072F800287FF438ABDDE95C
:1040A000313533ACE7E7089BDB073FF5EAAE012388
:1040B000072FCDE93175266063607FF710AF09994E
:1040C00030AA584601F05AF800287FF420ABDDE909
:1040D00031750DF1CC0802E7129B012B7FF7FFAE83
:1040E000112BDFF8489140F3BC82CDF828A01026B0
:1040F000CA46DDF8249005E008F10808103C102CB1
:1041000040F3AC8201371035072FC8E900A6CDE98E
:104110003175F1DD30AA4946584601F02FF80028E4
:104120007FF4F5AADDE931750DF1CC08E6E70999D0
:1041300030AA584601F022F800287FF4E8AA329D00
:1041400033ACFFF746BB0F9951F8043B0F91089928
:1041500011F010017FF41EAD089A12F0400000F03B
:10416000D7829BB20A4615E50F9951F8043B0F918F
:1041700015F0100145D115F040003DD00A469BB224
:104180000121A9E4099DA86D02F084FDB5F90C3068
:10419000FFF786B9089BD8077FF52BAB66E50F9331
:1041A0009AF80030FFF7CEB9319B214A22600133E3
:1041B00001350122072B32953193626000F382852D
:1041C0000834002940F05982089B129A03F0010339
:1041D00013433FF40EAB179B189A1D44C4E9002308
:1041E000319B32950133072B319300F3678304F140
:1041F000080253E25CAE86E515F400721CBFDBB228
:104200000246012168E4089A950500F11C83DA173B
:1042100011460029BFF601AC5B42089D62EB4202E9
:104220002D20012159E400BFB8990008A899000881
:1042300010980008089BD80600F10A82089B5906CE
:1042400000F10783089B9A0540F102820F9B0B9AAD
:104250001B681A7074E41B9A9AF80030002A3FF425
:1042600071A91278002A3FF46DA9089A42F480627D
:104270000892FFF767B9DDE9140102460B46FCF727
:10428000A5FD002840F03B86109B612B00F0358592
:10429000412B00F0E4820A9B013300F01486109B4E
:1042A00023F02003472B00F0CF850E90DDE9141298
:1042B0000898002A40F48079C0F2FC8400231A9305
:1042C000DDE91423CDE92223109B413B252B00F28D
:1042D0003782DFE813F05703350235023502110348
:1042E000E103350235023502350235023502350269
:1042F0003502350235023502350235023502350206
:1043000035023502350235023502350235023502F5
:1043100035023502350257033502350235021103E5
:10432000E103109328E4089D109346E41093A14BF9
:104330001993089B13F0200200F084800F9B073331
:1043400023F0070319465A6851F8083B0F91089863
:10435000C1070BD553EA020108D010998DF89910C6
:1043600040F00201089130218DF89810089921F44D
:1043700080650221FFF7B0BB10938F4B1993D8E7EC
:10438000099930AA584600F0F9FE00287FF4BFA929
:10439000329D33ACFFF717BA089B43F02003089314
:1043A0000AF1010A9AF80030FFF7CCB8089B43F4F1
:1043B000007308930AF1010A9AF80030FFF7C2B8B7
:1043C000099930AA584600F0D9FE00287FF49FA929
:1043D000329D33AC57E40A9B0E96062B314628BF1C
:1043E00006230A9632460693744E0F970D93169144
:1043F00013911191FFF75CBA082200212EA802F058
:1044000087FB0F9B43AE1A6831462EAB584602F02D
:1044100045FC034601330D9000F018860D9B23EAFE
:10442000E3730693FFF7ABBA179A18991544C4E9DA
:104430000012319A32950132072A319200F36B84CF
:104440000834F2E50F9951F8043B0F91089911F0E7
:1044500010017FF47CAF089A12F0400000F0518107
:104460009BB20A4673E70A9B0D935CAE4BE4099935
:1044700030AA584600F082FE00287FF448A9DDE902
:1044800031750DF1CC0811E5099930AA584600F0B4
:1044900075FE00287FF43BA9DDE931750DF1CC08EC
:1044A000F7E40D94DFF818911B9CCDF820A005F4DB
:1044B00080674FF0000C5CAE4FF00508069505E0F4
:1044C0000A2B72F1000234D353462A46991841F15F
:1044D0000001A9FB010525F0030000EB9500091A76
:1044E000581A4FF0CC3562F1000E05FB00F5A0FB29
:1044F00009A009FB0E550AF0010E0544AEFB080E9B
:1045000040184FEA5A0A303006F8010C4AEAC57AD8
:104510000CF1010C013E6D08002FD1D021788C45A3
:10452000CED1BCF1FF0FCBD00A2B72F1000280F08C
:104530009D831B94DDF820A0069D0D9CCDF848C0FE
:10454000FFF7DDBB09991A9330AA584600F016FE12
:1045500000287FF4DCA89DF89720329D1A9B33AC8D
:10456000FFF70FB9584601F0BBFFFEF790BF0129D6
:10457000089D7FF4B4ABC7E4099930AA584600F00F
:10458000FDFD00287FF4C3A8329D33ACFFF769BB63
:104590000DF1B808082200214046299602F0B8FA29
:1045A0000A9B002BC0F253830025069799462F469D
:1045B00017E000BFF4970008E0970008089800088B
:1045C000CDCCCCCC43A9584602F068FB431C384400
:1045D00000F06984484509DC05F1040500F0878492
:1045E0000746299A52594346002AEBD10D97069F58
:1045F0000D9B002B00F05283632B40F31684591C53
:10460000584603F0F5FC0646002800F031850E9070
:1046100008220021404602F07BFA0D9DCDF8008073
:104620002B4629AA3146584602F05EFB854240F0EF
:1046300019850D990F970023735421EAE1719DF8B4
:1046400097200A930691169313931193FFF730B9AD
:104650000F9B0B9A1B681A60FFF772BAD146DDF800
:1046600028A0C8F8009001372544072FCDE93175FF
:10467000C8F804407FF731AC21E5179B189A1D4418
:10468000C4E90023319B32950133072B319300F3AA
:10469000158104F108020029C0F2A783129916605F
:1046A00001330D44072BCDE9313551603FF7D3ABD2
:1046B00002F10804FFF79DB8102F319BDFF8BC9280
:1046C00032DD49462A46B146099D4FF010080E4694
:1046D00003E00834103F102F22DD01331032072B86
:1046E000C4E90068CDE93132F3DD30AA29465846E5
:1046F00000F044FD00287FF40AA8DDE9313233AC34
:10470000E8E7089A12F400721CBFDBB202461EE60C
:10471000089A12F400721CBFDBB20246FFF73ABAE5
:10472000154632464E46914601333D44072BCDE9AE
:104730003135C4F80090676000F3D280083464E437
:104740000A9B01932EAB049329AB039327AB0293EF
:10475000022300935846DDE9222302F0B1FB089BB7
:10476000D907064600F128832E9B1B1A1293279B1C
:104770001193119BDA1C03DB0A9A9A4280F29C8106
:10478000109B023B1093119B013B9DF84020279307
:104790000021002BB8BF119B8DF8A820BABFC3F130
:1047A00001032D222B22092B8DF8A92040F36D83C4
:1047B0000DF1BF05724F2A461046A7FB0312D2081F
:1047C00002EB8201A3EB4101303100F8011C1946D4
:1047D0006329134600F1FF32EEDC303302F8013C6E
:1047E000831EAB4280F00E840DF1A90213F8011B69
:1047F00002F8011FAB42F9D15CAB181AA0F1AD036E
:104800001C93129B1C9A012B1A440D9240F3568361
:104810000D9B179A13440D93089B0D9A23F4806304
:1048200043F48073089322EAE272002316930692FF
:10483000139311931A9B002B40F032819DF897201F
:104840000A93FFF735B843F3C01211465BB2FFF786
:10485000E1B80F9B0B9A1B681A80FFF771B95823B8
:104860008DF89930089B43F00203089330238DF8AC
:1048700098300A9B632B00F3FD8200230E9343AE16
:1048800014E53046FBF79CFF119B0A9320EAE07188
:10489000169313930E9373239DF897200D900F9703
:1048A00006911093FFF704B8099930AA584600F012
:1048B00065FC00283EF415AFFEF72FBF099930AA1A
:1048C000584600F05BFC00287EF421AFDDE931356D
:1048D000279933AADFE6886D02F0DEF9FEF7D5BE30
:1048E000099930AA584600F049FC00287EF40FAF21
:1048F000329D33ACFFF789BB0A9B03F10108022309
:10490000CDE900382EAB049329AB039327AB029378
:104910005846DDE9222302F0D3FA109B23F020074A
:10492000462F064600EB080518BF452705D133780A
:10493000302B00F00A82279B1D44DDE92201002272
:104940000023FCF711FA002840F0FB812E9BAB42BC
:1049500006D230215A1C2E9219702E9B9D42F9D8F6
:10496000279A11929B1B472F12933FF402AF462FB9
:1049700000F0F981119B013B07E700BFA8990008EF
:10498000CDCCCCCC27AADDE9220102F0BBF9002274
:104990004FF07F53FBF780FF02460B46CDE906231D
:1049A00000220023FCF7E0F908B1012327930A9BBA
:1049B000B54A1098CDF834A0591EB44B1196612811
:1049C00008BF1A463746A0460A92DDE906458A46E0
:1049D000164609E0002200230AF1FF39FCF7C4F96A
:1049E000002840F0A882CA46A94B0022204629464A
:1049F000FBF752FF0D460446FCF7FEF98146FBF734
:104A000031FD02460B4620462946FBF7DDFB16F832
:104A10000930BAF1FF3F3A46044607F8013B0D461C
:104A2000D8D1CDE906459B4BDDF834A0119E444614
:104A3000904600224D46FCF7BFF9002800F0F982AD
:104A40000A9BCDF8B880D97B17F8012C8A423B46E7
:104A500009D1302003F8010C2E9B5A1E2E9213F818
:104A6000012C8A42F6D0392A0BBF0A9A0132927A77
:104A7000D2B203F8012C3B469B1B109A1293279B42
:104A80001193612A03F1FF33279300F0A58241219E
:104A90005022109101217CE6DDF8288003232FE7C6
:104AA0002D2200238DF897200A93FEF704BF2D22B4
:104AB0008DF89720FEF7E9BEDDE91123934200F35C
:104AC000B981089B13F0010F119B00F00E82179A19
:104AD00013440D93089B5F0503D5119B002B00F336
:104AE0003A820D9B23EAE373069367231093002316
:104AF000CDF82090169313939CE6129BCDF840A01E
:104B000006EB0309139BDDF86CA0DDF858801196C5
:104B1000002B224629460A9C099DCDF82890DDF8F5
:104B200080902EDDB8F1000F7EDD08F1FF3831985E
:104B30001D9B013049440728C2E900393291319068
:104B400067DC08320A9B9AF800001F1B8742A8BF47
:104B50000746002F0BDD3198013039440728C2E9A0
:104B600000473291319065DC9AF800000832002F3E
:104B7000ACBFC61B0646002E16DC0444139B002B5C
:104B8000D0DCB8F1000FD0DCDDE911632046F3186A
:104B9000984228BF1846CDF86CA01446DDF840A016
:104BA0000A900D46FFF738BA102E31983A4B23DDA4
:104BB0000D94102734461E4604E0103C102C02F1E0
:104BC000080216DD0130344B10310728C2E90037E6
:104BD000CDE93101F1DD30AA2946584600F0CEFA80
:104BE00000287EF494AD103C102CDDE9310133AA8D
:104BF000E8DC334626460D9C13600130314407281B
:104C0000CDE9310156606ADC9AF8000008320444AC
:104C1000B4E730AA2946584600F0B0FA00287EF4DE
:104C200076AD329933AA8DE7139B013B0AF1FF3A27
:104C300013937CE730AA2946584600F09FFA0028D3
:104C40007EF465AD9AF80000329933AA8FE700230D
:104C50001946CDF8008029AA584602F045F80346C7
:104C600001330D9000F01F812996C1E4209B1D990E
:104C7000F61A1A46304601F09DFF637803B10134FD
:104C80004FF0000C20E400BFF4970008E097000804
:104C9000000030400000E03FA89900080D9B9DF8FF
:104CA00097200F9706930A931693139311930E93DD
:104CB000FEF7FEBD02F1004323932D2322911A93A8
:104CC000FFF702BB099930AA584600F057FA0028AE
:104CD0007EF41DAD2799329D33ACFFF772BA30AA2E
:104CE0002946584600F04AFA00287EF410AD9AF89A
:104CF0000000329933AA044440E77823B0E50999CB
:104D000030AA584600F03AFA00287EF400AD329DF1
:104D100033ACFFF771B9099930AA584600F02EFA62
:104D200000287EF4F4AC279B329D33ACFFF77DB9AD
:104D3000AA491A91FEF7F1BD002282460A92FEF7B7
:104D400003BC279A11922B460CE6DDE922010022D2
:104D50000023FCF709F8002800F03A81279B119303
:104D60001D44AB1B1293089B11990A9A03F001038F
:104D7000002943EA020340F34981002B40F01481EB
:104D8000119B0D9366231093089B5B0500F1E58052
:104D90000D9B23EAE3730693A9E6099930AA5846C6
:104DA00000F0ECF900287EF4B2AC279E129B329DF5
:104DB0009E1B33ACFFF74EB90A9B4727C518BCE5CD
:104DC000099B5B6EDF0707D4099B9B899E0503D473
:104DD000099B986D01F060FF4FF0FF330B93FEF7D6
:104DE000A7BC7E4A1A92FFF7DCB84F421031DFF8B9
:104DF000F091B8BF102404DB30E00832103F102FD0
:104E00002CDD01331035072BC2E90094CDE9313593
:104E1000F3DD099930AA584600F0B0F900287EF475
:104E200076ACDDE9313533AAE8E700230E9343AED3
:104E3000FFF7EEBB129B179A9A18119B0D92002B4D
:104E40006FDD672310939FE70A9B002B7FF42DAA49
:104E50000A9B0E9301230A93FFF728BA01333D44BE
:104E6000072BCDE93135C2F80090576000F3A380DD
:104E7000083213E4591C584603F0BAF806460028D5
:104E800000F0E4800E90FFF711BA002934D13022EF
:104E90008DF8AA200DF1AB02303302F8013B2AABAA
:104EA000D31A1C93ADE4099BB3F90C3000220E9287
:104EB00043F04003099A9381FEF729BC089BDB0766
:104EC0007FF5AAACA4E406230E900A93FFF7EEB98F
:104ED0000A9B06930D9373239DF897200F970A90D2
:104EE000169013901093FEF7E3BC0D93F2E50A9B26
:104EF000069F0D93FFF77CBB0DF1AA02CCE7159B33
:104F0000384E002B089BA8BF9DF8972023F0800304
:104F1000B8BF2D220893B8BF8DF89720324BFEF70B
:104F2000BABCC3F101031A4422EAE2730693672371
:104F30000D921093DBE551460029DDF834A0119E57
:104F40004446FFF698AD4B1C3B44302207F8012B3A
:104F5000BB42FBD190E5672310931B990B78FF2B85
:104F60007CD00025119A284603E001300131FF2B47
:104F700008D0934206DAD21A4B78002BF5D10B7881
:104F80000135F4E71B91139016951192169A139B15
:104F90002099CDF8209013440D9A01FB03230D9323
:104FA00023EAE373069345E4179B1A4453180D93C1
:104FB00066231093E8E6099930AA584600F0DEF817
:104FC00000287EF4A4ABDDE9313533AAFFF766BBD8
:104FD000C8F101032793AFE470225BE5B89900089C
:104FE000A8990008DC970008D89700080F9A9AF84B
:104FF000013052F8041B0F9241EAE17182460A9196
:10500000FEF7A0BA02231C93FFF7FBBB2BB90123C9
:105010006622069310920D9369E5179B03F1010830
:105020000A9B43440D9323EAE3730693662310938C
:105030005DE5DDE90601124B0022FBF795FE002835
:105040003FF419ADE8077FF516ADF9E4099AB2F916
:105050000C3043F040039381FEF762BB00231693AC
:10506000139393E7099BB3F90C3043F0400321E716
:10507000099B0E90B3F90C3043F040031AE700BFD0
:105080000000E03FF0B51F468B89ADF26C4D23F078
:105090000203ADF80C301AAB009304934FF4806315
:1050A000029305934B6E1993CB89ADF80E30CB6903
:1050B00007934B6A099315460023064616A80C462B
:1050C000069301F0E3FD2A463B4669463046FEF76B
:1050D000C1F9051E07DB6946304601F033F90028A7
:1050E00018BF4FF0FF35BDF80C305B0603D5A38920
:1050F00043F04003A381169801F0CAFD28460DF243
:105100006C4DF0BD2DE9F84F4B6E9C0490462ED5AA
:10511000936812684BB30D46064602F1080959E937
:10512000022A5FEA9A0716D0A2F1040B002401E0DC
:10513000A7420ED05BF8041F2A46304601F038FC27
:10514000431C04F10104F3D10023C8E90133BDE895
:10515000F88FD8F808302AF0030AA3EB0A03C8F83E
:10516000083009F10809002BD9D10020ECE701F043
:10517000E1F90023C8E90133BDE8F88F10B4946861
:1051800014B110BCFFF7BEBF2046546010BC70477E
:105190002DE9F04FC7B016AFCDE9052183460822AF
:1051A000002138461C460A9301F0B2FCBBF1000F07
:1051B00004D0DBF83430002B00F0E386069A536EFF
:1051C000B2F90C20DE0702D4950540F11086900458
:1051D00007D406994B6E42F4005223F400538A819F
:1051E0004B66110740F1C880069B1B69002B00F03D
:1051F000C38002F01A030A2B00F0CD800023CDE912
:105200001B33CDE90E331DAADFF85CA20D931A9271
:10521000914610930793059DDAF8E44001F0FEFCF7
:10522000009703462A4614A95846A047002800F0D4
:10523000D180C0F2C780149A252A034601D01D44AC
:10524000EAE7059BEE1A044640F0C88000234FF0C1
:10525000FF3269788DF84B3008936C1C04920293EE
:105260000134A1F120035A2B00F20081DFE813F092
:105270000E03FE00FE000803FE00FE00FE006A00B2
:10528000FE00FE0013023A03FE001E021E03FE0093
:1052900018035B005B005B005B005B005B005B0076
:1052A0005B005B00FE00FE00FE00FE00FE00FE0054
:1052B000FE00FE00FE00C9015E02FE00FE00FE00D0
:1052C000FE00FE00FE00FE00FE00FE00FE002402C6
:1052D000FE00FE00FE00A201FE007702FE00FE00BE
:1052E0000406FE00FE00FE00FE00FE00FE00FE00C2
:1052F000FE00FE00FE00C901EE01FE00FE00FE0001
:10530000C502EE017E00FE00FF02FE00F00227064D
:10531000CE027E00FE00A2017C000106FE00FE001F
:105320002B06FE007C00A1F13003002214F8011BC3
:1053300002EB820203EB4202A1F13003092BF5D903
:1053400008928EE7584601F06FFC436810931846A8
:10535000FBF736FA0F900546584601F065FC836866
:105360000E93002D40F06C85217879E7029B21781F
:1053700043F02003029373E7069D5846294601F047
:1053800077FA002840F0DC86B5F90C2002F01A0309
:105390000A2B7FF433AF0699B1F90E30002BFFF6DC
:1053A0002DAF4B6EDE0702D4950540F18F86DDE907
:1053B00005212346584600F0F1FE0790079847B0B4
:1053C000BDE8F08F08220021384601F0A1FB01233F
:1053D0001D4421E7059BEE1A044612D0059B1C9A3A
:1053E000C9E900361B9B01333244072B1C921B93E7
:1053F00011DC09F10809079B33440793002C7FF463
:1054000025AF1C9B002B40F07D86069B0022B3F944
:105410000C301B921CE0002A00F0438406991AAA63
:105420005846FFF76FFE80B90DF17409E3E706995E
:105430001AAA5846FFF766FE002800F0A6800B9BCC
:105440001BB10B99584602F0D7FC069BB3F90C3000
:10545000069A526ED10740F1A3805B0600F17C866C
:10546000079847B0BDE8F08F280000200594002978
:10547000C7D000238DF84B3001238DF8B41003936F
:1054800009932DAC4FF00008CDF82C80CDF810809A
:10549000DDE91B2C029B501C13F0840301460C9386
:1054A00005D1089B039D5D1B002D00F347839DF8EC
:1054B0004B308BB101230CF1010CC9F804300729E2
:1054C0000DF14B03CDE91B1CC9F8003000F3F88245
:1054D0000A4609F108090131B8F1000F1DD013ABDC
:1054E0000CF1020CC9F8003007294FF00203CDE996
:1054F0001B1CC9F8043040F30083BCF1000F00F01E
:10550000508406991AAA5846FFF7FCFD002896D148
:10551000DDE91B2C0DF17409511C0C9B802B00F054
:105520002582049B09981D1A002D00F37C82099A9C
:10553000C9F8004002EB0C030729CDE91B13C9F899
:10554000042040F31082002B00F0428306991AAA2F
:105550005846FFF7D7FD00287FF471AF1C9B0DF173
:105560007409029A500705D5089A0399541A002C19
:1055700000F33983DDE9072103988142ACBF52185B
:1055800012180792002B7FF452AF00231B930B9B42
:105590001BB11946584602F02FFC0DF174093AE68A
:1055A0009A053FF55AAF069CA06D01F075FBB4F962
:1055B0000C3052E70A9E059456F8044B00238DF8F0
:1055C0004B30002C00F0F584532900F09984029BA5
:1055D00013F0100540F09484049B002BC0F27F85EB
:1055E0001A4629462046FAF7E3FF0B90002800F000
:1055F0007285031B099323EAE3730B95039300F071
:1056000036BD0A9B0594432903F1040503D0029B90
:10561000DC0640F15C840822002118A801F078FA29
:105620000A9B2DAC1A68214618AB584601F036FB90
:1056300003460133099000F07B85099B23EAE3735D
:10564000039300230A958DF84B301BE7029B0594CA
:10565000980673D50A9B073323F0070319465A6847
:1056600051F8083B0A911146002AC0F24081049A81
:10567000002AC0F24981029A22F08002029253EA83
:10568000010240F04181049B002B40F039850393D7
:10569000099346AC4AE10A9B53F8042B0892002A6E
:1056A00080F29D83089A0A9352420892029B2178C5
:1056B00043F004030293D3E5029B059443F01001E9
:1056C00011F0200200F0F0820A9B073323F0070359
:1056D00018465A6850F8083B0A9021F480640294F6
:1056E000049C002084428DF84B0063DB53EA0204E3
:1056F00021F4906140F04384029A0291049B002BB4
:1057000050D1002840F0668312F00102099200F0A7
:105710006A8330238DF817319DF84B3003920DF2D8
:105720001714002B40F007810B9309E1029B0594AD
:1057300043F010030293029B98068BD402990A9AB5
:10574000C90652F8043B00F18A8302994E0640F1E3
:10575000438443F3C0310A921BB20A4684E7029B9A
:10576000059443F0100212F0200100F0AC820A9B75
:10577000073323F007031846596850F8083B0A908E
:1057800000208DF84B0004980028C0F2B08222F06F
:105790008000029053EA010040F0B680049B012093
:1057A000002BAED0012800F0AB84002302281A465B
:1057B00000F0AD8146AC03F00701DB0843EA427319
:1057C000D208303153EA0205204604F8011DF2D117
:1057D000029BDD0740F1A981302900F0A68130232A
:1057E000049A04F8013C023846AB1B1A9A42B8BF2F
:1057F0001A4609930446039298E02178029B68298F
:1058000000F0CB8343F04003029329E5029B0A9A00
:10581000059443F00203029352F8043B0A9247F6C0
:105820003002ADF84C20B74A0D92002200218DF8CD
:105830004B1004990029C0F26A81029C53EA0200CD
:1058400024F0800140F0628122460291022055E757
:10585000029B05949C0640F1DE820A9B079A1B6816
:105860001A60D2175A600A9B04330A93D3E4217852
:10587000029B6C2900F08A8343F010030293EFE44B
:10588000029B217843F001030293E9E49DF84B3039
:105890002178002B7FF4E4AC20238DF84B30DFE43B
:1058A000029B217843F080030293D9E4204610F84C
:1058B000011B2A2900F05D84A1F13003092B98BF58
:1058C000002200F2188410F8011B02EB820203EBA5
:1058D0004202A1F13003092BF5D942EAE2730493A5
:1058E0000446BEE42B2321788DF84B30B8E42D22FA
:1058F0008DF84B20049A5B4261EB4101002A03DBE7
:10590000029A22F0800202920A2B71F1000280F0CA
:10591000F4813033DBB28DF81731049B012BB8BF13
:1059200001230393012309930DF217149DF84B30C3
:10593000002B3FF4F9AE00230B93039B0133039339
:10594000029B13F002083FF4A3AD039B02330393C1
:105950004FF002089CE5099B1D9401221E931C93A5
:105960001B920DF1740909F10809FAE5089B0398E7
:105970001D1A002D7FF7D5AD102D40F3F283DFF80F
:10598000888141466346A046CC461026DDF8189033
:105990000C4606E0901C0CF1080C0A46103D102D38
:1059A0001ADD511C10330729CCE90046CDE91B1341
:1059B000F0DD1AAA002B7ED049465846FFF7A2FB1D
:1059C00000287FF43CADDDE91B23103D102D02F1D2
:1059D00001000DF1740CE4DCE1469C46234644468C
:1059E0009846AC440728CDE91B0CC9F80080C9F8DB
:1059F000045040F30482BCF1000F00F04483069988
:105A00001AAA5846FFF77EFB00287FF418AD049BC6
:105A10000998DDE91B2C1D1A002D02F101010DF181
:105A200074097FF784AD102DDFF8DC8030DD63462C
:105A30001026CC46A9462546069C08E0911C0CF190
:105A4000080C0246A9F11009B9F1100F1CDD501C19
:105A50002D4910330728CCE90016CDE91B03EDDDF5
:105A60001AAA1BB321465846FFF74CFB00287FF4C7
:105A7000E6ACDDE91B23A9F11009B9F1100F02F121
:105A800001010DF1740CE2DC2C464D46E1469C46CA
:105A9000AC440729CDE91B1CC9F80080C9F80450A3
:105AA00000F3EC8009F10809013140E501211A46B3
:105AB0000DF1740CC6E701201A460DF1740C6DE768
:105AC000BCF1000F0DD006991AAA5846FFF71AFB31
:105AD00000287FF4B4ACDDE91B2C0DF17409511CD6
:105AE000FAE4B8F1000F00F0BE8102231E939C4639
:105AF00013AB1D9301210DF174090A4609F1080940
